{
  "_format": "hh-sol-artifact-1",
  "contractName": "Relayer",
  "sourceName": "contracts/relayer/Relayer.sol",
  "abi": [
    {
      "inputs": [
        {
          "internalType": "address",
          "name": "_whoIsWhoContract",
          "type": "address"
        }
      ],
      "stateMutability": "nonpayable",
      "type": "constructor"
    },
    {
      "inputs": [],
      "name": "Relayer__InvalidCall",
      "type": "error"
    },
    {
      "inputs": [],
      "name": "mintPrice",
      "outputs": [
        {
          "internalType": "uint256",
          "name": "",
          "type": "uint256"
        }
      ],
      "stateMutability": "view",
      "type": "function"
    },
    {
      "inputs": [
        {
          "internalType": "uint256",
          "name": "_mintAmount",
          "type": "uint256"
        }
      ],
      "name": "mintRelay",
      "outputs": [],
      "stateMutability": "payable",
      "type": "function"
    },
    {
      "inputs": [],
      "name": "owner",
      "outputs": [
        {
          "internalType": "address",
          "name": "",
          "type": "address"
        }
      ],
      "stateMutability": "view",
      "type": "function"
    },
    {
      "inputs": [],
      "name": "presaleEndDate",
      "outputs": [
        {
          "internalType": "uint256",
          "name": "",
          "type": "uint256"
        }
      ],
      "stateMutability": "view",
      "type": "function"
    },
    {
      "inputs": [],
      "name": "presaleStartDate",
      "outputs": [
        {
          "internalType": "uint256",
          "name": "",
          "type": "uint256"
        }
      ],
      "stateMutability": "view",
      "type": "function"
    },
    {
      "inputs": [
        {
          "internalType": "uint256",
          "name": "_mintPrice",
          "type": "uint256"
        }
      ],
      "name": "setMintPrice",
      "outputs": [],
      "stateMutability": "nonpayable",
      "type": "function"
    },
    {
      "inputs": [
        {
          "internalType": "uint256",
          "name": "_presaleEndDate",
          "type": "uint256"
        }
      ],
      "name": "setPresaleEndDate",
      "outputs": [],
      "stateMutability": "nonpayable",
      "type": "function"
    },
    {
      "inputs": [
        {
          "internalType": "uint256",
          "name": "_presaleStartDate",
          "type": "uint256"
        }
      ],
      "name": "setPresaleStartDate",
      "outputs": [],
      "stateMutability": "nonpayable",
      "type": "function"
    },
    {
      "inputs": [],
      "name": "whoIsWhoContract",
      "outputs": [
        {
          "internalType": "address",
          "name": "",
          "type": "address"
        }
      ],
      "stateMutability": "view",
      "type": "function"
    }
  ],
  "bytecode": "0x60a060405266470de4df82000060005563646cd4f06001556364710fc060025534801561002b57600080fd5b5060405161045d38038061045d83398101604081905261004a9161006d565b6001600160a01b0316608052600380546001600160a01b0319163317905561009d565b60006020828403121561007f57600080fd5b81516001600160a01b038116811461009657600080fd5b9392505050565b60805161039f6100be6000396000818160b2015261022c015261039f6000f3fe6080604052600436106100865760003560e01c806380a3a7831161005957806380a3a783146101355780638da5cb5b1461014b5780639a2e27f81461016b578063d39a840a14610181578063f4a0a528146101a157600080fd5b80630ec38e431461008b5780633562f8b7146100a057806342e0f792146100f15780636817c76c14610111575b600080fd5b61009e610099366004610325565b6101c1565b005b3480156100ac57600080fd5b506100d47f000000000000000000000000000000000000000000000000000000000000000081565b6040516001600160a01b0390911681526020015b60405180910390f35b3480156100fd57600080fd5b5061009e61010c366004610325565b610295565b34801561011d57600080fd5b5061012760005481565b6040519081526020016100e8565b34801561014157600080fd5b5061012760015481565b34801561015757600080fd5b506003546100d4906001600160a01b031681565b34801561017757600080fd5b5061012760025481565b34801561018d57600080fd5b5061009e61019c366004610325565b6102c5565b3480156101ad57600080fd5b5061009e6101bc366004610325565b6102f5565b8015806101da575034600054826101d8919061033e565b115b806101e6575060015442105b806101f2575060025442115b156102105760405163590272cd60e11b815260040160405180910390fd5b6040516340c10f1960e01b8152336004820152602481018290527f00000000000000000000000000000000000000000000000000000000000000006001600160a01b0316906340c10f199034906044016000604051808303818588803b15801561027957600080fd5b505af115801561028d573d6000803e3d6000fd5b505050505050565b6003546001600160a01b031633146102c05760405163590272cd60e11b815260040160405180910390fd5b600155565b6003546001600160a01b031633146102f05760405163590272cd60e11b815260040160405180910390fd5b600255565b6003546001600160a01b031633146103205760405163590272cd60e11b815260040160405180910390fd5b600055565b60006020828403121561033757600080fd5b5035919050565b808202811582820484141761036357634e487b7160e01b600052601160045260246000fd5b9291505056fea2646970667358221220dcdc90aa0b8e44350d8cc78529460c1db18cada032a1717744649a3555eca1c364736f6c63430008120033",
  "linkReferences": {},
  "deployedLinkReferences": {}
}