{
  "_format": "hh-sol-artifact-1",
  "contractName": "Relayer",
  "sourceName": "contracts/relayer/Relayer.sol",
  "abi": [
    {
      "inputs": [
        {
          "internalType": "address",
          "name": "_whoIsWhoContract",
          "type": "address"
        },
        {
          "internalType": "bytes32",
          "name": "_wlMerkleRoot",
          "type": "bytes32"
        }
      ],
      "stateMutability": "nonpayable",
      "type": "constructor"
    },
    {
      "inputs": [],
      "name": "Relayer__InvalidCall",
      "type": "error"
    },
    {
      "inputs": [
        {
          "internalType": "uint256",
          "name": "_mintAmount",
          "type": "uint256"
        },
        {
          "internalType": "bytes32[]",
          "name": "_merkleProof",
          "type": "bytes32[]"
        }
      ],
      "name": "mintRelay",
      "outputs": [],
      "stateMutability": "payable",
      "type": "function"
    },
    {
      "inputs": [
        {
          "internalType": "uint256",
          "name": "_mintPrice",
          "type": "uint256"
        }
      ],
      "name": "setMintPrice",
      "outputs": [],
      "stateMutability": "nonpayable",
      "type": "function"
    },
    {
      "inputs": [
        {
          "internalType": "uint256",
          "name": "_presaleEndDate",
          "type": "uint256"
        }
      ],
      "name": "setPresaleEndDate",
      "outputs": [],
      "stateMutability": "nonpayable",
      "type": "function"
    },
    {
      "inputs": [
        {
          "internalType": "uint256",
          "name": "_presaleStartDate",
          "type": "uint256"
        }
      ],
      "name": "setPresaleStartDate",
      "outputs": [],
      "stateMutability": "nonpayable",
      "type": "function"
    }
  ],
  "bytecode": "0x60c0604052670214e8348c4f000060005563646b9180600155636470d78060025534801561002c57600080fd5b5060405161055638038061055683398101604081905261004b91610073565b6001600160a01b0390911660a052608052600380546001600160a01b031916331790556100ad565b6000806040838503121561008657600080fd5b82516001600160a01b038116811461009d57600080fd5b6020939093015192949293505050565b60805160a0516104846100d260003960006101f70152600061019001526104846000f3fe60806040526004361061003f5760003560e01c806342e0f7921461004457806353449bda14610066578063d39a840a14610079578063f4a0a52814610099575b600080fd5b34801561005057600080fd5b5061006461005f36600461035a565b6100b9565b005b610064610074366004610373565b6100e9565b34801561008557600080fd5b5061006461009436600461035a565b610263565b3480156100a557600080fd5b506100646100b436600461035a565b610293565b6003546001600160a01b031633146100e45760405163590272cd60e11b815260040160405180910390fd5b600155565b6040516bffffffffffffffffffffffff193360601b166020820152600090603401604051602081830303815290604052805190602001209050836000148061013d5750346000548561013b9190610408565b115b80610149575060015442105b80610155575060025442115b806101bd57506101bb8383808060200260200160405190810160405280939291908181526020018383602002808284376000920191909152507f000000000000000000000000000000000000000000000000000000000000000092508591506102c39050565b155b156101db5760405163590272cd60e11b815260040160405180910390fd5b6040516340c10f1960e01b8152336004820152602481018590527f00000000000000000000000000000000000000000000000000000000000000006001600160a01b0316906340c10f199034906044016000604051808303818588803b15801561024457600080fd5b505af1158015610258573d6000803e3d6000fd5b505050505050505050565b6003546001600160a01b0316331461028e5760405163590272cd60e11b815260040160405180910390fd5b600255565b6003546001600160a01b031633146102be5760405163590272cd60e11b815260040160405180910390fd5b600055565b6000826102d085846102d9565b14949350505050565b600081815b845181101561031e5761030a828683815181106102fd576102fd61041f565b6020026020010151610328565b91508061031681610435565b9150506102de565b5090505b92915050565b6000818310610344576000828152602084905260409020610353565b60008381526020839052604090205b9392505050565b60006020828403121561036c57600080fd5b5035919050565b60008060006040848603121561038857600080fd5b83359250602084013567ffffffffffffffff808211156103a757600080fd5b818601915086601f8301126103bb57600080fd5b8135818111156103ca57600080fd5b8760208260051b85010111156103df57600080fd5b6020830194508093505050509250925092565b634e487b7160e01b600052601160045260246000fd5b8082028115828204841417610322576103226103f2565b634e487b7160e01b600052603260045260246000fd5b600060018201610447576104476103f2565b506001019056fea2646970667358221220fc7146607ffb7a59a99ec35332cd96b74676a28da2b9ac5dee5c516e0ab9128d64736f6c63430008130033",
  "linkReferences": {},
  "deployedLinkReferences": {}
}