{
  "_format": "hh-sol-artifact-1",
  "contractName": "WhoIsWho",
  "sourceName": "contracts/WhoIsWho.sol",
  "abi": [
    {
      "inputs": [
        {
          "internalType": "address",
          "name": "_owner",
          "type": "address"
        },
        {
          "internalType": "bytes32",
          "name": "_ogMerkleRoot",
          "type": "bytes32"
        },
        {
          "internalType": "bytes32",
          "name": "_wlMerkleRoot",
          "type": "bytes32"
        },
        {
          "internalType": "address[]",
          "name": "_operators",
          "type": "address[]"
        }
      ],
      "stateMutability": "nonpayable",
      "type": "constructor"
    },
    {
      "inputs": [],
      "name": "ApprovalCallerNotOwnerNorApproved",
      "type": "error"
    },
    {
      "inputs": [],
      "name": "ApprovalQueryForNonexistentToken",
      "type": "error"
    },
    {
      "inputs": [],
      "name": "BalanceQueryForZeroAddress",
      "type": "error"
    },
    {
      "inputs": [],
      "name": "MintERC2309QuantityExceedsLimit",
      "type": "error"
    },
    {
      "inputs": [],
      "name": "MintToZeroAddress",
      "type": "error"
    },
    {
      "inputs": [],
      "name": "MintZeroQuantity",
      "type": "error"
    },
    {
      "inputs": [],
      "name": "OwnerQueryForNonexistentToken",
      "type": "error"
    },
    {
      "inputs": [],
      "name": "OwnershipNotInitializedForExtraData",
      "type": "error"
    },
    {
      "inputs": [],
      "name": "TransferCallerNotOwnerNorApproved",
      "type": "error"
    },
    {
      "inputs": [],
      "name": "TransferFromIncorrectOwner",
      "type": "error"
    },
    {
      "inputs": [],
      "name": "TransferToNonERC721ReceiverImplementer",
      "type": "error"
    },
    {
      "inputs": [],
      "name": "TransferToZeroAddress",
      "type": "error"
    },
    {
      "inputs": [],
      "name": "URIQueryForNonexistentToken",
      "type": "error"
    },
    {
      "inputs": [],
      "name": "WhoIsWho__InsufficientFunds",
      "type": "error"
    },
    {
      "inputs": [],
      "name": "WhoIsWho__InvalidProof",
      "type": "error"
    },
    {
      "inputs": [],
      "name": "WhoIsWho__MaxMint",
      "type": "error"
    },
    {
      "inputs": [],
      "name": "WhoIsWho__NonExistentTokenId",
      "type": "error"
    },
    {
      "inputs": [],
      "name": "WhoIsWho__StageNotReady",
      "type": "error"
    },
    {
      "inputs": [],
      "name": "WhoIsWho__ZeroMintAmount",
      "type": "error"
    },
    {
      "anonymous": false,
      "inputs": [
        {
          "indexed": true,
          "internalType": "address",
          "name": "owner",
          "type": "address"
        },
        {
          "indexed": true,
          "internalType": "address",
          "name": "approved",
          "type": "address"
        },
        {
          "indexed": true,
          "internalType": "uint256",
          "name": "tokenId",
          "type": "uint256"
        }
      ],
      "name": "Approval",
      "type": "event"
    },
    {
      "anonymous": false,
      "inputs": [
        {
          "indexed": true,
          "internalType": "address",
          "name": "owner",
          "type": "address"
        },
        {
          "indexed": true,
          "internalType": "address",
          "name": "operator",
          "type": "address"
        },
        {
          "indexed": false,
          "internalType": "bool",
          "name": "approved",
          "type": "bool"
        }
      ],
      "name": "ApprovalForAll",
      "type": "event"
    },
    {
      "anonymous": false,
      "inputs": [
        {
          "indexed": true,
          "internalType": "address",
          "name": "owner",
          "type": "address"
        },
        {
          "indexed": true,
          "internalType": "uint256",
          "name": "txIndex",
          "type": "uint256"
        }
      ],
      "name": "ConfirmTransaction",
      "type": "event"
    },
    {
      "anonymous": false,
      "inputs": [
        {
          "indexed": true,
          "internalType": "uint256",
          "name": "fromTokenId",
          "type": "uint256"
        },
        {
          "indexed": false,
          "internalType": "uint256",
          "name": "toTokenId",
          "type": "uint256"
        },
        {
          "indexed": true,
          "internalType": "address",
          "name": "from",
          "type": "address"
        },
        {
          "indexed": true,
          "internalType": "address",
          "name": "to",
          "type": "address"
        }
      ],
      "name": "ConsecutiveTransfer",
      "type": "event"
    },
    {
      "anonymous": false,
      "inputs": [
        {
          "indexed": true,
          "internalType": "address",
          "name": "owner",
          "type": "address"
        },
        {
          "indexed": true,
          "internalType": "uint256",
          "name": "txIndex",
          "type": "uint256"
        }
      ],
      "name": "ExecuteTransaction",
      "type": "event"
    },
    {
      "anonymous": false,
      "inputs": [
        {
          "indexed": true,
          "internalType": "address",
          "name": "previousOwner",
          "type": "address"
        },
        {
          "indexed": true,
          "internalType": "address",
          "name": "newOwner",
          "type": "address"
        }
      ],
      "name": "OwnershipTransferred",
      "type": "event"
    },
    {
      "anonymous": false,
      "inputs": [
        {
          "indexed": true,
          "internalType": "address",
          "name": "owner",
          "type": "address"
        },
        {
          "indexed": true,
          "internalType": "uint256",
          "name": "txIndex",
          "type": "uint256"
        }
      ],
      "name": "RevokeConfirmation",
      "type": "event"
    },
    {
      "anonymous": false,
      "inputs": [
        {
          "indexed": true,
          "internalType": "bytes32",
          "name": "role",
          "type": "bytes32"
        },
        {
          "indexed": true,
          "internalType": "bytes32",
          "name": "previousAdminRole",
          "type": "bytes32"
        },
        {
          "indexed": true,
          "internalType": "bytes32",
          "name": "newAdminRole",
          "type": "bytes32"
        }
      ],
      "name": "RoleAdminChanged",
      "type": "event"
    },
    {
      "anonymous": false,
      "inputs": [
        {
          "indexed": true,
          "internalType": "bytes32",
          "name": "role",
          "type": "bytes32"
        },
        {
          "indexed": true,
          "internalType": "address",
          "name": "account",
          "type": "address"
        },
        {
          "indexed": true,
          "internalType": "address",
          "name": "sender",
          "type": "address"
        }
      ],
      "name": "RoleGranted",
      "type": "event"
    },
    {
      "anonymous": false,
      "inputs": [
        {
          "indexed": true,
          "internalType": "bytes32",
          "name": "role",
          "type": "bytes32"
        },
        {
          "indexed": true,
          "internalType": "address",
          "name": "account",
          "type": "address"
        },
        {
          "indexed": true,
          "internalType": "address",
          "name": "sender",
          "type": "address"
        }
      ],
      "name": "RoleRevoked",
      "type": "event"
    },
    {
      "anonymous": false,
      "inputs": [
        {
          "indexed": true,
          "internalType": "uint256",
          "name": "_token",
          "type": "uint256"
        },
        {
          "indexed": false,
          "internalType": "string",
          "name": "_uri",
          "type": "string"
        }
      ],
      "name": "SetCustomMetadataURI",
      "type": "event"
    },
    {
      "anonymous": false,
      "inputs": [
        {
          "indexed": true,
          "internalType": "string",
          "name": "_uri",
          "type": "string"
        }
      ],
      "name": "SetMetadataBaseURI",
      "type": "event"
    },
    {
      "anonymous": false,
      "inputs": [
        {
          "indexed": true,
          "internalType": "address",
          "name": "owner",
          "type": "address"
        },
        {
          "indexed": true,
          "internalType": "uint256",
          "name": "txIndex",
          "type": "uint256"
        },
        {
          "indexed": true,
          "internalType": "address",
          "name": "to",
          "type": "address"
        },
        {
          "indexed": false,
          "internalType": "uint256",
          "name": "value",
          "type": "uint256"
        },
        {
          "indexed": false,
          "internalType": "bytes",
          "name": "data",
          "type": "bytes"
        }
      ],
      "name": "SubmitTransaction",
      "type": "event"
    },
    {
      "anonymous": false,
      "inputs": [
        {
          "indexed": true,
          "internalType": "address",
          "name": "from",
          "type": "address"
        },
        {
          "indexed": true,
          "internalType": "address",
          "name": "to",
          "type": "address"
        },
        {
          "indexed": true,
          "internalType": "uint256",
          "name": "tokenId",
          "type": "uint256"
        }
      ],
      "name": "Transfer",
      "type": "event"
    },
    {
      "anonymous": false,
      "inputs": [
        {
          "indexed": true,
          "internalType": "uint256",
          "name": "_dateWithdrew",
          "type": "uint256"
        },
        {
          "indexed": false,
          "internalType": "uint256",
          "name": "_amount",
          "type": "uint256"
        }
      ],
      "name": "Withdraw",
      "type": "event"
    },
    {
      "inputs": [],
      "name": "DEFAULT_ADMIN_ROLE",
      "outputs": [
        {
          "internalType": "bytes32",
          "name": "",
          "type": "bytes32"
        }
      ],
      "stateMutability": "view",
      "type": "function"
    },
    {
      "inputs": [],
      "name": "NUM_CONFIRMATIONS_REQUIRED",
      "outputs": [
        {
          "internalType": "uint32",
          "name": "",
          "type": "uint32"
        }
      ],
      "stateMutability": "view",
      "type": "function"
    },
    {
      "inputs": [],
      "name": "OPERATOR_ROLE",
      "outputs": [
        {
          "internalType": "bytes32",
          "name": "",
          "type": "bytes32"
        }
      ],
      "stateMutability": "view",
      "type": "function"
    },
    {
      "inputs": [],
      "name": "PRESALE_DATE",
      "outputs": [
        {
          "internalType": "uint64",
          "name": "",
          "type": "uint64"
        }
      ],
      "stateMutability": "view",
      "type": "function"
    },
    {
      "inputs": [],
      "name": "PRESALE_INTERVAL",
      "outputs": [
        {
          "internalType": "uint32",
          "name": "",
          "type": "uint32"
        }
      ],
      "stateMutability": "view",
      "type": "function"
    },
    {
      "inputs": [],
      "name": "PRESALE_MAX_TOKEN_PER_OG",
      "outputs": [
        {
          "internalType": "uint16",
          "name": "",
          "type": "uint16"
        }
      ],
      "stateMutability": "view",
      "type": "function"
    },
    {
      "inputs": [],
      "name": "PRESALE_MAX_TOKEN_PER_WL",
      "outputs": [
        {
          "internalType": "uint16",
          "name": "",
          "type": "uint16"
        }
      ],
      "stateMutability": "view",
      "type": "function"
    },
    {
      "inputs": [],
      "name": "PRESALE_PRICE_OG",
      "outputs": [
        {
          "internalType": "uint256",
          "name": "",
          "type": "uint256"
        }
      ],
      "stateMutability": "view",
      "type": "function"
    },
    {
      "inputs": [],
      "name": "PRESALE_PRICE_WL",
      "outputs": [
        {
          "internalType": "uint256",
          "name": "",
          "type": "uint256"
        }
      ],
      "stateMutability": "view",
      "type": "function"
    },
    {
      "inputs": [],
      "name": "PUBLIC_SALE_DATE",
      "outputs": [
        {
          "internalType": "uint64",
          "name": "",
          "type": "uint64"
        }
      ],
      "stateMutability": "view",
      "type": "function"
    },
    {
      "inputs": [],
      "name": "PUBLIC_SALE_MAX_TOKEN",
      "outputs": [
        {
          "internalType": "uint16",
          "name": "",
          "type": "uint16"
        }
      ],
      "stateMutability": "view",
      "type": "function"
    },
    {
      "inputs": [],
      "name": "PUBLIC_SALE_PRICE",
      "outputs": [
        {
          "internalType": "uint256",
          "name": "",
          "type": "uint256"
        }
      ],
      "stateMutability": "view",
      "type": "function"
    },
    {
      "inputs": [],
      "name": "RESERVED_TOKENS",
      "outputs": [
        {
          "internalType": "uint16",
          "name": "",
          "type": "uint16"
        }
      ],
      "stateMutability": "view",
      "type": "function"
    },
    {
      "inputs": [],
      "name": "REVEAL_DATE",
      "outputs": [
        {
          "internalType": "uint64",
          "name": "",
          "type": "uint64"
        }
      ],
      "stateMutability": "view",
      "type": "function"
    },
    {
      "inputs": [],
      "name": "TOTAL_SUPPLY",
      "outputs": [
        {
          "internalType": "uint32",
          "name": "",
          "type": "uint32"
        }
      ],
      "stateMutability": "view",
      "type": "function"
    },
    {
      "inputs": [
        {
          "internalType": "address",
          "name": "to",
          "type": "address"
        },
        {
          "internalType": "uint256",
          "name": "tokenId",
          "type": "uint256"
        }
      ],
      "name": "approve",
      "outputs": [],
      "stateMutability": "payable",
      "type": "function"
    },
    {
      "inputs": [
        {
          "internalType": "uint256",
          "name": "",
          "type": "uint256"
        }
      ],
      "name": "approvers",
      "outputs": [
        {
          "internalType": "address",
          "name": "",
          "type": "address"
        }
      ],
      "stateMutability": "view",
      "type": "function"
    },
    {
      "inputs": [
        {
          "internalType": "address",
          "name": "owner",
          "type": "address"
        }
      ],
      "name": "balanceOf",
      "outputs": [
        {
          "internalType": "uint256",
          "name": "",
          "type": "uint256"
        }
      ],
      "stateMutability": "view",
      "type": "function"
    },
    {
      "inputs": [
        {
          "internalType": "uint256",
          "name": "_txIndex",
          "type": "uint256"
        }
      ],
      "name": "confirmWithdrawTransaction",
      "outputs": [],
      "stateMutability": "nonpayable",
      "type": "function"
    },
    {
      "inputs": [],
      "name": "contractURI",
      "outputs": [
        {
          "internalType": "string",
          "name": "",
          "type": "string"
        }
      ],
      "stateMutability": "pure",
      "type": "function"
    },
    {
      "inputs": [
        {
          "internalType": "uint256",
          "name": "",
          "type": "uint256"
        }
      ],
      "name": "customMetadataURI",
      "outputs": [
        {
          "internalType": "string",
          "name": "",
          "type": "string"
        }
      ],
      "stateMutability": "view",
      "type": "function"
    },
    {
      "inputs": [
        {
          "internalType": "uint256",
          "name": "tokenId",
          "type": "uint256"
        }
      ],
      "name": "getApproved",
      "outputs": [
        {
          "internalType": "address",
          "name": "",
          "type": "address"
        }
      ],
      "stateMutability": "view",
      "type": "function"
    },
    {
      "inputs": [],
      "name": "getApprovers",
      "outputs": [
        {
          "internalType": "address[]",
          "name": "",
          "type": "address[]"
        }
      ],
      "stateMutability": "view",
      "type": "function"
    },
    {
      "inputs": [
        {
          "internalType": "address",
          "name": "_account",
          "type": "address"
        }
      ],
      "name": "getPublicSaleBalance",
      "outputs": [
        {
          "internalType": "uint256",
          "name": "",
          "type": "uint256"
        }
      ],
      "stateMutability": "view",
      "type": "function"
    },
    {
      "inputs": [
        {
          "internalType": "bytes32",
          "name": "role",
          "type": "bytes32"
        }
      ],
      "name": "getRoleAdmin",
      "outputs": [
        {
          "internalType": "bytes32",
          "name": "",
          "type": "bytes32"
        }
      ],
      "stateMutability": "view",
      "type": "function"
    },
    {
      "inputs": [],
      "name": "getSaleStage",
      "outputs": [
        {
          "internalType": "enum WhoIsWho.SaleStage",
          "name": "stage",
          "type": "uint8"
        }
      ],
      "stateMutability": "view",
      "type": "function"
    },
    {
      "inputs": [
        {
          "internalType": "uint256",
          "name": "_txIndex",
          "type": "uint256"
        }
      ],
      "name": "getTransaction",
      "outputs": [
        {
          "internalType": "address",
          "name": "to",
          "type": "address"
        },
        {
          "internalType": "uint256",
          "name": "value",
          "type": "uint256"
        },
        {
          "internalType": "bytes",
          "name": "data",
          "type": "bytes"
        },
        {
          "internalType": "bool",
          "name": "executed",
          "type": "bool"
        },
        {
          "internalType": "uint256",
          "name": "numConfirmations",
          "type": "uint256"
        }
      ],
      "stateMutability": "view",
      "type": "function"
    },
    {
      "inputs": [
        {
          "internalType": "bytes32",
          "name": "role",
          "type": "bytes32"
        },
        {
          "internalType": "address",
          "name": "account",
          "type": "address"
        }
      ],
      "name": "grantRole",
      "outputs": [],
      "stateMutability": "nonpayable",
      "type": "function"
    },
    {
      "inputs": [
        {
          "internalType": "bytes32",
          "name": "role",
          "type": "bytes32"
        },
        {
          "internalType": "address",
          "name": "account",
          "type": "address"
        }
      ],
      "name": "hasRole",
      "outputs": [
        {
          "internalType": "bool",
          "name": "",
          "type": "bool"
        }
      ],
      "stateMutability": "view",
      "type": "function"
    },
    {
      "inputs": [],
      "name": "hiddenTokenURI",
      "outputs": [
        {
          "internalType": "string",
          "name": "",
          "type": "string"
        }
      ],
      "stateMutability": "pure",
      "type": "function"
    },
    {
      "inputs": [
        {
          "internalType": "address",
          "name": "owner",
          "type": "address"
        },
        {
          "internalType": "address",
          "name": "operator",
          "type": "address"
        }
      ],
      "name": "isApprovedForAll",
      "outputs": [
        {
          "internalType": "bool",
          "name": "",
          "type": "bool"
        }
      ],
      "stateMutability": "view",
      "type": "function"
    },
    {
      "inputs": [
        {
          "internalType": "address",
          "name": "",
          "type": "address"
        }
      ],
      "name": "isApprover",
      "outputs": [
        {
          "internalType": "bool",
          "name": "",
          "type": "bool"
        }
      ],
      "stateMutability": "view",
      "type": "function"
    },
    {
      "inputs": [
        {
          "internalType": "uint256",
          "name": "",
          "type": "uint256"
        },
        {
          "internalType": "address",
          "name": "",
          "type": "address"
        }
      ],
      "name": "isConfirmed",
      "outputs": [
        {
          "internalType": "bool",
          "name": "",
          "type": "bool"
        }
      ],
      "stateMutability": "view",
      "type": "function"
    },
    {
      "inputs": [
        {
          "internalType": "uint256",
          "name": "",
          "type": "uint256"
        }
      ],
      "name": "isTokenHasCustomMetadataURI",
      "outputs": [
        {
          "internalType": "bool",
          "name": "",
          "type": "bool"
        }
      ],
      "stateMutability": "view",
      "type": "function"
    },
    {
      "inputs": [
        {
          "internalType": "address",
          "name": "_recipient",
          "type": "address"
        },
        {
          "internalType": "uint256",
          "name": "_mintAmount",
          "type": "uint256"
        }
      ],
      "name": "mint",
      "outputs": [],
      "stateMutability": "payable",
      "type": "function"
    },
    {
      "inputs": [
        {
          "internalType": "uint256",
          "name": "_mintAmount",
          "type": "uint256"
        }
      ],
      "name": "mint",
      "outputs": [],
      "stateMutability": "payable",
      "type": "function"
    },
    {
      "inputs": [],
      "name": "name",
      "outputs": [
        {
          "internalType": "string",
          "name": "",
          "type": "string"
        }
      ],
      "stateMutability": "view",
      "type": "function"
    },
    {
      "inputs": [],
      "name": "ogMerkleRoot",
      "outputs": [
        {
          "internalType": "bytes32",
          "name": "",
          "type": "bytes32"
        }
      ],
      "stateMutability": "view",
      "type": "function"
    },
    {
      "inputs": [
        {
          "internalType": "uint256",
          "name": "_mintAmount",
          "type": "uint256"
        },
        {
          "internalType": "bytes32[]",
          "name": "_merkleProof",
          "type": "bytes32[]"
        }
      ],
      "name": "ogMint",
      "outputs": [],
      "stateMutability": "payable",
      "type": "function"
    },
    {
      "inputs": [],
      "name": "owner",
      "outputs": [
        {
          "internalType": "address",
          "name": "",
          "type": "address"
        }
      ],
      "stateMutability": "view",
      "type": "function"
    },
    {
      "inputs": [
        {
          "internalType": "uint256",
          "name": "tokenId",
          "type": "uint256"
        }
      ],
      "name": "ownerOf",
      "outputs": [
        {
          "internalType": "address",
          "name": "",
          "type": "address"
        }
      ],
      "stateMutability": "view",
      "type": "function"
    },
    {
      "inputs": [
        {
          "internalType": "address",
          "name": "",
          "type": "address"
        }
      ],
      "name": "publicSaleBalances",
      "outputs": [
        {
          "internalType": "uint256",
          "name": "",
          "type": "uint256"
        }
      ],
      "stateMutability": "view",
      "type": "function"
    },
    {
      "inputs": [],
      "name": "renounceOwnership",
      "outputs": [],
      "stateMutability": "nonpayable",
      "type": "function"
    },
    {
      "inputs": [
        {
          "internalType": "bytes32",
          "name": "role",
          "type": "bytes32"
        },
        {
          "internalType": "address",
          "name": "account",
          "type": "address"
        }
      ],
      "name": "renounceRole",
      "outputs": [],
      "stateMutability": "nonpayable",
      "type": "function"
    },
    {
      "inputs": [
        {
          "internalType": "uint256",
          "name": "_txIndex",
          "type": "uint256"
        }
      ],
      "name": "revokeConfirmation",
      "outputs": [],
      "stateMutability": "nonpayable",
      "type": "function"
    },
    {
      "inputs": [
        {
          "internalType": "bytes32",
          "name": "role",
          "type": "bytes32"
        },
        {
          "internalType": "address",
          "name": "account",
          "type": "address"
        }
      ],
      "name": "revokeRole",
      "outputs": [],
      "stateMutability": "nonpayable",
      "type": "function"
    },
    {
      "inputs": [
        {
          "internalType": "address",
          "name": "from",
          "type": "address"
        },
        {
          "internalType": "address",
          "name": "to",
          "type": "address"
        },
        {
          "internalType": "uint256",
          "name": "tokenId",
          "type": "uint256"
        }
      ],
      "name": "safeTransferFrom",
      "outputs": [],
      "stateMutability": "payable",
      "type": "function"
    },
    {
      "inputs": [
        {
          "internalType": "address",
          "name": "from",
          "type": "address"
        },
        {
          "internalType": "address",
          "name": "to",
          "type": "address"
        },
        {
          "internalType": "uint256",
          "name": "tokenId",
          "type": "uint256"
        },
        {
          "internalType": "bytes",
          "name": "_data",
          "type": "bytes"
        }
      ],
      "name": "safeTransferFrom",
      "outputs": [],
      "stateMutability": "payable",
      "type": "function"
    },
    {
      "inputs": [
        {
          "internalType": "address",
          "name": "operator",
          "type": "address"
        },
        {
          "internalType": "bool",
          "name": "approved",
          "type": "bool"
        }
      ],
      "name": "setApprovalForAll",
      "outputs": [],
      "stateMutability": "nonpayable",
      "type": "function"
    },
    {
      "inputs": [
        {
          "internalType": "uint256",
          "name": "_token",
          "type": "uint256"
        },
        {
          "internalType": "string",
          "name": "_uri",
          "type": "string"
        }
      ],
      "name": "setCustomMetadataURI",
      "outputs": [],
      "stateMutability": "nonpayable",
      "type": "function"
    },
    {
      "inputs": [
        {
          "internalType": "string",
          "name": "_uri",
          "type": "string"
        }
      ],
      "name": "setMetadataBaseURI",
      "outputs": [],
      "stateMutability": "nonpayable",
      "type": "function"
    },
    {
      "inputs": [
        {
          "internalType": "address",
          "name": "_to",
          "type": "address"
        },
        {
          "internalType": "uint256",
          "name": "_value",
          "type": "uint256"
        },
        {
          "internalType": "bytes",
          "name": "_data",
          "type": "bytes"
        }
      ],
      "name": "submitWithdrawTransaction",
      "outputs": [],
      "stateMutability": "nonpayable",
      "type": "function"
    },
    {
      "inputs": [
        {
          "internalType": "bytes4",
          "name": "interfaceId",
          "type": "bytes4"
        }
      ],
      "name": "supportsInterface",
      "outputs": [
        {
          "internalType": "bool",
          "name": "",
          "type": "bool"
        }
      ],
      "stateMutability": "view",
      "type": "function"
    },
    {
      "inputs": [],
      "name": "symbol",
      "outputs": [
        {
          "internalType": "string",
          "name": "",
          "type": "string"
        }
      ],
      "stateMutability": "view",
      "type": "function"
    },
    {
      "inputs": [
        {
          "internalType": "uint256",
          "name": "_tokenId",
          "type": "uint256"
        }
      ],
      "name": "tokenURI",
      "outputs": [
        {
          "internalType": "string",
          "name": "",
          "type": "string"
        }
      ],
      "stateMutability": "view",
      "type": "function"
    },
    {
      "inputs": [],
      "name": "totalSupply",
      "outputs": [
        {
          "internalType": "uint256",
          "name": "",
          "type": "uint256"
        }
      ],
      "stateMutability": "view",
      "type": "function"
    },
    {
      "inputs": [
        {
          "internalType": "uint256",
          "name": "",
          "type": "uint256"
        }
      ],
      "name": "transactions",
      "outputs": [
        {
          "internalType": "address",
          "name": "to",
          "type": "address"
        },
        {
          "internalType": "uint256",
          "name": "value",
          "type": "uint256"
        },
        {
          "internalType": "bytes",
          "name": "data",
          "type": "bytes"
        },
        {
          "internalType": "bool",
          "name": "executed",
          "type": "bool"
        },
        {
          "internalType": "uint256",
          "name": "numConfirmations",
          "type": "uint256"
        }
      ],
      "stateMutability": "view",
      "type": "function"
    },
    {
      "inputs": [
        {
          "internalType": "address",
          "name": "from",
          "type": "address"
        },
        {
          "internalType": "address",
          "name": "to",
          "type": "address"
        },
        {
          "internalType": "uint256",
          "name": "tokenId",
          "type": "uint256"
        }
      ],
      "name": "transferFrom",
      "outputs": [],
      "stateMutability": "payable",
      "type": "function"
    },
    {
      "inputs": [
        {
          "internalType": "address",
          "name": "newOwner",
          "type": "address"
        }
      ],
      "name": "transferOwnership",
      "outputs": [],
      "stateMutability": "nonpayable",
      "type": "function"
    },
    {
      "inputs": [
        {
          "internalType": "uint256",
          "name": "_txIndex",
          "type": "uint256"
        }
      ],
      "name": "withdraw",
      "outputs": [],
      "stateMutability": "nonpayable",
      "type": "function"
    },
    {
      "inputs": [],
      "name": "wlMerkleRoot",
      "outputs": [
        {
          "internalType": "bytes32",
          "name": "",
          "type": "bytes32"
        }
      ],
      "stateMutability": "view",
      "type": "function"
    },
    {
      "inputs": [
        {
          "internalType": "uint256",
          "name": "_mintAmount",
          "type": "uint256"
        },
        {
          "internalType": "bytes32[]",
          "name": "_merkleProof",
          "type": "bytes32[]"
        }
      ],
      "name": "wlMint",
      "outputs": [],
      "stateMutability": "payable",
      "type": "function"
    }
  ],
  "bytecode": "0x60c06040523480156200001157600080fd5b50604051620046ae380380620046ae833981016040819052620000349162000746565b806040518060400160405280600a81526020016957686f2049732057686f60b01b8152506040518060400160405280600881526020016757686f497357686f60c01b81525081600290816200008a9190620008cf565b506003620000998282620008cf565b506000805550508051620000e65760405162461bcd60e51b815260206004820152600f60248201526e1bdddb995c9cc81c995c5d5a5c9959608a1b60448201526064015b60405180910390fd5b60005b81518110156200024f5760008282815181106200010a576200010a6200099b565b6020026020010151905060006001600160a01b0316816001600160a01b0316036200016b5760405162461bcd60e51b815260206004820152601060248201526f34b73b30b634b21030b8383937bb32b960811b6044820152606401620000dd565b6001600160a01b0381166000908152600b602052604090205460ff1615620001d65760405162461bcd60e51b815260206004820152601360248201527f617070726f766572206e6f7420756e69717565000000000000000000000000006044820152606401620000dd565b6001600160a01b03166000818152600b60205260408120805460ff191660019081179091556009805491820181559091527f6e1540171b6c0c960b71a7020d9f60077f6af931a8bbf590da0223dacf75c7af0180546001600160a01b0319169091179055806200024681620009c7565b915050620000e9565b506200025d905033620003af565b6001600e55608083905260a082905260005b8151811015620002cb57620002b66000805160206200466e833981519152838381518110620002a257620002a26200099b565b60200260200101516200040160201b60201c565b80620002c281620009c7565b9150506200026f565b506001600160a01b03841660009081527fed2d9cb04b1767b2bfbaf78dbe13e9f60d31c9b4432490e0ae0d2ba1bea30368602052604090205460ff16620003555760405162461bcd60e51b815260206004820152601b60248201527f6f776e65722073686f756c6420626520616e206f70657261746f7200000000006044820152606401620000dd565b620003706000805160206200466e8339815191523362000401565b6200037d60008562000401565b6200038884620003af565b620003a5846200039b60326001620009e3565b61ffff16620004a6565b5050505062000aae565b600c80546001600160a01b038381166001600160a01b0319831681179093556040519116919082907f8be0079c531659141344cd1fd0a4f28419497f9722a3daafe3b4186f6b6457e090600090a35050565b6000828152600d602090815260408083206001600160a01b038516845290915290205460ff16620004a2576000828152600d602090815260408083206001600160a01b03851684529091529020805460ff19166001179055620004613390565b6001600160a01b0316816001600160a01b0316837f2f8788117e7eff1d82e926ec794901d17c78024a50270940304540a733656f0d60405160405180910390a45b5050565b620004a2828260405180602001604052806000815250620004c860201b60201c565b620004d483836200053f565b6001600160a01b0383163b156200053a576000548281035b600181019062000502906000908790866200061f565b62000520576040516368d2bf6b60e11b815260040160405180910390fd5b818110620004ec5781600054146200053757600080fd5b50505b505050565b6000805490829003620005655760405163b562e8dd60e01b815260040160405180910390fd5b6001600160a01b03831660008181526005602090815260408083208054680100000000000000018802019055848352600490915281206001851460e11b4260a01b178317905582840190839083906000805160206200468e8339815191528180a4600183015b818114620005f457808360006000805160206200468e833981519152600080a4600101620005cb565b50816000036200061657604051622e076360e81b815260040160405180910390fd5b60005550505050565b604051630a85bd0160e11b81526000906001600160a01b0385169063150b7a02906200065690339089908890889060040162000a08565b6020604051808303816000875af192505050801562000694575060408051601f3d908101601f19168201909252620006919181019062000a7b565b60015b620006f6573d808015620006c5576040519150601f19603f3d011682016040523d82523d6000602084013e620006ca565b606091505b508051600003620006ee576040516368d2bf6b60e11b815260040160405180910390fd5b805181602001fd5b6001600160e01b031916630a85bd0160e11b149050949350505050565b80516001600160a01b03811681146200072b57600080fd5b919050565b634e487b7160e01b600052604160045260246000fd5b600080600080608085870312156200075d57600080fd5b620007688562000713565b602086810151604088015160608901519397509095509350906001600160401b03808211156200079757600080fd5b818801915088601f830112620007ac57600080fd5b815181811115620007c157620007c162000730565b8060051b604051601f19603f83011681018181108582111715620007e957620007e962000730565b60405291825284820192508381018501918b8311156200080857600080fd5b938501935b828510156200083157620008218562000713565b845293850193928501926200080d565b989b979a50959850505050505050565b600181811c908216806200085657607f821691505b6020821081036200087757634e487b7160e01b600052602260045260246000fd5b50919050565b601f8211156200053a57600081815260208120601f850160051c81016020861015620008a65750805b601f850160051c820191505b81811015620008c757828155600101620008b2565b505050505050565b81516001600160401b03811115620008eb57620008eb62000730565b6200090381620008fc845462000841565b846200087d565b602080601f8311600181146200093b5760008415620009225750858301515b600019600386901b1c1916600185901b178555620008c7565b600085815260208120601f198616915b828110156200096c578886015182559484019460019091019084016200094b565b50858210156200098b5787850151600019600388901b60f8161c191681555b5050505050600190811b01905550565b634e487b7160e01b600052603260045260246000fd5b634e487b7160e01b600052601160045260246000fd5b600060018201620009dc57620009dc620009b1565b5060010190565b61ffff81811683821601908082111562000a015762000a01620009b1565b5092915050565b600060018060a01b038087168352602081871681850152856040850152608060608501528451915081608085015260005b8281101562000a575785810182015185820160a00152810162000a39565b5050600060a0828501015260a0601f19601f83011684010191505095945050505050565b60006020828403121562000a8e57600080fd5b81516001600160e01b03198116811462000aa757600080fd5b9392505050565b60805160a051613b8c62000ae26000396000818161071b015261189401526000818161049101526112aa0152613b8c6000f3fe6080604052600436106103ad5760003560e01c806368fc68c7116101e7578063b70b295a1161010d578063e8a3d485116100a0578063f5b541a61161006f578063f5b541a614610b06578063f752eb1814610b28578063fb94bd8a14610b5e578063fc530d5814610b7e57600080fd5b8063e8a3d48514610a73578063e985e9c514610a88578063ec83ebbd14610ad1578063f2fde38b14610ae657600080fd5b8063cb2b85f7116100dc578063cb2b85f714610409578063d3650fb814610a06578063d39f0a2614610a26578063d547741f14610a5357600080fd5b8063b70b295a14610983578063b88d4fde146109b3578063c4bd7085146109c6578063c87b56dd146109e657600080fd5b8063902d55a5116101855780639ace38c2116101545780639ace38c21461091b578063a0712d681461093b578063a217fddf1461094e578063a22cb4651461096357600080fd5b8063902d55a5146108b057806391d14854146108c657806395d89b41146108e657806396cea3f7146108fb57600080fd5b806370a08231116101c157806370a0823114610822578063715018a61461084257806380f59a65146108575780638da5cb5b1461089257600080fd5b806368fc68c7146107bb5780636cb3e8ef146107d05780636d218e48146107f257600080fd5b80632f2ff15d116102d757806345c16a221161026a5780635ff96560116102395780635ff965601461073d57806360b1197314610768578063615ba9b8146107835780636352211e1461079b57600080fd5b806345c16a22146106ba5780634a4d1cce146106dc57806351b46a5d146106f157806354c06aee1461070957600080fd5b806336568abe116102a657806336568abe146106615780633ef0d36d1461068157806340c10f191461069457806342842e0e146106a757600080fd5b80632f2ff15d146105db57806333ea3dc8146105fb57806333eaa6ca1461062c57806335874fd31461064157600080fd5b80630e106df81161034f57806323b872dd1161031e57806323b872dd14610565578063248a9ca3146105785780632b314dc6146105a85780632e1a7d4d146105bb57600080fd5b80630e106df8146104d35780630f4188df146104fb57806318160ddd1461052c57806320ea8d861461054557600080fd5b8063081812fc1161038b578063081812fc14610432578063095ea7b31461046a5780630a3025301461047f5780630c1e3fd4146104b357600080fd5b806301ffc9a7146103b257806306fdde03146103e757806307e89ec014610409575b600080fd5b3480156103be57600080fd5b506103d26103cd366004613203565b610b93565b60405190151581526020015b60405180910390f35b3480156103f357600080fd5b506103fc610ba4565b6040516103de9190613270565b34801561041557600080fd5b506104246658d15e1762800081565b6040519081526020016103de565b34801561043e57600080fd5b5061045261044d366004613283565b610c36565b6040516001600160a01b0390911681526020016103de565b61047d6104783660046132b8565b610c7a565b005b34801561048b57600080fd5b506104247f000000000000000000000000000000000000000000000000000000000000000081565b3480156104bf57600080fd5b5061047d6104ce366004613385565b610d1a565b3480156104df57600080fd5b506104e8600381565b60405161ffff90911681526020016103de565b34801561050757600080fd5b50610513636467d54081565b60405167ffffffffffffffff90911681526020016103de565b34801561053857600080fd5b5060015460005403610424565b34801561055157600080fd5b5061047d610560366004613283565b610e0c565b61047d6105733660046133dc565b610efa565b34801561058457600080fd5b50610424610593366004613283565b6000908152600d602052604090206001015490565b61047d6105b6366004613418565b61108f565b3480156105c757600080fd5b5061047d6105d6366004613283565b611314565b3480156105e757600080fd5b5061047d6105f6366004613497565b611441565b34801561060757600080fd5b5061061b610616366004613283565b611466565b6040516103de9594939291906134c3565b34801561063857600080fd5b506104e8600581565b34801561064d57600080fd5b506103fc61065c366004613283565b611561565b34801561066d57600080fd5b5061047d61067c366004613497565b6115fb565b61047d61068f366004613418565b611679565b61047d6106a23660046132b8565b6118bf565b61047d6106b53660046133dc565b6118e1565b3480156106c657600080fd5b506106cf6118fc565b6040516103de9190613514565b3480156106e857600080fd5b506104e8600281565b3480156106fd57600080fd5b506105136364710fc081565b34801561071557600080fd5b506104247f000000000000000000000000000000000000000000000000000000000000000081565b34801561074957600080fd5b5061075361038481565b60405163ffffffff90911681526020016103de565b34801561077457600080fd5b5061042466470de4df82000081565b34801561078f57600080fd5b506105136364678ef081565b3480156107a757600080fd5b506104526107b6366004613283565b611944565b3480156107c757600080fd5b506104e8603281565b3480156107dc57600080fd5b506107e561194f565b6040516103de919061353c565b3480156107fe57600080fd5b506103d261080d366004613589565b600b6020526000908152604090205460ff1681565b34801561082e57600080fd5b5061042461083d366004613589565b6119b0565b34801561084e57600080fd5b5061047d6119ff565b34801561086357600080fd5b506103d2610872366004613497565b600a60209081526000928352604080842090915290825290205460ff1681565b34801561089e57600080fd5b50600c546001600160a01b0316610452565b3480156108bc57600080fd5b5061075361138881565b3480156108d257600080fd5b506103d26108e1366004613497565b611a13565b3480156108f257600080fd5b506103fc611a3e565b34801561090757600080fd5b5061047d610916366004613283565b611a4d565b34801561092757600080fd5b5061061b610936366004613283565b611b35565b61047d610949366004613283565b611c0e565b34801561095a57600080fd5b50610424600081565b34801561096f57600080fd5b5061047d61097e3660046135a4565b611e01565b34801561098f57600080fd5b506103d261099e366004613283565b60126020526000908152604090205460ff1681565b61047d6109c13660046135e0565b611e6d565b3480156109d257600080fd5b5061047d6109e1366004613648565b611eb1565b3480156109f257600080fd5b506103fc610a01366004613283565b611f3a565b348015610a1257600080fd5b50610452610a21366004613283565b612091565b348015610a3257600080fd5b50610424610a41366004613589565b60106020526000908152604090205481565b348015610a5f57600080fd5b5061047d610a6e366004613497565b6120bb565b348015610a7f57600080fd5b506103fc6120e0565b348015610a9457600080fd5b506103d2610aa336600461368f565b6001600160a01b03918216600090815260076020908152604080832093909416825291909152205460ff1690565b348015610add57600080fd5b506103fc612100565b348015610af257600080fd5b5061047d610b01366004613589565b612120565b348015610b1257600080fd5b50610424600080516020613b0f83398151915281565b348015610b3457600080fd5b50610424610b43366004613589565b6001600160a01b031660009081526010602052604090205490565b348015610b6a57600080fd5b5061047d610b793660046136b9565b612196565b348015610b8a57600080fd5b50610753600381565b6000610b9e826121fd565b92915050565b606060028054610bb3906136ee565b80601f0160208091040260200160405190810160405280929190818152602001828054610bdf906136ee565b8015610c2c5780601f10610c0157610100808354040283529160200191610c2c565b820191906000526020600020905b815481529060010190602001808311610c0f57829003601f168201915b5050505050905090565b6000610c4182612232565b610c5e576040516333d1c03960e21b815260040160405180910390fd5b506000908152600660205260409020546001600160a01b031690565b6000610c8582611944565b9050336001600160a01b03821614610cbe57610ca18133610aa3565b610cbe576040516367d9dca160e11b815260040160405180910390fd5b60008281526006602052604080822080546001600160a01b0319166001600160a01b0387811691821790925591518593918516917f8c5be1e5ebec7d5bd14f71427d1e84f3dd0314c0f7b2291e5b200ac8c7c3b92591a4505050565b600080516020613b0f833981519152610d3281612259565b60036000610d3e6118fc565b90506001826003811115610d5457610d546134fe565b148015610d7357506001816003811115610d7057610d706134fe565b14155b8015610d9157506002816003811115610d8e57610d8e6134fe565b14155b80610ddb57506001826003811115610dab57610dab6134fe565b14158015610ddb5750816003811115610dc657610dc66134fe565b816003811115610dd857610dd86134fe565b14155b15610df9576040516379906ae360e01b815260040160405180910390fd5b610e04868686612263565b505050505050565b600080516020613b0f833981519152610e2481612259565b60036000610e306118fc565b90506001826003811115610e4657610e466134fe565b148015610e6557506001816003811115610e6257610e626134fe565b14155b8015610e8357506002816003811115610e8057610e806134fe565b14155b80610ecd57506001826003811115610e9d57610e9d6134fe565b14158015610ecd5750816003811115610eb857610eb86134fe565b816003811115610eca57610eca6134fe565b14155b15610eeb576040516379906ae360e01b815260040160405180910390fd5b610ef4846123e8565b50505050565b6000610f058261257e565b9050836001600160a01b0316816001600160a01b031614610f385760405162a1148160e81b815260040160405180910390fd5b60008281526006602052604090208054338082146001600160a01b03881690911417610f8557610f688633610aa3565b610f8557604051632ce44b5f60e11b815260040160405180910390fd5b6001600160a01b038516610fac57604051633a954ecd60e21b815260040160405180910390fd5b8015610fb757600082555b6001600160a01b038681166000908152600560205260408082208054600019019055918716808252919020805460010190554260a01b17600160e11b17600085815260046020526040812091909155600160e11b84169003611049576001840160008181526004602052604081205490036110475760005481146110475760008181526004602052604090208490555b505b83856001600160a01b0316876001600160a01b03167fddf252ad1be2c89b69c2b068fc378daa952ba7f163c4a11628f55a4df523b3ef60405160405180910390a4610e04565b6110976125ec565b600160006110a36118fc565b905060018260038111156110b9576110b96134fe565b1480156110d8575060018160038111156110d5576110d56134fe565b14155b80156110f6575060028160038111156110f3576110f36134fe565b14155b8061114057506001826003811115611110576111106134fe565b14158015611140575081600381111561112b5761112b6134fe565b81600381111561113d5761113d6134fe565b14155b1561115e576040516379906ae360e01b815260040160405180910390fd5b846003808211156111825760405163b812c96d60e01b815260040160405180910390fd5b816000036111a35760405163223702e760e01b815260040160405180910390fd5b6000826111b36001546000540390565b0190506113888111156111d95760405163b812c96d60e01b815260040160405180910390fd5b508660036000826111e9336119b0565b0190508181111561120d5760405163b812c96d60e01b815260040160405180910390fd5b508866470de4df8200008082023481111561123b576040516330be9fa160e21b815260040160405180910390fd5b506040516bffffffffffffffffffffffff193360601b1660208201526000906034016040516020818303038152906040528051906020012090506112d58b8b808060200260200160405190810160405280939291908181526020018383602002808284376000920191909152507f000000000000000000000000000000000000000000000000000000000000000092508591506126459050565b6112f257604051630a63195760e31b815260040160405180910390fd5b6112fc338d61265b565b50505050505050505061130f6001600e55565b505050565b61131c612675565b600360006113286118fc565b9050600182600381111561133e5761133e6134fe565b14801561135d5750600181600381111561135a5761135a6134fe565b14155b801561137b57506002816003811115611378576113786134fe565b14155b806113c557506001826003811115611395576113956134fe565b141580156113c557508160038111156113b0576113b06134fe565b8160038111156113c2576113c26134fe565b14155b156113e3576040516379906ae360e01b815260040160405180910390fd5b60006113ed6126cf565b905060008151116114385760405162461bcd60e51b815260206004820152601060248201526f10985cd948155492481b9bdd081cd95d60821b60448201526064015b60405180910390fd5b610ef4846126de565b6000828152600d602052604090206001015461145c81612259565b61130f83836128db565b600080606060008060006008878154811061148357611483613728565b6000918252602090912060059091020180546001820154600383015460048401546002850180549596506001600160a01b039094169492939260ff9092169183906114cd906136ee565b80601f01602080910402602001604051908101604052809291908181526020018280546114f9906136ee565b80156115465780601f1061151b57610100808354040283529160200191611546565b820191906000526020600020905b81548152906001019060200180831161152957829003601f168201915b50505050509250955095509550955095505091939590929450565b6011602052600090815260409020805461157a906136ee565b80601f01602080910402602001604051908101604052809291908181526020018280546115a6906136ee565b80156115f35780601f106115c8576101008083540402835291602001916115f3565b820191906000526020600020905b8154815290600101906020018083116115d657829003601f168201915b505050505081565b6001600160a01b038116331461166b5760405162461bcd60e51b815260206004820152602f60248201527f416363657373436f6e74726f6c3a2063616e206f6e6c792072656e6f756e636560448201526e103937b632b9903337b91039b2b63360891b606482015260840161142f565b6116758282612961565b5050565b6116816125ec565b6002600061168d6118fc565b905060018260038111156116a3576116a36134fe565b1480156116c2575060018160038111156116bf576116bf6134fe565b14155b80156116e0575060028160038111156116dd576116dd6134fe565b14155b8061172a575060018260038111156116fa576116fa6134fe565b1415801561172a5750816003811115611715576117156134fe565b816003811115611727576117276134fe565b14155b15611748576040516379906ae360e01b815260040160405180910390fd5b8460028082111561176c5760405163b812c96d60e01b815260040160405180910390fd5b8160000361178d5760405163223702e760e01b815260040160405180910390fd5b60008261179d6001546000540390565b0190506113888111156117c35760405163b812c96d60e01b815260040160405180910390fd5b508660026000826117d3336119b0565b019050818111156117f75760405163b812c96d60e01b815260040160405180910390fd5b50886658d15e1762800080820234811115611825576040516330be9fa160e21b815260040160405180910390fd5b506040516bffffffffffffffffffffffff193360601b1660208201526000906034016040516020818303038152906040528051906020012090506112d58b8b808060200260200160405190810160405280939291908181526020018383602002808284376000920191909152507f000000000000000000000000000000000000000000000000000000000000000092508591506126459050565b600080516020613b0f8339815191526118d781612259565b61130f838361265b565b61130f83838360405180602001604052806000815250611e6d565b600042636467d540811061191257600391505090565b63646792748082106119275760029250505090565b6364678ef0821061193b5760019250505090565b60009250505090565b6000610b9e8261257e565b60606009805480602002602001604051908101604052809291908181526020018280548015610c2c57602002820191906000526020600020905b81546001600160a01b03168152600190910190602001808311611989575050505050905090565b60006001600160a01b0382166119d9576040516323d3ad8160e21b815260040160405180910390fd5b506001600160a01b031660009081526005602052604090205467ffffffffffffffff1690565b611a07612675565b611a1160006129c8565b565b6000918252600d602090815260408084206001600160a01b0393909316845291905290205460ff1690565b606060038054610bb3906136ee565b600080516020613b0f833981519152611a6581612259565b60036000611a716118fc565b90506001826003811115611a8757611a876134fe565b148015611aa657506001816003811115611aa357611aa36134fe565b14155b8015611ac457506002816003811115611ac157611ac16134fe565b14155b80611b0e57506001826003811115611ade57611ade6134fe565b14158015611b0e5750816003811115611af957611af96134fe565b816003811115611b0b57611b0b6134fe565b14155b15611b2c576040516379906ae360e01b815260040160405180910390fd5b610ef484612a1a565b60088181548110611b4557600080fd5b60009182526020909120600590910201805460018201546002830180546001600160a01b039093169450909291611b7b906136ee565b80601f0160208091040260200160405190810160405280929190818152602001828054611ba7906136ee565b8015611bf45780601f10611bc957610100808354040283529160200191611bf4565b820191906000526020600020905b815481529060010190602001808311611bd757829003601f168201915b505050506003830154600490930154919260ff1691905085565b611c166125ec565b60036000611c226118fc565b90506001826003811115611c3857611c386134fe565b148015611c5757506001816003811115611c5457611c546134fe565b14155b8015611c7557506002816003811115611c7257611c726134fe565b14155b80611cbf57506001826003811115611c8f57611c8f6134fe565b14158015611cbf5750816003811115611caa57611caa6134fe565b816003811115611cbc57611cbc6134fe565b14155b15611cdd576040516379906ae360e01b815260040160405180910390fd5b82600580821115611d015760405163b812c96d60e01b815260040160405180910390fd5b81600003611d225760405163223702e760e01b815260040160405180910390fd5b600082611d326001546000540390565b019050611388811115611d585760405163b812c96d60e01b815260040160405180910390fd5b5033600090815260106020526040902054859081016005811115611d8f5760405163b812c96d60e01b815260040160405180910390fd5b50856658d15e1762800080820234811115611dbd576040516330be9fa160e21b815260040160405180910390fd5b5033600090815260106020526040812080548a9290611ddd908490613754565b90915550611ded9050338961265b565b50505050505050611dfe6001600e55565b50565b3360008181526007602090815260408083206001600160a01b03871680855290835292819020805460ff191686151590811790915590519081529192917f17307eab39ab6107e8899845ad3d59bd9653f200f220920489ca2b5937696c31910160405180910390a35050565b611e78848484610efa565b6001600160a01b0383163b15610ef457611e9484848484612ba8565b610ef4576040516368d2bf6b60e11b815260040160405180910390fd5b600080516020613b0f833981519152611ec981612259565b6000838152601160205260409020611ee183826137ad565b5060008381526012602052604090819020805460ff191660011790555183907f333b5f9397bf472e7b9fe3a176063b13b4c812556ea8339ce0a6e431d54baa4490611f2d908590613270565b60405180910390a2505050565b6060611f4582612232565b611f6257604051634835164360e11b815260040160405180910390fd5b6364710fc067ffffffffffffffff42161015611f8057610b9e612100565b60008281526012602052604090205460ff16156120355760008281526011602052604090208054611fb0906136ee565b80601f0160208091040260200160405190810160405280929190818152602001828054611fdc906136ee565b80156120295780601f10611ffe57610100808354040283529160200191612029565b820191906000526020600020905b81548152906001019060200180831161200c57829003601f168201915b50505050509050919050565b600061203f6126cf565b80519091501561207b578061205384612c94565b60405160200161206492919061386d565b604051602081830303815290604052915050919050565b5050604080516020810190915260008152919050565b600981815481106120a157600080fd5b6000918252602090912001546001600160a01b0316905081565b6000828152600d60205260409020600101546120d681612259565b61130f8383612961565b6060604051806060016040528060288152602001613b2f60289139905090565b6060604051806060016040528060238152602001613aec60239139905090565b612128612675565b6001600160a01b03811661218d5760405162461bcd60e51b815260206004820152602660248201527f4f776e61626c653a206e6577206f776e657220697320746865207a65726f206160448201526564647265737360d01b606482015260840161142f565b611dfe816129c8565b600080516020613b0f8339815191526121ae81612259565b600f6121ba83826137ad565b50816040516121c991906138ac565b604051908190038120907f8f124c4ac94494868eafaa446b739570c7d5b809ab27b5651aaa9c69f4997ec990600090a25050565b60006001600160e01b03198216637965db0b60e01b1480610b9e57506301ffc9a760e01b6001600160e01b0319831614610b9e565b6000805482108015610b9e575050600090815260046020526040902054600160e01b161590565b611dfe8133612d27565b336000908152600b602052604090205460ff166122925760405162461bcd60e51b815260040161142f906138c8565b600880546040805160a0810182526001600160a01b03878116825260208201878152928201868152600060608401819052608084018190526001860187559590955281517ff3f7a9fe364faab93b216da50a3214154f22a0a2b415b23a84c8169e8b636ee36005860290810180546001600160a01b0319169290931691909117825592517ff3f7a9fe364faab93b216da50a3214154f22a0a2b415b23a84c8169e8b636ee484015593519293909290917ff3f7a9fe364faab93b216da50a3214154f22a0a2b415b23a84c8169e8b636ee5019061236f90826137ad565b50606082015160038201805460ff19169115159190911790556080909101516004909101556001600160a01b03841681336001600160a01b03167fd5a05bf70715ad82a09a756320284a1b54c9ff74cd0f8cce6219e79b563fe59d86866040516123da9291906138ee565b60405180910390a450505050565b336000908152600b602052604090205460ff166124175760405162461bcd60e51b815260040161142f906138c8565b6008548190811061243a5760405162461bcd60e51b815260040161142f90613907565b816008818154811061244e5761244e613728565b600091825260209091206003600590920201015460ff16156124825760405162461bcd60e51b815260040161142f90613932565b60006008848154811061249757612497613728565b60009182526020808320878452600a909152604083206005909202019250906124bd3390565b6001600160a01b0316815260208101919091526040016000205460ff166125195760405162461bcd60e51b815260206004820152601060248201526f1d1e081b9bdd0818dbdb999a5c9b595960821b604482015260640161142f565b60048101805490600061252b8361395f565b90915550506000848152600a60209081526040808320338085529252808320805460ff191690555186927ff0dca620e2e81f7841d07bcc105e1704fb01475b278a9d4c236e1c62945edd5591a350505050565b6000816000548110156125d35760008181526004602052604081205490600160e01b821690036125d1575b806000036125ca5750600019016000818152600460205260409020546125a9565b9392505050565b505b604051636f96cda160e11b815260040160405180910390fd5b6002600e540361263e5760405162461bcd60e51b815260206004820152601f60248201527f5265656e7472616e637947756172643a207265656e7472616e742063616c6c00604482015260640161142f565b6002600e55565b6000826126528584612d80565b14949350505050565b611675828260405180602001604052806000815250612dcd565b600c546001600160a01b03163314611a115760405162461bcd60e51b815260206004820181905260248201527f4f776e61626c653a2063616c6c6572206973206e6f7420746865206f776e6572604482015260640161142f565b6060600f8054610bb3906136ee565b336000908152600b602052604090205460ff1661270d5760405162461bcd60e51b815260040161142f906138c8565b600854819081106127305760405162461bcd60e51b815260040161142f90613907565b816008818154811061274457612744613728565b600091825260209091206003600590920201015460ff16156127785760405162461bcd60e51b815260040161142f90613932565b60006008848154811061278d5761278d613728565b90600052602060002090600502019050600363ffffffff16816004015410156127eb5760405162461bcd60e51b815260206004820152601060248201526f74782063616e2774206578656375746560801b604482015260640161142f565b60038101805460ff191660019081179091558154908201546040516000926001600160a01b03169190612822906002860190613976565b60006040518083038185875af1925050503d806000811461285f576040519150601f19603f3d011682016040523d82523d6000602084013e612864565b606091505b50509050806128a75760405162461bcd60e51b815260206004820152600f60248201526e1d1c985b9cd9995c8819985a5b1959608a1b604482015260640161142f565b604051859033907f5445f318f4f5fcfb66592e68e0cc5822aa15664039bd5f0ffde24c5a8142b1ac90600090a35050505050565b6128e58282611a13565b611675576000828152600d602090815260408083206001600160a01b03851684529091529020805460ff1916600117905561291d3390565b6001600160a01b0316816001600160a01b0316837f2f8788117e7eff1d82e926ec794901d17c78024a50270940304540a733656f0d60405160405180910390a45050565b61296b8282611a13565b15611675576000828152600d602090815260408083206001600160a01b0385168085529252808320805460ff1916905551339285917ff6391f5c32d9c69d2a47ea670b442974b53935d1edc7fd64eb21e047a839171b9190a45050565b600c80546001600160a01b038381166001600160a01b0319831681179093556040519116919082907f8be0079c531659141344cd1fd0a4f28419497f9722a3daafe3b4186f6b6457e090600090a35050565b336000908152600b602052604090205460ff16612a495760405162461bcd60e51b815260040161142f906138c8565b60085481908110612a6c5760405162461bcd60e51b815260040161142f90613907565b8160088181548110612a8057612a80613728565b600091825260209091206003600590920201015460ff1615612ab45760405162461bcd60e51b815260040161142f90613932565b6000838152600a60209081526040808320338452909152902054839060ff1615612b175760405162461bcd60e51b81526020600482015260146024820152731d1e08185b1c9958591e4818dbdb999a5c9b595960621b604482015260640161142f565b600060088581548110612b2c57612b2c613728565b90600052602060002090600502019050806004016000815480929190612b51906139ec565b90915550506000858152600a60209081526040808320338085529252808320805460ff191660011790555187927f5cbe105e36805f7820e291f799d5794ff948af2a5f664e580382defb6339004191a35050505050565b604051630a85bd0160e11b81526000906001600160a01b0385169063150b7a0290612bdd903390899088908890600401613a05565b6020604051808303816000875af1925050508015612c18575060408051601f3d908101601f19168201909252612c1591810190613a42565b60015b612c76573d808015612c46576040519150601f19603f3d011682016040523d82523d6000602084013e612c4b565b606091505b508051600003612c6e576040516368d2bf6b60e11b815260040160405180910390fd5b805181602001fd5b6001600160e01b031916630a85bd0160e11b1490505b949350505050565b60606000612ca183612e3a565b600101905060008167ffffffffffffffff811115612cc157612cc16132e2565b6040519080825280601f01601f191660200182016040528015612ceb576020820181803683370190505b5090508181016020015b600019016f181899199a1a9b1b9c1cb0b131b232b360811b600a86061a8153600a8504945084612cf557509392505050565b612d318282611a13565b61167557612d3e81612f12565b612d49836020612f24565b604051602001612d5a929190613a5f565b60408051601f198184030181529082905262461bcd60e51b825261142f91600401613270565b600081815b8451811015612dc557612db182868381518110612da457612da4613728565b60200260200101516130c0565b915080612dbd816139ec565b915050612d85565b509392505050565b612dd783836130ef565b6001600160a01b0383163b1561130f576000548281035b612e016000868380600101945086612ba8565b612e1e576040516368d2bf6b60e11b815260040160405180910390fd5b818110612dee578160005414612e3357600080fd5b5050505050565b60008072184f03e93ff9f4daa797ed6e38ed64bf6a1f0160401b8310612e795772184f03e93ff9f4daa797ed6e38ed64bf6a1f0160401b830492506040015b6d04ee2d6d415b85acef81000000008310612ea5576d04ee2d6d415b85acef8100000000830492506020015b662386f26fc100008310612ec357662386f26fc10000830492506010015b6305f5e1008310612edb576305f5e100830492506008015b6127108310612eef57612710830492506004015b60648310612f01576064830492506002015b600a8310610b9e5760010192915050565b6060610b9e6001600160a01b03831660145b60606000612f33836002613ad4565b612f3e906002613754565b67ffffffffffffffff811115612f5657612f566132e2565b6040519080825280601f01601f191660200182016040528015612f80576020820181803683370190505b509050600360fc1b81600081518110612f9b57612f9b613728565b60200101906001600160f81b031916908160001a905350600f60fb1b81600181518110612fca57612fca613728565b60200101906001600160f81b031916908160001a9053506000612fee846002613ad4565b612ff9906001613754565b90505b6001811115613071576f181899199a1a9b1b9c1cb0b131b232b360811b85600f166010811061302d5761302d613728565b1a60f81b82828151811061304357613043613728565b60200101906001600160f81b031916908160001a90535060049490941c9361306a8161395f565b9050612ffc565b5083156125ca5760405162461bcd60e51b815260206004820181905260248201527f537472696e67733a20686578206c656e67746820696e73756666696369656e74604482015260640161142f565b60008183106130dc5760008281526020849052604090206125ca565b60008381526020839052604090206125ca565b60008054908290036131145760405163b562e8dd60e01b815260040160405180910390fd5b6001600160a01b03831660008181526005602090815260408083208054680100000000000000018802019055848352600490915281206001851460e11b4260a01b178317905582840190839083907fddf252ad1be2c89b69c2b068fc378daa952ba7f163c4a11628f55a4df523b3ef8180a4600183015b8181146131c357808360007fddf252ad1be2c89b69c2b068fc378daa952ba7f163c4a11628f55a4df523b3ef600080a460010161318b565b50816000036131e457604051622e076360e81b815260040160405180910390fd5b60005550505050565b6001600160e01b031981168114611dfe57600080fd5b60006020828403121561321557600080fd5b81356125ca816131ed565b60005b8381101561323b578181015183820152602001613223565b50506000910152565b6000815180845261325c816020860160208601613220565b601f01601f19169290920160200192915050565b6020815260006125ca6020830184613244565b60006020828403121561329557600080fd5b5035919050565b80356001600160a01b03811681146132b357600080fd5b919050565b600080604083850312156132cb57600080fd5b6132d48361329c565b946020939093013593505050565b634e487b7160e01b600052604160045260246000fd5b600082601f83011261330957600080fd5b813567ffffffffffffffff80821115613324576133246132e2565b604051601f8301601f19908116603f0116810190828211818310171561334c5761334c6132e2565b8160405283815286602085880101111561336557600080fd5b836020870160208301376000602085830101528094505050505092915050565b60008060006060848603121561339a57600080fd5b6133a38461329c565b925060208401359150604084013567ffffffffffffffff8111156133c657600080fd5b6133d2868287016132f8565b9150509250925092565b6000806000606084860312156133f157600080fd5b6133fa8461329c565b92506134086020850161329c565b9150604084013590509250925092565b60008060006040848603121561342d57600080fd5b83359250602084013567ffffffffffffffff8082111561344c57600080fd5b818601915086601f83011261346057600080fd5b81358181111561346f57600080fd5b8760208260051b850101111561348457600080fd5b6020830194508093505050509250925092565b600080604083850312156134aa57600080fd5b823591506134ba6020840161329c565b90509250929050565b60018060a01b038616815284602082015260a0604082015260006134ea60a0830186613244565b931515606083015250608001529392505050565b634e487b7160e01b600052602160045260246000fd5b602081016004831061353657634e487b7160e01b600052602160045260246000fd5b91905290565b6020808252825182820181905260009190848201906040850190845b8181101561357d5783516001600160a01b031683529284019291840191600101613558565b50909695505050505050565b60006020828403121561359b57600080fd5b6125ca8261329c565b600080604083850312156135b757600080fd5b6135c08361329c565b9150602083013580151581146135d557600080fd5b809150509250929050565b600080600080608085870312156135f657600080fd5b6135ff8561329c565b935061360d6020860161329c565b925060408501359150606085013567ffffffffffffffff81111561363057600080fd5b61363c878288016132f8565b91505092959194509250565b6000806040838503121561365b57600080fd5b82359150602083013567ffffffffffffffff81111561367957600080fd5b613685858286016132f8565b9150509250929050565b600080604083850312156136a257600080fd5b6136ab8361329c565b91506134ba6020840161329c565b6000602082840312156136cb57600080fd5b813567ffffffffffffffff8111156136e257600080fd5b612c8c848285016132f8565b600181811c9082168061370257607f821691505b60208210810361372257634e487b7160e01b600052602260045260246000fd5b50919050565b634e487b7160e01b600052603260045260246000fd5b634e487b7160e01b600052601160045260246000fd5b80820180821115610b9e57610b9e61373e565b601f82111561130f57600081815260208120601f850160051c8101602086101561378e5750805b601f850160051c820191505b81811015610e045782815560010161379a565b815167ffffffffffffffff8111156137c7576137c76132e2565b6137db816137d584546136ee565b84613767565b602080601f83116001811461381057600084156137f85750858301515b600019600386901b1c1916600185901b178555610e04565b600085815260208120601f198616915b8281101561383f57888601518255948401946001909101908401613820565b508582101561385d5787850151600019600388901b60f8161c191681555b5050505050600190811b01905550565b6000835161387f818460208801613220565b835190830190613893818360208801613220565b64173539b7b760d91b9101908152600501949350505050565b600082516138be818460208701613220565b9190910192915050565b6020808252600c908201526b3737ba1030b8383937bb32b960a11b604082015260600190565b828152604060208201526000612c8c6040830184613244565b602080825260119082015270747820646f65736e27742065786973747360781b604082015260600190565b6020808252601390820152721d1e08185b1c9958591e48195e1958dd5d1959606a1b604082015260600190565b60008161396e5761396e61373e565b506000190190565b6000808354613984816136ee565b6001828116801561399c57600181146139b1576139e0565b60ff19841687528215158302870194506139e0565b8760005260208060002060005b858110156139d75781548a8201529084019082016139be565b50505082870194505b50929695505050505050565b6000600182016139fe576139fe61373e565b5060010190565b6001600160a01b0385811682528416602082015260408101839052608060608201819052600090613a3890830184613244565b9695505050505050565b600060208284031215613a5457600080fd5b81516125ca816131ed565b7f416363657373436f6e74726f6c3a206163636f756e7420000000000000000000815260008351613a97816017850160208801613220565b7001034b99036b4b9b9b4b733903937b6329607d1b6017918401918201528351613ac8816028840160208801613220565b01602801949350505050565b8082028115828204841417610b9e57610b9e61373e56fe68747470733a2f2f7777772e77686f697377686f2e696f2f68696464656e2e6a736f6e97667070c54ef182b0f5858b034beac1b6f3089aa2d3188bb1e8929f4fa9b92968747470733a2f2f7777772e77686f697377686f2e696f2f636f6e74726163745552492e6a736f6ea2646970667358221220a10603f4a43fe496ebf09584d8fa3c3eef50a384a933b75c56b57a0e4296b42164736f6c6343000812003397667070c54ef182b0f5858b034beac1b6f3089aa2d3188bb1e8929f4fa9b929ddf252ad1be2c89b69c2b068fc378daa952ba7f163c4a11628f55a4df523b3ef",
  "linkReferences": {},
  "deployedLinkReferences": {}
}