{
  "_format": "hh-sol-artifact-1",
  "contractName": "WhoIsWho",
  "sourceName": "contracts/WhoIsWho.sol",
  "abi": [
    {
      "inputs": [
        {
          "internalType": "uint256",
          "name": "_price",
          "type": "uint256"
        },
        {
          "internalType": "uint32",
          "name": "_maxTokenPerWallet",
          "type": "uint32"
        },
        {
          "internalType": "uint64",
          "name": "_presaleDate",
          "type": "uint64"
        },
        {
          "internalType": "uint64",
          "name": "_publicSaleDate",
          "type": "uint64"
        },
        {
          "internalType": "uint64",
          "name": "_revealDate",
          "type": "uint64"
        },
        {
          "internalType": "bytes32",
          "name": "_ogMerkleRoot",
          "type": "bytes32"
        },
        {
          "internalType": "bytes32",
          "name": "_wlMerkleRoot",
          "type": "bytes32"
        },
        {
          "internalType": "string",
          "name": "_metadataBaseURI",
          "type": "string"
        }
      ],
      "stateMutability": "nonpayable",
      "type": "constructor"
    },
    {
      "inputs": [],
      "name": "ApprovalCallerNotOwnerNorApproved",
      "type": "error"
    },
    {
      "inputs": [],
      "name": "ApprovalQueryForNonexistentToken",
      "type": "error"
    },
    {
      "inputs": [],
      "name": "BalanceQueryForZeroAddress",
      "type": "error"
    },
    {
      "inputs": [],
      "name": "MintERC2309QuantityExceedsLimit",
      "type": "error"
    },
    {
      "inputs": [],
      "name": "MintToZeroAddress",
      "type": "error"
    },
    {
      "inputs": [],
      "name": "MintZeroQuantity",
      "type": "error"
    },
    {
      "inputs": [],
      "name": "OwnerQueryForNonexistentToken",
      "type": "error"
    },
    {
      "inputs": [],
      "name": "OwnershipNotInitializedForExtraData",
      "type": "error"
    },
    {
      "inputs": [],
      "name": "TransferCallerNotOwnerNorApproved",
      "type": "error"
    },
    {
      "inputs": [],
      "name": "TransferFromIncorrectOwner",
      "type": "error"
    },
    {
      "inputs": [],
      "name": "TransferToNonERC721ReceiverImplementer",
      "type": "error"
    },
    {
      "inputs": [],
      "name": "TransferToZeroAddress",
      "type": "error"
    },
    {
      "inputs": [],
      "name": "URIQueryForNonexistentToken",
      "type": "error"
    },
    {
      "inputs": [],
      "name": "WhoIsWho__InsufficientFunds",
      "type": "error"
    },
    {
      "inputs": [],
      "name": "WhoIsWho__InvalidProof",
      "type": "error"
    },
    {
      "inputs": [],
      "name": "WhoIsWho__MaxMint",
      "type": "error"
    },
    {
      "inputs": [],
      "name": "WhoIsWho__NonExistentTokenId",
      "type": "error"
    },
    {
      "inputs": [],
      "name": "WhoIsWho__StageNotReady",
      "type": "error"
    },
    {
      "inputs": [],
      "name": "WhoIsWho__ZeroMintAmount",
      "type": "error"
    },
    {
      "anonymous": false,
      "inputs": [
        {
          "indexed": true,
          "internalType": "address",
          "name": "owner",
          "type": "address"
        },
        {
          "indexed": true,
          "internalType": "address",
          "name": "approved",
          "type": "address"
        },
        {
          "indexed": true,
          "internalType": "uint256",
          "name": "tokenId",
          "type": "uint256"
        }
      ],
      "name": "Approval",
      "type": "event"
    },
    {
      "anonymous": false,
      "inputs": [
        {
          "indexed": true,
          "internalType": "address",
          "name": "owner",
          "type": "address"
        },
        {
          "indexed": true,
          "internalType": "address",
          "name": "operator",
          "type": "address"
        },
        {
          "indexed": false,
          "internalType": "bool",
          "name": "approved",
          "type": "bool"
        }
      ],
      "name": "ApprovalForAll",
      "type": "event"
    },
    {
      "anonymous": false,
      "inputs": [
        {
          "indexed": true,
          "internalType": "uint256",
          "name": "fromTokenId",
          "type": "uint256"
        },
        {
          "indexed": false,
          "internalType": "uint256",
          "name": "toTokenId",
          "type": "uint256"
        },
        {
          "indexed": true,
          "internalType": "address",
          "name": "from",
          "type": "address"
        },
        {
          "indexed": true,
          "internalType": "address",
          "name": "to",
          "type": "address"
        }
      ],
      "name": "ConsecutiveTransfer",
      "type": "event"
    },
    {
      "anonymous": false,
      "inputs": [
        {
          "indexed": true,
          "internalType": "address",
          "name": "previousOwner",
          "type": "address"
        },
        {
          "indexed": true,
          "internalType": "address",
          "name": "newOwner",
          "type": "address"
        }
      ],
      "name": "OwnershipTransferred",
      "type": "event"
    },
    {
      "anonymous": false,
      "inputs": [
        {
          "indexed": true,
          "internalType": "uint256",
          "name": "_maxTokenPerWallet",
          "type": "uint256"
        }
      ],
      "name": "SetMaxTokenPerWallet",
      "type": "event"
    },
    {
      "anonymous": false,
      "inputs": [
        {
          "indexed": true,
          "internalType": "string",
          "name": "_uri",
          "type": "string"
        }
      ],
      "name": "SetMetadataBaseURI",
      "type": "event"
    },
    {
      "anonymous": false,
      "inputs": [
        {
          "indexed": true,
          "internalType": "bytes32",
          "name": "_merkleRoot",
          "type": "bytes32"
        }
      ],
      "name": "SetOgMerkleRoot",
      "type": "event"
    },
    {
      "anonymous": false,
      "inputs": [
        {
          "indexed": true,
          "internalType": "uint64",
          "name": "_date",
          "type": "uint64"
        }
      ],
      "name": "SetPresaleDate",
      "type": "event"
    },
    {
      "anonymous": false,
      "inputs": [
        {
          "indexed": true,
          "internalType": "uint256",
          "name": "_price",
          "type": "uint256"
        }
      ],
      "name": "SetPrice",
      "type": "event"
    },
    {
      "anonymous": false,
      "inputs": [
        {
          "indexed": true,
          "internalType": "uint64",
          "name": "_date",
          "type": "uint64"
        }
      ],
      "name": "SetPublicSaleDate",
      "type": "event"
    },
    {
      "anonymous": false,
      "inputs": [
        {
          "indexed": true,
          "internalType": "uint64",
          "name": "_date",
          "type": "uint64"
        }
      ],
      "name": "SetRevealDate",
      "type": "event"
    },
    {
      "anonymous": false,
      "inputs": [
        {
          "indexed": true,
          "internalType": "bytes32",
          "name": "_merkleRoot",
          "type": "bytes32"
        }
      ],
      "name": "SetWlMerkleRoot",
      "type": "event"
    },
    {
      "anonymous": false,
      "inputs": [
        {
          "indexed": true,
          "internalType": "address",
          "name": "from",
          "type": "address"
        },
        {
          "indexed": true,
          "internalType": "address",
          "name": "to",
          "type": "address"
        },
        {
          "indexed": true,
          "internalType": "uint256",
          "name": "tokenId",
          "type": "uint256"
        }
      ],
      "name": "Transfer",
      "type": "event"
    },
    {
      "anonymous": false,
      "inputs": [
        {
          "indexed": true,
          "internalType": "uint256",
          "name": "_dateWithdrew",
          "type": "uint256"
        },
        {
          "indexed": false,
          "internalType": "uint256",
          "name": "_amount",
          "type": "uint256"
        }
      ],
      "name": "Withdraw",
      "type": "event"
    },
    {
      "inputs": [],
      "name": "PRESALE_INTERVAL",
      "outputs": [
        {
          "internalType": "uint16",
          "name": "",
          "type": "uint16"
        }
      ],
      "stateMutability": "view",
      "type": "function"
    },
    {
      "inputs": [],
      "name": "PRESALE_MAX_TOKEN_PER_OG",
      "outputs": [
        {
          "internalType": "uint16",
          "name": "",
          "type": "uint16"
        }
      ],
      "stateMutability": "view",
      "type": "function"
    },
    {
      "inputs": [],
      "name": "PRESALE_MAX_TOKEN_PER_WL",
      "outputs": [
        {
          "internalType": "uint16",
          "name": "",
          "type": "uint16"
        }
      ],
      "stateMutability": "view",
      "type": "function"
    },
    {
      "inputs": [],
      "name": "PRESALE_PRICE_OG",
      "outputs": [
        {
          "internalType": "uint256",
          "name": "",
          "type": "uint256"
        }
      ],
      "stateMutability": "view",
      "type": "function"
    },
    {
      "inputs": [],
      "name": "PRESALE_PRICE_WL",
      "outputs": [
        {
          "internalType": "uint256",
          "name": "",
          "type": "uint256"
        }
      ],
      "stateMutability": "view",
      "type": "function"
    },
    {
      "inputs": [],
      "name": "RESERVED_TOKENS",
      "outputs": [
        {
          "internalType": "uint16",
          "name": "",
          "type": "uint16"
        }
      ],
      "stateMutability": "view",
      "type": "function"
    },
    {
      "inputs": [],
      "name": "TOTAL_SUPPLY",
      "outputs": [
        {
          "internalType": "uint32",
          "name": "",
          "type": "uint32"
        }
      ],
      "stateMutability": "view",
      "type": "function"
    },
    {
      "inputs": [
        {
          "internalType": "address",
          "name": "to",
          "type": "address"
        },
        {
          "internalType": "uint256",
          "name": "tokenId",
          "type": "uint256"
        }
      ],
      "name": "approve",
      "outputs": [],
      "stateMutability": "payable",
      "type": "function"
    },
    {
      "inputs": [
        {
          "internalType": "address",
          "name": "owner",
          "type": "address"
        }
      ],
      "name": "balanceOf",
      "outputs": [
        {
          "internalType": "uint256",
          "name": "",
          "type": "uint256"
        }
      ],
      "stateMutability": "view",
      "type": "function"
    },
    {
      "inputs": [
        {
          "internalType": "uint256",
          "name": "tokenId",
          "type": "uint256"
        }
      ],
      "name": "getApproved",
      "outputs": [
        {
          "internalType": "address",
          "name": "",
          "type": "address"
        }
      ],
      "stateMutability": "view",
      "type": "function"
    },
    {
      "inputs": [],
      "name": "getSaleStage",
      "outputs": [
        {
          "internalType": "enum WhoIsWho.SaleStage",
          "name": "stage",
          "type": "uint8"
        }
      ],
      "stateMutability": "view",
      "type": "function"
    },
    {
      "inputs": [],
      "name": "hiddenMetadataUri",
      "outputs": [
        {
          "internalType": "string",
          "name": "",
          "type": "string"
        }
      ],
      "stateMutability": "view",
      "type": "function"
    },
    {
      "inputs": [
        {
          "internalType": "address",
          "name": "owner",
          "type": "address"
        },
        {
          "internalType": "address",
          "name": "operator",
          "type": "address"
        }
      ],
      "name": "isApprovedForAll",
      "outputs": [
        {
          "internalType": "bool",
          "name": "",
          "type": "bool"
        }
      ],
      "stateMutability": "view",
      "type": "function"
    },
    {
      "inputs": [],
      "name": "maxTokenPerWallet",
      "outputs": [
        {
          "internalType": "uint32",
          "name": "",
          "type": "uint32"
        }
      ],
      "stateMutability": "view",
      "type": "function"
    },
    {
      "inputs": [],
      "name": "metadataBaseURI",
      "outputs": [
        {
          "internalType": "string",
          "name": "",
          "type": "string"
        }
      ],
      "stateMutability": "view",
      "type": "function"
    },
    {
      "inputs": [
        {
          "internalType": "address",
          "name": "_recipient",
          "type": "address"
        },
        {
          "internalType": "uint256",
          "name": "_mintAmount",
          "type": "uint256"
        }
      ],
      "name": "mint",
      "outputs": [],
      "stateMutability": "payable",
      "type": "function"
    },
    {
      "inputs": [
        {
          "internalType": "uint256",
          "name": "_mintAmount",
          "type": "uint256"
        }
      ],
      "name": "mint",
      "outputs": [],
      "stateMutability": "payable",
      "type": "function"
    },
    {
      "inputs": [],
      "name": "name",
      "outputs": [
        {
          "internalType": "string",
          "name": "",
          "type": "string"
        }
      ],
      "stateMutability": "view",
      "type": "function"
    },
    {
      "inputs": [],
      "name": "ogMerkleRoot",
      "outputs": [
        {
          "internalType": "bytes32",
          "name": "",
          "type": "bytes32"
        }
      ],
      "stateMutability": "view",
      "type": "function"
    },
    {
      "inputs": [
        {
          "internalType": "uint256",
          "name": "_mintAmount",
          "type": "uint256"
        },
        {
          "internalType": "bytes32[]",
          "name": "_merkleProof",
          "type": "bytes32[]"
        }
      ],
      "name": "ogMint",
      "outputs": [],
      "stateMutability": "payable",
      "type": "function"
    },
    {
      "inputs": [],
      "name": "owner",
      "outputs": [
        {
          "internalType": "address",
          "name": "",
          "type": "address"
        }
      ],
      "stateMutability": "view",
      "type": "function"
    },
    {
      "inputs": [
        {
          "internalType": "uint256",
          "name": "tokenId",
          "type": "uint256"
        }
      ],
      "name": "ownerOf",
      "outputs": [
        {
          "internalType": "address",
          "name": "",
          "type": "address"
        }
      ],
      "stateMutability": "view",
      "type": "function"
    },
    {
      "inputs": [],
      "name": "presaleDate",
      "outputs": [
        {
          "internalType": "uint64",
          "name": "",
          "type": "uint64"
        }
      ],
      "stateMutability": "view",
      "type": "function"
    },
    {
      "inputs": [],
      "name": "price",
      "outputs": [
        {
          "internalType": "uint256",
          "name": "",
          "type": "uint256"
        }
      ],
      "stateMutability": "view",
      "type": "function"
    },
    {
      "inputs": [
        {
          "internalType": "address",
          "name": "",
          "type": "address"
        }
      ],
      "name": "publicSaleBalances",
      "outputs": [
        {
          "internalType": "uint256",
          "name": "",
          "type": "uint256"
        }
      ],
      "stateMutability": "view",
      "type": "function"
    },
    {
      "inputs": [],
      "name": "publicSaleDate",
      "outputs": [
        {
          "internalType": "uint64",
          "name": "",
          "type": "uint64"
        }
      ],
      "stateMutability": "view",
      "type": "function"
    },
    {
      "inputs": [],
      "name": "renounceOwnership",
      "outputs": [],
      "stateMutability": "nonpayable",
      "type": "function"
    },
    {
      "inputs": [],
      "name": "revealDate",
      "outputs": [
        {
          "internalType": "uint64",
          "name": "",
          "type": "uint64"
        }
      ],
      "stateMutability": "view",
      "type": "function"
    },
    {
      "inputs": [
        {
          "internalType": "address",
          "name": "from",
          "type": "address"
        },
        {
          "internalType": "address",
          "name": "to",
          "type": "address"
        },
        {
          "internalType": "uint256",
          "name": "tokenId",
          "type": "uint256"
        }
      ],
      "name": "safeTransferFrom",
      "outputs": [],
      "stateMutability": "payable",
      "type": "function"
    },
    {
      "inputs": [
        {
          "internalType": "address",
          "name": "from",
          "type": "address"
        },
        {
          "internalType": "address",
          "name": "to",
          "type": "address"
        },
        {
          "internalType": "uint256",
          "name": "tokenId",
          "type": "uint256"
        },
        {
          "internalType": "bytes",
          "name": "_data",
          "type": "bytes"
        }
      ],
      "name": "safeTransferFrom",
      "outputs": [],
      "stateMutability": "payable",
      "type": "function"
    },
    {
      "inputs": [
        {
          "internalType": "address",
          "name": "operator",
          "type": "address"
        },
        {
          "internalType": "bool",
          "name": "approved",
          "type": "bool"
        }
      ],
      "name": "setApprovalForAll",
      "outputs": [],
      "stateMutability": "nonpayable",
      "type": "function"
    },
    {
      "inputs": [
        {
          "internalType": "uint32",
          "name": "_maxTokenPerWallet",
          "type": "uint32"
        }
      ],
      "name": "setMaxTokenPerWallet",
      "outputs": [],
      "stateMutability": "nonpayable",
      "type": "function"
    },
    {
      "inputs": [
        {
          "internalType": "string",
          "name": "_uri",
          "type": "string"
        }
      ],
      "name": "setMetadataBaseURI",
      "outputs": [],
      "stateMutability": "nonpayable",
      "type": "function"
    },
    {
      "inputs": [
        {
          "internalType": "bytes32",
          "name": "_merkleRoot",
          "type": "bytes32"
        }
      ],
      "name": "setOgMerkleRoot",
      "outputs": [],
      "stateMutability": "nonpayable",
      "type": "function"
    },
    {
      "inputs": [
        {
          "internalType": "uint64",
          "name": "_date",
          "type": "uint64"
        }
      ],
      "name": "setPresaleDate",
      "outputs": [],
      "stateMutability": "nonpayable",
      "type": "function"
    },
    {
      "inputs": [
        {
          "internalType": "uint256",
          "name": "_price",
          "type": "uint256"
        }
      ],
      "name": "setPrice",
      "outputs": [],
      "stateMutability": "nonpayable",
      "type": "function"
    },
    {
      "inputs": [
        {
          "internalType": "uint64",
          "name": "_date",
          "type": "uint64"
        }
      ],
      "name": "setPublicSaleDate",
      "outputs": [],
      "stateMutability": "nonpayable",
      "type": "function"
    },
    {
      "inputs": [
        {
          "internalType": "uint64",
          "name": "_date",
          "type": "uint64"
        }
      ],
      "name": "setRevealDate",
      "outputs": [],
      "stateMutability": "nonpayable",
      "type": "function"
    },
    {
      "inputs": [
        {
          "internalType": "bytes32",
          "name": "_merkleRoot",
          "type": "bytes32"
        }
      ],
      "name": "setWlMerkleRoot",
      "outputs": [],
      "stateMutability": "nonpayable",
      "type": "function"
    },
    {
      "inputs": [
        {
          "internalType": "bytes4",
          "name": "interfaceId",
          "type": "bytes4"
        }
      ],
      "name": "supportsInterface",
      "outputs": [
        {
          "internalType": "bool",
          "name": "",
          "type": "bool"
        }
      ],
      "stateMutability": "view",
      "type": "function"
    },
    {
      "inputs": [],
      "name": "symbol",
      "outputs": [
        {
          "internalType": "string",
          "name": "",
          "type": "string"
        }
      ],
      "stateMutability": "view",
      "type": "function"
    },
    {
      "inputs": [
        {
          "internalType": "uint256",
          "name": "_tokenId",
          "type": "uint256"
        }
      ],
      "name": "tokenURI",
      "outputs": [
        {
          "internalType": "string",
          "name": "",
          "type": "string"
        }
      ],
      "stateMutability": "view",
      "type": "function"
    },
    {
      "inputs": [],
      "name": "totalSupply",
      "outputs": [
        {
          "internalType": "uint256",
          "name": "",
          "type": "uint256"
        }
      ],
      "stateMutability": "view",
      "type": "function"
    },
    {
      "inputs": [
        {
          "internalType": "address",
          "name": "from",
          "type": "address"
        },
        {
          "internalType": "address",
          "name": "to",
          "type": "address"
        },
        {
          "internalType": "uint256",
          "name": "tokenId",
          "type": "uint256"
        }
      ],
      "name": "transferFrom",
      "outputs": [],
      "stateMutability": "payable",
      "type": "function"
    },
    {
      "inputs": [
        {
          "internalType": "address",
          "name": "newOwner",
          "type": "address"
        }
      ],
      "name": "transferOwnership",
      "outputs": [],
      "stateMutability": "nonpayable",
      "type": "function"
    },
    {
      "inputs": [],
      "name": "withdraw",
      "outputs": [],
      "stateMutability": "nonpayable",
      "type": "function"
    },
    {
      "inputs": [],
      "name": "wlMerkleRoot",
      "outputs": [
        {
          "internalType": "bytes32",
          "name": "",
          "type": "bytes32"
        }
      ],
      "stateMutability": "view",
      "type": "function"
    },
    {
      "inputs": [
        {
          "internalType": "uint256",
          "name": "_mintAmount",
          "type": "uint256"
        },
        {
          "internalType": "bytes32[]",
          "name": "_merkleProof",
          "type": "bytes32[]"
        }
      ],
      "name": "wlMint",
      "outputs": [],
      "stateMutability": "payable",
      "type": "function"
    }
  ],
  "bytecode": "0x60806040523480156200001157600080fd5b50604051620053b4380380620053b4833981810160405281019062000037919062000a07565b6040518060400160405280600a81526020017f57686f2049732057686f000000000000000000000000000000000000000000008152506040518060400160405280600881526020017f57686f497357686f0000000000000000000000000000000000000000000000008152508160029081620000b4919062000d30565b508060039081620000c6919062000d30565b50620000d7620001fe60201b60201c565b6000819055505050620000ff620000f36200020360201b60201c565b6200020b60201b60201c565b600160098190555087600a8190555086600b60186101000a81548163ffffffff021916908363ffffffff16021790555082600c8190555081600d8190555080600e90816200014e919062000d30565b5085600b60006101000a81548167ffffffffffffffff021916908367ffffffffffffffff16021790555084600b60086101000a81548167ffffffffffffffff021916908367ffffffffffffffff16021790555083600b60106101000a81548167ffffffffffffffff021916908367ffffffffffffffff160217905550620001f0620001de6200020360201b60201c565b603261ffff16620002d160201b60201c565b505050505050505062000fad565b600090565b600033905090565b6000600860009054906101000a900473ffffffffffffffffffffffffffffffffffffffff16905081600860006101000a81548173ffffffffffffffffffffffffffffffffffffffff021916908373ffffffffffffffffffffffffffffffffffffffff1602179055508173ffffffffffffffffffffffffffffffffffffffff168173ffffffffffffffffffffffffffffffffffffffff167f8be0079c531659141344cd1fd0a4f28419497f9722a3daafe3b4186f6b6457e060405160405180910390a35050565b620002f3828260405180602001604052806000815250620002f760201b60201c565b5050565b620003098383620003a860201b60201c565b60008373ffffffffffffffffffffffffffffffffffffffff163b14620003a357600080549050600083820390505b6200035260008683806001019450866200058f60201b60201c565b62000389576040517fd1a57ed600000000000000000000000000000000000000000000000000000000815260040160405180910390fd5b81811062000337578160005414620003a057600080fd5b50505b505050565b60008054905060008203620003e9576040517fb562e8dd00000000000000000000000000000000000000000000000000000000815260040160405180910390fd5b620003fe6000848385620006f060201b60201c565b600160406001901b178202600560008573ffffffffffffffffffffffffffffffffffffffff1673ffffffffffffffffffffffffffffffffffffffff168152602001908152602001600020600082825401925050819055506200048d836200046f6000866000620006f660201b60201c565b62000480856200072660201b60201c565b176200073660201b60201c565b6004600083815260200190815260200160002081905550600080838301905073ffffffffffffffffffffffffffffffffffffffff85169150828260007fddf252ad1be2c89b69c2b068fc378daa952ba7f163c4a11628f55a4df523b3ef600080a4600183015b8181146200053057808360007fddf252ad1be2c89b69c2b068fc378daa952ba7f163c4a11628f55a4df523b3ef600080a4600181019050620004f3565b50600082036200056c576040517f2e07630000000000000000000000000000000000000000000000000000000000815260040160405180910390fd5b8060008190555050506200058a60008483856200076160201b60201c565b505050565b60008373ffffffffffffffffffffffffffffffffffffffff1663150b7a02620005bd6200076760201b60201c565b8786866040518563ffffffff1660e01b8152600401620005e1949392919062000eca565b6020604051808303816000875af19250505080156200062057506040513d601f19601f820116820180604052508101906200061d919062000f7b565b60015b6200069d573d806000811462000653576040519150601f19603f3d011682016040523d82523d6000602084013e62000658565b606091505b50600081510362000695576040517fd1a57ed600000000000000000000000000000000000000000000000000000000815260040160405180910390fd5b805181602001fd5b63150b7a0260e01b7bffffffffffffffffffffffffffffffffffffffffffffffffffffffff1916817bffffffffffffffffffffffffffffffffffffffffffffffffffffffff191614915050949350505050565b50505050565b60008060e883901c905060e8620007158686846200076f60201b60201c565b62ffffff16901b9150509392505050565b60006001821460e11b9050919050565b600073ffffffffffffffffffffffffffffffffffffffff83169250814260a01b178317905092915050565b50505050565b600033905090565b60009392505050565b6000604051905090565b600080fd5b600080fd5b6000819050919050565b620007a1816200078c565b8114620007ad57600080fd5b50565b600081519050620007c18162000796565b92915050565b600063ffffffff82169050919050565b620007e281620007c7565b8114620007ee57600080fd5b50565b6000815190506200080281620007d7565b92915050565b600067ffffffffffffffff82169050919050565b620008278162000808565b81146200083357600080fd5b50565b60008151905062000847816200081c565b92915050565b6000819050919050565b62000862816200084d565b81146200086e57600080fd5b50565b600081519050620008828162000857565b92915050565b600080fd5b600080fd5b6000601f19601f8301169050919050565b7f4e487b7100000000000000000000000000000000000000000000000000000000600052604160045260246000fd5b620008dd8262000892565b810181811067ffffffffffffffff82111715620008ff57620008fe620008a3565b5b80604052505050565b60006200091462000778565b9050620009228282620008d2565b919050565b600067ffffffffffffffff821115620009455762000944620008a3565b5b620009508262000892565b9050602081019050919050565b60005b838110156200097d57808201518184015260208101905062000960565b60008484015250505050565b6000620009a06200099a8462000927565b62000908565b905082815260208101848484011115620009bf57620009be6200088d565b5b620009cc8482856200095d565b509392505050565b600082601f830112620009ec57620009eb62000888565b5b8151620009fe84826020860162000989565b91505092915050565b600080600080600080600080610100898b03121562000a2b5762000a2a62000782565b5b600062000a3b8b828c01620007b0565b985050602062000a4e8b828c01620007f1565b975050604062000a618b828c0162000836565b965050606062000a748b828c0162000836565b955050608062000a878b828c0162000836565b94505060a062000a9a8b828c0162000871565b93505060c062000aad8b828c0162000871565b92505060e089015167ffffffffffffffff81111562000ad15762000ad062000787565b5b62000adf8b828c01620009d4565b9150509295985092959890939650565b600081519050919050565b7f4e487b7100000000000000000000000000000000000000000000000000000000600052602260045260246000fd5b6000600282049050600182168062000b4257607f821691505b60208210810362000b585762000b5762000afa565b5b50919050565b60008190508160005260206000209050919050565b60006020601f8301049050919050565b600082821b905092915050565b60006008830262000bc27fffffffffffffffffffffffffffffffffffffffffffffffffffffffffffffffff8262000b83565b62000bce868362000b83565b95508019841693508086168417925050509392505050565b6000819050919050565b600062000c1162000c0b62000c05846200078c565b62000be6565b6200078c565b9050919050565b6000819050919050565b62000c2d8362000bf0565b62000c4562000c3c8262000c18565b84845462000b90565b825550505050565b600090565b62000c5c62000c4d565b62000c6981848462000c22565b505050565b5b8181101562000c915762000c8560008262000c52565b60018101905062000c6f565b5050565b601f82111562000ce05762000caa8162000b5e565b62000cb58462000b73565b8101602085101562000cc5578190505b62000cdd62000cd48562000b73565b83018262000c6e565b50505b505050565b600082821c905092915050565b600062000d056000198460080262000ce5565b1980831691505092915050565b600062000d20838362000cf2565b9150826002028217905092915050565b62000d3b8262000aef565b67ffffffffffffffff81111562000d575762000d56620008a3565b5b62000d63825462000b29565b62000d7082828562000c95565b600060209050601f83116001811462000da8576000841562000d93578287015190505b62000d9f858262000d12565b86555062000e0f565b601f19841662000db88662000b5e565b60005b8281101562000de25784890151825560018201915060208501945060208101905062000dbb565b8683101562000e02578489015162000dfe601f89168262000cf2565b8355505b6001600288020188555050505b505050505050565b600073ffffffffffffffffffffffffffffffffffffffff82169050919050565b600062000e448262000e17565b9050919050565b62000e568162000e37565b82525050565b62000e67816200078c565b82525050565b600081519050919050565b600082825260208201905092915050565b600062000e968262000e6d565b62000ea2818562000e78565b935062000eb48185602086016200095d565b62000ebf8162000892565b840191505092915050565b600060808201905062000ee1600083018762000e4b565b62000ef0602083018662000e4b565b62000eff604083018562000e5c565b818103606083015262000f13818462000e89565b905095945050505050565b60007fffffffff0000000000000000000000000000000000000000000000000000000082169050919050565b62000f558162000f1e565b811462000f6157600080fd5b50565b60008151905062000f758162000f4a565b92915050565b60006020828403121562000f945762000f9362000782565b5b600062000fa48482850162000f64565b91505092915050565b6143f78062000fbd6000396000f3fe6080604052600436106102935760003560e01c806370a082311161015a578063a45ba8e7116100c1578063d8a7ab891161007a578063d8a7ab8914610966578063e985e9c51461098f578063eced3873146109cc578063ef170ce8146109f7578063f2fde38b14610a20578063fb94bd8a14610a4957610293565b8063a45ba8e71461084f578063b88d4fde1461087a578063c87b56dd14610896578063c889004b146108d3578063cb2b85f7146108fe578063d39f0a261461092957610293565b806391b7f5ed1161011357806391b7f5ed1461076057806395d89b41146107895780639f3d1a2a146107b4578063a035b1fe146107df578063a0712d681461080a578063a22cb4651461082657610293565b806370a0823114610662578063715018a61461069f5780637a8baf52146106b65780638ac1e161146106e15780638da5cb5b1461070a578063902d55a51461073557610293565b80633ef0d36d116101fe5780635f0bc29a116101b75780635f0bc29a146105525780635ff965601461057b57806360b11973146105a657806361e515cb146105d15780636352211e146105fa57806368fc68c71461063757610293565b80633ef0d36d1461047d57806340c10f191461049957806342842e0e146104b557806345c16a22146104d15780634a4d1cce146104fc57806354c06aee1461052757610293565b806318160ddd1161025057806318160ddd146103af5780631e08a9e4146103da57806323b872dd1461040557806325cfa09a146104215780632b314dc61461044a5780633ccfd60b1461046657610293565b806301ffc9a71461029857806306fdde03146102d5578063081812fc14610300578063095ea7b31461033d5780630a302530146103595780630e106df814610384575b600080fd5b3480156102a457600080fd5b506102bf60048036038101906102ba919061318b565b610a72565b6040516102cc91906131d3565b60405180910390f35b3480156102e157600080fd5b506102ea610b04565b6040516102f7919061327e565b60405180910390f35b34801561030c57600080fd5b50610327600480360381019061032291906132d6565b610b96565b6040516103349190613344565b60405180910390f35b6103576004803603810190610352919061338b565b610c15565b005b34801561036557600080fd5b5061036e610d59565b60405161037b91906133e4565b60405180910390f35b34801561039057600080fd5b50610399610d5f565b6040516103a6919061341c565b60405180910390f35b3480156103bb57600080fd5b506103c4610d64565b6040516103d19190613446565b60405180910390f35b3480156103e657600080fd5b506103ef610d7b565b6040516103fc9190613484565b60405180910390f35b61041f600480360381019061041a919061349f565b610d95565b005b34801561042d57600080fd5b506104486004803603810190610443919061352e565b6110b7565b005b610464600480360381019061045f91906135c0565b611116565b005b34801561047257600080fd5b5061047b6113d5565b005b610497600480360381019061049291906135c0565b611589565b005b6104b360048036038101906104ae919061338b565b611848565b005b6104cf60048036038101906104ca919061349f565b61185e565b005b3480156104dd57600080fd5b506104e661187e565b6040516104f39190613697565b60405180910390f35b34801561050857600080fd5b50610511611930565b60405161051e919061341c565b60405180910390f35b34801561053357600080fd5b5061053c611935565b60405161054991906133e4565b60405180910390f35b34801561055e57600080fd5b50610579600480360381019061057491906136de565b61193b565b005b34801561058757600080fd5b506105906119a6565b60405161059d919061341c565b60405180910390f35b3480156105b257600080fd5b506105bb6119ac565b6040516105c89190613446565b60405180910390f35b3480156105dd57600080fd5b506105f860048036038101906105f391906136de565b6119b7565b005b34801561060657600080fd5b50610621600480360381019061061c91906132d6565b611a8e565b60405161062e9190613344565b60405180910390f35b34801561064357600080fd5b5061064c611aa0565b604051610659919061341c565b60405180910390f35b34801561066e57600080fd5b506106896004803603810190610684919061370b565b611aa5565b6040516106969190613446565b60405180910390f35b3480156106ab57600080fd5b506106b4611b5d565b005b3480156106c257600080fd5b506106cb611b71565b6040516106d89190613747565b60405180910390f35b3480156106ed57600080fd5b506107086004803603810190610703919061378e565b611b87565b005b34801561071657600080fd5b5061071f611c32565b60405161072c9190613344565b60405180910390f35b34801561074157600080fd5b5061074a611c5c565b6040516107579190613747565b60405180910390f35b34801561076c57600080fd5b50610787600480360381019061078291906132d6565b611c62565b005b34801561079557600080fd5b5061079e611ca1565b6040516107ab919061327e565b60405180910390f35b3480156107c057600080fd5b506107c9611d33565b6040516107d6919061327e565b60405180910390f35b3480156107eb57600080fd5b506107f4611dc1565b6040516108019190613446565b60405180910390f35b610824600480360381019061081f91906132d6565b611dc7565b005b34801561083257600080fd5b5061084d600480360381019061084891906137e7565b612023565b005b34801561085b57600080fd5b5061086461212e565b604051610871919061327e565b60405180910390f35b610894600480360381019061088f9190613957565b612185565b005b3480156108a257600080fd5b506108bd60048036038101906108b891906132d6565b6121f8565b6040516108ca919061327e565b60405180910390f35b3480156108df57600080fd5b506108e86122b5565b6040516108f59190613484565b60405180910390f35b34801561090a57600080fd5b506109136122cf565b6040516109209190613446565b60405180910390f35b34801561093557600080fd5b50610950600480360381019061094b919061370b565b6122da565b60405161095d9190613446565b60405180910390f35b34801561097257600080fd5b5061098d6004803603810190610988919061378e565b6122f2565b005b34801561099b57600080fd5b506109b660048036038101906109b191906139da565b61239d565b6040516109c391906131d3565b60405180910390f35b3480156109d857600080fd5b506109e1612431565b6040516109ee9190613484565b60405180910390f35b348015610a0357600080fd5b50610a1e6004803603810190610a1991906136de565b61244b565b005b348015610a2c57600080fd5b50610a476004803603810190610a42919061370b565b612522565b005b348015610a5557600080fd5b50610a706004803603810190610a6b9190613abb565b6125a5565b005b60006301ffc9a760e01b827bffffffffffffffffffffffffffffffffffffffffffffffffffffffff19161480610acd57506380ac58cd60e01b827bffffffffffffffffffffffffffffffffffffffffffffffffffffffff1916145b80610afd5750635b5e139f60e01b827bffffffffffffffffffffffffffffffffffffffffffffffffffffffff1916145b9050919050565b606060028054610b1390613b33565b80601f0160208091040260200160405190810160405280929190818152602001828054610b3f90613b33565b8015610b8c5780601f10610b6157610100808354040283529160200191610b8c565b820191906000526020600020905b815481529060010190602001808311610b6f57829003601f168201915b5050505050905090565b6000610ba182612602565b610bd7576040517fcf4700e400000000000000000000000000000000000000000000000000000000815260040160405180910390fd5b6006600083815260200190815260200160002060000160009054906101000a900473ffffffffffffffffffffffffffffffffffffffff169050919050565b6000610c2082611a8e565b90508073ffffffffffffffffffffffffffffffffffffffff16610c41612661565b73ffffffffffffffffffffffffffffffffffffffff1614610ca457610c6d81610c68612661565b61239d565b610ca3576040517fcfb3b94200000000000000000000000000000000000000000000000000000000815260040160405180910390fd5b5b826006600084815260200190815260200160002060000160006101000a81548173ffffffffffffffffffffffffffffffffffffffff021916908373ffffffffffffffffffffffffffffffffffffffff160217905550818373ffffffffffffffffffffffffffffffffffffffff168273ffffffffffffffffffffffffffffffffffffffff167f8c5be1e5ebec7d5bd14f71427d1e84f3dd0314c0f7b2291e5b200ac8c7c3b92560405160405180910390a4505050565b600c5481565b600381565b6000610d6e612669565b6001546000540303905090565b600b60109054906101000a900467ffffffffffffffff1681565b6000610da08261266e565b90508373ffffffffffffffffffffffffffffffffffffffff168173ffffffffffffffffffffffffffffffffffffffff1614610e07576040517fa114810000000000000000000000000000000000000000000000000000000000815260040160405180910390fd5b600080610e138461273a565b91509150610e298187610e24612661565b612761565b610e7557610e3e86610e39612661565b61239d565b610e74576040517f59c896be00000000000000000000000000000000000000000000000000000000815260040160405180910390fd5b5b600073ffffffffffffffffffffffffffffffffffffffff168573ffffffffffffffffffffffffffffffffffffffff1603610edb576040517fea553b3400000000000000000000000000000000000000000000000000000000815260040160405180910390fd5b610ee886868660016127a5565b8015610ef357600082555b600560008773ffffffffffffffffffffffffffffffffffffffff1673ffffffffffffffffffffffffffffffffffffffff168152602001908152602001600020600081546001900391905081905550600560008673ffffffffffffffffffffffffffffffffffffffff1673ffffffffffffffffffffffffffffffffffffffff1681526020019081526020016000206000815460010191905081905550610fc185610f9d8888876127ab565b7c0200000000000000000000000000000000000000000000000000000000176127d3565b600460008681526020019081526020016000208190555060007c02000000000000000000000000000000000000000000000000000000008416036110475760006001850190506000600460008381526020019081526020016000205403611045576000548114611044578360046000838152602001908152602001600020819055505b5b505b838573ffffffffffffffffffffffffffffffffffffffff168773ffffffffffffffffffffffffffffffffffffffff167fddf252ad1be2c89b69c2b068fc378daa952ba7f163c4a11628f55a4df523b3ef60405160405180910390a46110af86868660016127fe565b505050505050565b6110bf612804565b80600b60186101000a81548163ffffffff021916908363ffffffff1602179055508063ffffffff167f8951dedc3a995b3334032076b7e0b1e1d8e8b5081e37e8dd00ac9a2e627df0ef60405160405180910390a250565b61111e612882565b6001600061112a61187e565b905081600381111561113f5761113e613620565b5b81600381111561115257611151613620565b5b14611189576040517f79906ae300000000000000000000000000000000000000000000000000000000815260040160405180910390fd5b84600361ffff16808211156111ca576040517fb812c96d00000000000000000000000000000000000000000000000000000000815260040160405180910390fd5b60008203611204576040517f223702e700000000000000000000000000000000000000000000000000000000815260040160405180910390fd5b60008261120f610d64565b01905061138863ffffffff16811115611254576040517fb812c96d00000000000000000000000000000000000000000000000000000000815260040160405180910390fd5b5086600361ffff1660008261126f61126a6128d1565b611aa5565b019050818111156112ac576040517fb812c96d00000000000000000000000000000000000000000000000000000000815260040160405180910390fd5b50886658d15e1762800060008282029050348111156112f7576040517fc2fa7e8400000000000000000000000000000000000000000000000000000000815260040160405180910390fd5b5060006113026128d1565b6040516020016113129190613bac565b6040516020818303038152906040528051906020012090506113788b8b80806020026020016040519081016040528093929190818152602001838360200280828437600081840152601f19601f82011690508083019250505050505050600c54836128d9565b6113ae576040517f5318cab800000000000000000000000000000000000000000000000000000000815260040160405180910390fd5b6113bf6113b96128d1565b8d6128f0565b5050505050505050506113d061290e565b505050565b6113dd612804565b600360006113e961187e565b90508160038111156113fe576113fd613620565b5b81600381111561141157611410613620565b5b14611448576040517f79906ae300000000000000000000000000000000000000000000000000000000815260040160405180910390fd5b6000611452612918565b90506000815111611498576040517f08c379a000000000000000000000000000000000000000000000000000000000815260040161148f90613c13565b60405180910390fd5b60006114a2611c32565b73ffffffffffffffffffffffffffffffffffffffff16476040516114c590613c64565b60006040518083038185875af1925050503d8060008114611502576040519150601f19603f3d011682016040523d82523d6000602084013e611507565b606091505b505090508061154b576040517f08c379a000000000000000000000000000000000000000000000000000000000815260040161154290613cc5565b60405180910390fd5b427f56ca301a9219608c91e7bcee90e083c19671d2cdcc96752c7af291cee5f9c8c84760405161157b9190613446565b60405180910390a250505050565b611591612882565b6002600061159d61187e565b90508160038111156115b2576115b1613620565b5b8160038111156115c5576115c4613620565b5b146115fc576040517f79906ae300000000000000000000000000000000000000000000000000000000815260040160405180910390fd5b84600261ffff168082111561163d576040517fb812c96d00000000000000000000000000000000000000000000000000000000815260040160405180910390fd5b60008203611677576040517f223702e700000000000000000000000000000000000000000000000000000000815260040160405180910390fd5b600082611682610d64565b01905061138863ffffffff168111156116c7576040517fb812c96d00000000000000000000000000000000000000000000000000000000815260040160405180910390fd5b5086600261ffff166000826116e26116dd6128d1565b611aa5565b0190508181111561171f576040517fb812c96d00000000000000000000000000000000000000000000000000000000815260040160405180910390fd5b50886658d15e17628000600082820290503481111561176a576040517fc2fa7e8400000000000000000000000000000000000000000000000000000000815260040160405180910390fd5b5060006117756128d1565b6040516020016117859190613bac565b6040516020818303038152906040528051906020012090506117eb8b8b80806020026020016040519081016040528093929190818152602001838360200280828437600081840152601f19601f82011690508083019250505050505050600d54836128d9565b611821576040517f5318cab800000000000000000000000000000000000000000000000000000000815260040160405180910390fd5b61183261182c6128d1565b8d6128f0565b50505050505050505061184361290e565b505050565b611850612804565b61185a82826128f0565b5050565b61187983838360405180602001604052806000815250612185565b505050565b600080429050600b60089054906101000a900467ffffffffffffffff1667ffffffffffffffff1681106118b557600391505061192d565b600061038461ffff16600b60009054906101000a900467ffffffffffffffff160190508067ffffffffffffffff1682106118f45760029250505061192d565b600b60009054906101000a900467ffffffffffffffff1667ffffffffffffffff1682106119265760019250505061192d565b6000925050505b90565b600281565b600d5481565b611943612804565b80600b60106101000a81548167ffffffffffffffff021916908367ffffffffffffffff1602179055508067ffffffffffffffff167f7a767a471a01b44c40aeb36e0e53fdb3ba974aa9673919403eb099940f6a72c760405160405180910390a250565b61038481565b6658d15e1762800081565b6119bf612804565b6000806119ca61187e565b90508160038111156119df576119de613620565b5b8160038111156119f2576119f1613620565b5b14611a29576040517f79906ae300000000000000000000000000000000000000000000000000000000815260040160405180910390fd5b82600b60006101000a81548167ffffffffffffffff021916908367ffffffffffffffff1602179055508267ffffffffffffffff167f72870c674641393bb011154451c8ba6cc86adfbc0c2095902b7b8dc2538221c960405160405180910390a2505050565b6000611a998261266e565b9050919050565b603281565b60008073ffffffffffffffffffffffffffffffffffffffff168273ffffffffffffffffffffffffffffffffffffffff1603611b0c576040517f8f4eb60400000000000000000000000000000000000000000000000000000000815260040160405180910390fd5b67ffffffffffffffff600560008473ffffffffffffffffffffffffffffffffffffffff1673ffffffffffffffffffffffffffffffffffffffff16815260200190815260200160002054169050919050565b611b65612804565b611b6f60006129aa565b565b600b60189054906101000a900463ffffffff1681565b611b8f612804565b600080611b9a61187e565b9050816003811115611baf57611bae613620565b5b816003811115611bc257611bc1613620565b5b14611bf9576040517f79906ae300000000000000000000000000000000000000000000000000000000815260040160405180910390fd5b82600d81905550827ffa1eb369f88e457de4be2ecd60a5d9a75c82674a0fadc0f66fef46762230d95a60405160405180910390a2505050565b6000600860009054906101000a900473ffffffffffffffffffffffffffffffffffffffff16905090565b61138881565b611c6a612804565b80600a81905550807f4f5539c0409dfc4cb06f64cbd31237e1fbfe443f531584bf4dd77ec7fc5ba7b160405160405180910390a250565b606060038054611cb090613b33565b80601f0160208091040260200160405190810160405280929190818152602001828054611cdc90613b33565b8015611d295780601f10611cfe57610100808354040283529160200191611d29565b820191906000526020600020905b815481529060010190602001808311611d0c57829003601f168201915b5050505050905090565b600e8054611d4090613b33565b80601f0160208091040260200160405190810160405280929190818152602001828054611d6c90613b33565b8015611db95780601f10611d8e57610100808354040283529160200191611db9565b820191906000526020600020905b815481529060010190602001808311611d9c57829003601f168201915b505050505081565b600a5481565b611dcf612882565b60036000611ddb61187e565b9050816003811115611df057611def613620565b5b816003811115611e0357611e02613620565b5b14611e3a576040517f79906ae300000000000000000000000000000000000000000000000000000000815260040160405180910390fd5b82600b60189054906101000a900463ffffffff1663ffffffff1680821115611e8e576040517fb812c96d00000000000000000000000000000000000000000000000000000000815260040160405180910390fd5b60008203611ec8576040517f223702e700000000000000000000000000000000000000000000000000000000815260040160405180910390fd5b600082611ed3610d64565b01905061138863ffffffff16811115611f18576040517fb812c96d00000000000000000000000000000000000000000000000000000000815260040160405180910390fd5b5084600081600f6000611f296128d1565b73ffffffffffffffffffffffffffffffffffffffff1673ffffffffffffffffffffffffffffffffffffffff16815260200190815260200160002054019050600b60189054906101000a900463ffffffff1663ffffffff16811115611fb9576040517fb812c96d00000000000000000000000000000000000000000000000000000000815260040160405180910390fd5b5085600a546000828202905034811115611fff576040517fc2fa7e8400000000000000000000000000000000000000000000000000000000815260040160405180910390fd5b5061201161200b6128d1565b896128f0565b5050505050505061202061290e565b50565b8060076000612030612661565b73ffffffffffffffffffffffffffffffffffffffff1673ffffffffffffffffffffffffffffffffffffffff16815260200190815260200160002060008473ffffffffffffffffffffffffffffffffffffffff1673ffffffffffffffffffffffffffffffffffffffff16815260200190815260200160002060006101000a81548160ff0219169083151502179055508173ffffffffffffffffffffffffffffffffffffffff166120dd612661565b73ffffffffffffffffffffffffffffffffffffffff167f17307eab39ab6107e8899845ad3d59bd9653f200f220920489ca2b5937696c318360405161212291906131d3565b60405180910390a35050565b6060600061213a612918565b905060008151111561216e57806040516020016121579190613d6d565b604051602081830303815290604052915050612182565b604051806020016040528060008152509150505b90565b612190848484610d95565b60008373ffffffffffffffffffffffffffffffffffffffff163b146121f2576121bb84848484612a70565b6121f1576040517fd1a57ed600000000000000000000000000000000000000000000000000000000815260040160405180910390fd5b5b50505050565b606061220382612602565b612239576040517f906a2c8600000000000000000000000000000000000000000000000000000000815260040160405180910390fd5b612241612bc0565b6122545761224d61212e565b90506122b0565b600061225e612918565b905060008151111561229c578061227484612bf5565b604051602001612285929190613ddb565b6040516020818303038152906040529150506122b0565b604051806020016040528060008152509150505b919050565b600b60009054906101000a900467ffffffffffffffff1681565b6658d15e1762800081565b600f6020528060005260406000206000915090505481565b6122fa612804565b60008061230561187e565b905081600381111561231a57612319613620565b5b81600381111561232d5761232c613620565b5b14612364576040517f79906ae300000000000000000000000000000000000000000000000000000000815260040160405180910390fd5b82600c81905550827f324a2e035a8e8a295d32af0321d28bbb4523b2eb5482d0ead7a3b1e0559b3e0a60405160405180910390a2505050565b6000600760008473ffffffffffffffffffffffffffffffffffffffff1673ffffffffffffffffffffffffffffffffffffffff16815260200190815260200160002060008373ffffffffffffffffffffffffffffffffffffffff1673ffffffffffffffffffffffffffffffffffffffff16815260200190815260200160002060009054906101000a900460ff16905092915050565b600b60089054906101000a900467ffffffffffffffff1681565b612453612804565b60008061245e61187e565b905081600381111561247357612472613620565b5b81600381111561248657612485613620565b5b146124bd576040517f79906ae300000000000000000000000000000000000000000000000000000000815260040160405180910390fd5b82600b60086101000a81548167ffffffffffffffff021916908367ffffffffffffffff1602179055508267ffffffffffffffff167f8227d65ab5dd51383d2ecfffbdaff8d40e1efc4339f887d26c556ad741ab89df60405160405180910390a2505050565b61252a612804565b600073ffffffffffffffffffffffffffffffffffffffff168173ffffffffffffffffffffffffffffffffffffffff1603612599576040517f08c379a000000000000000000000000000000000000000000000000000000000815260040161259090613e7c565b60405180910390fd5b6125a2816129aa565b50565b6125ad612804565b80600e90816125bc9190614048565b50806040516125cb919061411a565b60405180910390207f8f124c4ac94494868eafaa446b739570c7d5b809ab27b5651aaa9c69f4997ec960405160405180910390a250565b60008161260d612669565b1115801561261c575060005482105b801561265a575060007c0100000000000000000000000000000000000000000000000000000000600460008581526020019081526020016000205416145b9050919050565b600033905090565b600090565b6000808290508061267d612669565b11612703576000548110156127025760006004600083815260200190815260200160002054905060007c0100000000000000000000000000000000000000000000000000000000821603612700575b600081036126f65760046000836001900393508381526020019081526020016000205490506126cc565b8092505050612735565b505b5b6040517fdf2d9b4200000000000000000000000000000000000000000000000000000000815260040160405180910390fd5b919050565b60008060006006600085815260200190815260200160002090508092508254915050915091565b600073ffffffffffffffffffffffffffffffffffffffff8316925073ffffffffffffffffffffffffffffffffffffffff821691508382148383141790509392505050565b50505050565b60008060e883901c905060e86127c2868684612cc3565b62ffffff16901b9150509392505050565b600073ffffffffffffffffffffffffffffffffffffffff83169250814260a01b178317905092915050565b50505050565b61280c6128d1565b73ffffffffffffffffffffffffffffffffffffffff1661282a611c32565b73ffffffffffffffffffffffffffffffffffffffff1614612880576040517f08c379a00000000000000000000000000000000000000000000000000000000081526004016128779061417d565b60405180910390fd5b565b6002600954036128c7576040517f08c379a00000000000000000000000000000000000000000000000000000000081526004016128be906141e9565b60405180910390fd5b6002600981905550565b600033905090565b6000826128e68584612ccc565b1490509392505050565b61290a828260405180602001604052806000815250612d22565b5050565b6001600981905550565b6060600e805461292790613b33565b80601f016020809104026020016040519081016040528092919081815260200182805461295390613b33565b80156129a05780601f10612975576101008083540402835291602001916129a0565b820191906000526020600020905b81548152906001019060200180831161298357829003601f168201915b5050505050905090565b6000600860009054906101000a900473ffffffffffffffffffffffffffffffffffffffff16905081600860006101000a81548173ffffffffffffffffffffffffffffffffffffffff021916908373ffffffffffffffffffffffffffffffffffffffff1602179055508173ffffffffffffffffffffffffffffffffffffffff168173ffffffffffffffffffffffffffffffffffffffff167f8be0079c531659141344cd1fd0a4f28419497f9722a3daafe3b4186f6b6457e060405160405180910390a35050565b60008373ffffffffffffffffffffffffffffffffffffffff1663150b7a02612a96612661565b8786866040518563ffffffff1660e01b8152600401612ab8949392919061425e565b6020604051808303816000875af1925050508015612af457506040513d601f19601f82011682018060405250810190612af191906142bf565b60015b612b6d573d8060008114612b24576040519150601f19603f3d011682016040523d82523d6000602084013e612b29565b606091505b506000815103612b65576040517fd1a57ed600000000000000000000000000000000000000000000000000000000815260040160405180910390fd5b805181602001fd5b63150b7a0260e01b7bffffffffffffffffffffffffffffffffffffffffffffffffffffffff1916817bffffffffffffffffffffffffffffffffffffffffffffffffffffffff191614915050949350505050565b6000600b60109054906101000a900467ffffffffffffffff1667ffffffffffffffff164267ffffffffffffffff161015905090565b606060006001612c0484612dbf565b01905060008167ffffffffffffffff811115612c2357612c2261382c565b5b6040519080825280601f01601f191660200182016040528015612c555781602001600182028036833780820191505090505b509050600082602001820190505b600115612cb8578080600190039150507f3031323334353637383961626364656600000000000000000000000000000000600a86061a8153600a8581612cac57612cab6142ec565b5b04945060008503612c63575b819350505050919050565b60009392505050565b60008082905060005b8451811015612d1757612d0282868381518110612cf557612cf461431b565b5b6020026020010151612f12565b91508080612d0f90614379565b915050612cd5565b508091505092915050565b612d2c8383612f3d565b60008373ffffffffffffffffffffffffffffffffffffffff163b14612dba57600080549050600083820390505b612d6c6000868380600101945086612a70565b612da2576040517fd1a57ed600000000000000000000000000000000000000000000000000000000815260040160405180910390fd5b818110612d59578160005414612db757600080fd5b50505b505050565b600080600090507a184f03e93ff9f4daa797ed6e38ed64bf6a1f0100000000000000008310612e1d577a184f03e93ff9f4daa797ed6e38ed64bf6a1f0100000000000000008381612e1357612e126142ec565b5b0492506040810190505b6d04ee2d6d415b85acef81000000008310612e5a576d04ee2d6d415b85acef81000000008381612e5057612e4f6142ec565b5b0492506020810190505b662386f26fc100008310612e8957662386f26fc100008381612e7f57612e7e6142ec565b5b0492506010810190505b6305f5e1008310612eb2576305f5e1008381612ea857612ea76142ec565b5b0492506008810190505b6127108310612ed7576127108381612ecd57612ecc6142ec565b5b0492506004810190505b60648310612efa5760648381612ef057612eef6142ec565b5b0492506002810190505b600a8310612f09576001810190505b80915050919050565b6000818310612f2a57612f2582846130f8565b612f35565b612f3483836130f8565b5b905092915050565b60008054905060008203612f7d576040517fb562e8dd00000000000000000000000000000000000000000000000000000000815260040160405180910390fd5b612f8a60008483856127a5565b600160406001901b178202600560008573ffffffffffffffffffffffffffffffffffffffff1673ffffffffffffffffffffffffffffffffffffffff1681526020019081526020016000206000828254019250508190555061300183612ff260008660006127ab565b612ffb8561310f565b176127d3565b6004600083815260200190815260200160002081905550600080838301905073ffffffffffffffffffffffffffffffffffffffff85169150828260007fddf252ad1be2c89b69c2b068fc378daa952ba7f163c4a11628f55a4df523b3ef600080a4600183015b8181146130a257808360007fddf252ad1be2c89b69c2b068fc378daa952ba7f163c4a11628f55a4df523b3ef600080a4600181019050613067565b50600082036130dd576040517f2e07630000000000000000000000000000000000000000000000000000000000815260040160405180910390fd5b8060008190555050506130f360008483856127fe565b505050565b600082600052816020526040600020905092915050565b60006001821460e11b9050919050565b6000604051905090565b600080fd5b600080fd5b60007fffffffff0000000000000000000000000000000000000000000000000000000082169050919050565b61316881613133565b811461317357600080fd5b50565b6000813590506131858161315f565b92915050565b6000602082840312156131a1576131a0613129565b5b60006131af84828501613176565b91505092915050565b60008115159050919050565b6131cd816131b8565b82525050565b60006020820190506131e860008301846131c4565b92915050565b600081519050919050565b600082825260208201905092915050565b60005b8381101561322857808201518184015260208101905061320d565b60008484015250505050565b6000601f19601f8301169050919050565b6000613250826131ee565b61325a81856131f9565b935061326a81856020860161320a565b61327381613234565b840191505092915050565b600060208201905081810360008301526132988184613245565b905092915050565b6000819050919050565b6132b3816132a0565b81146132be57600080fd5b50565b6000813590506132d0816132aa565b92915050565b6000602082840312156132ec576132eb613129565b5b60006132fa848285016132c1565b91505092915050565b600073ffffffffffffffffffffffffffffffffffffffff82169050919050565b600061332e82613303565b9050919050565b61333e81613323565b82525050565b60006020820190506133596000830184613335565b92915050565b61336881613323565b811461337357600080fd5b50565b6000813590506133858161335f565b92915050565b600080604083850312156133a2576133a1613129565b5b60006133b085828601613376565b92505060206133c1858286016132c1565b9150509250929050565b6000819050919050565b6133de816133cb565b82525050565b60006020820190506133f960008301846133d5565b92915050565b600061ffff82169050919050565b613416816133ff565b82525050565b6000602082019050613431600083018461340d565b92915050565b613440816132a0565b82525050565b600060208201905061345b6000830184613437565b92915050565b600067ffffffffffffffff82169050919050565b61347e81613461565b82525050565b60006020820190506134996000830184613475565b92915050565b6000806000606084860312156134b8576134b7613129565b5b60006134c686828701613376565b93505060206134d786828701613376565b92505060406134e8868287016132c1565b9150509250925092565b600063ffffffff82169050919050565b61350b816134f2565b811461351657600080fd5b50565b60008135905061352881613502565b92915050565b60006020828403121561354457613543613129565b5b600061355284828501613519565b91505092915050565b600080fd5b600080fd5b600080fd5b60008083601f8401126135805761357f61355b565b5b8235905067ffffffffffffffff81111561359d5761359c613560565b5b6020830191508360208202830111156135b9576135b8613565565b5b9250929050565b6000806000604084860312156135d9576135d8613129565b5b60006135e7868287016132c1565b935050602084013567ffffffffffffffff8111156136085761360761312e565b5b6136148682870161356a565b92509250509250925092565b7f4e487b7100000000000000000000000000000000000000000000000000000000600052602160045260246000fd5b600481106136605761365f613620565b5b50565b60008190506136718261364f565b919050565b600061368182613663565b9050919050565b61369181613676565b82525050565b60006020820190506136ac6000830184613688565b92915050565b6136bb81613461565b81146136c657600080fd5b50565b6000813590506136d8816136b2565b92915050565b6000602082840312156136f4576136f3613129565b5b6000613702848285016136c9565b91505092915050565b60006020828403121561372157613720613129565b5b600061372f84828501613376565b91505092915050565b613741816134f2565b82525050565b600060208201905061375c6000830184613738565b92915050565b61376b816133cb565b811461377657600080fd5b50565b60008135905061378881613762565b92915050565b6000602082840312156137a4576137a3613129565b5b60006137b284828501613779565b91505092915050565b6137c4816131b8565b81146137cf57600080fd5b50565b6000813590506137e1816137bb565b92915050565b600080604083850312156137fe576137fd613129565b5b600061380c85828601613376565b925050602061381d858286016137d2565b9150509250929050565b600080fd5b7f4e487b7100000000000000000000000000000000000000000000000000000000600052604160045260246000fd5b61386482613234565b810181811067ffffffffffffffff821117156138835761388261382c565b5b80604052505050565b600061389661311f565b90506138a2828261385b565b919050565b600067ffffffffffffffff8211156138c2576138c161382c565b5b6138cb82613234565b9050602081019050919050565b82818337600083830152505050565b60006138fa6138f5846138a7565b61388c565b90508281526020810184848401111561391657613915613827565b5b6139218482856138d8565b509392505050565b600082601f83011261393e5761393d61355b565b5b813561394e8482602086016138e7565b91505092915050565b6000806000806080858703121561397157613970613129565b5b600061397f87828801613376565b945050602061399087828801613376565b93505060406139a1878288016132c1565b925050606085013567ffffffffffffffff8111156139c2576139c161312e565b5b6139ce87828801613929565b91505092959194509250565b600080604083850312156139f1576139f0613129565b5b60006139ff85828601613376565b9250506020613a1085828601613376565b9150509250929050565b600067ffffffffffffffff821115613a3557613a3461382c565b5b613a3e82613234565b9050602081019050919050565b6000613a5e613a5984613a1a565b61388c565b905082815260208101848484011115613a7a57613a79613827565b5b613a858482856138d8565b509392505050565b600082601f830112613aa257613aa161355b565b5b8135613ab2848260208601613a4b565b91505092915050565b600060208284031215613ad157613ad0613129565b5b600082013567ffffffffffffffff811115613aef57613aee61312e565b5b613afb84828501613a8d565b91505092915050565b7f4e487b7100000000000000000000000000000000000000000000000000000000600052602260045260246000fd5b60006002820490506001821680613b4b57607f821691505b602082108103613b5e57613b5d613b04565b5b50919050565b60008160601b9050919050565b6000613b7c82613b64565b9050919050565b6000613b8e82613b71565b9050919050565b613ba6613ba182613323565b613b83565b82525050565b6000613bb88284613b95565b60148201915081905092915050565b7f4261736520555249206e6f742073657400000000000000000000000000000000600082015250565b6000613bfd6010836131f9565b9150613c0882613bc7565b602082019050919050565b60006020820190508181036000830152613c2c81613bf0565b9050919050565b600081905092915050565b50565b6000613c4e600083613c33565b9150613c5982613c3e565b600082019050919050565b6000613c6f82613c41565b9150819050919050565b7f5472616e73666572206661696c65640000000000000000000000000000000000600082015250565b6000613caf600f836131f9565b9150613cba82613c79565b602082019050919050565b60006020820190508181036000830152613cde81613ca2565b9050919050565b600081905092915050565b6000613cfb826131ee565b613d058185613ce5565b9350613d1581856020860161320a565b80840191505092915050565b7f68696464656e2e6a736f6e000000000000000000000000000000000000000000600082015250565b6000613d57600b83613ce5565b9150613d6282613d21565b600b82019050919050565b6000613d798284613cf0565b9150613d8482613d4a565b915081905092915050565b7f2e6a736f6e000000000000000000000000000000000000000000000000000000600082015250565b6000613dc5600583613ce5565b9150613dd082613d8f565b600582019050919050565b6000613de78285613cf0565b9150613df38284613cf0565b9150613dfe82613db8565b91508190509392505050565b7f4f776e61626c653a206e6577206f776e657220697320746865207a65726f206160008201527f6464726573730000000000000000000000000000000000000000000000000000602082015250565b6000613e666026836131f9565b9150613e7182613e0a565b604082019050919050565b60006020820190508181036000830152613e9581613e59565b9050919050565b60008190508160005260206000209050919050565b60006020601f8301049050919050565b600082821b905092915050565b600060088302613efe7fffffffffffffffffffffffffffffffffffffffffffffffffffffffffffffffff82613ec1565b613f088683613ec1565b95508019841693508086168417925050509392505050565b6000819050919050565b6000613f45613f40613f3b846132a0565b613f20565b6132a0565b9050919050565b6000819050919050565b613f5f83613f2a565b613f73613f6b82613f4c565b848454613ece565b825550505050565b600090565b613f88613f7b565b613f93818484613f56565b505050565b5b81811015613fb757613fac600082613f80565b600181019050613f99565b5050565b601f821115613ffc57613fcd81613e9c565b613fd684613eb1565b81016020851015613fe5578190505b613ff9613ff185613eb1565b830182613f98565b50505b505050565b600082821c905092915050565b600061401f60001984600802614001565b1980831691505092915050565b6000614038838361400e565b9150826002028217905092915050565b614051826131ee565b67ffffffffffffffff81111561406a5761406961382c565b5b6140748254613b33565b61407f828285613fbb565b600060209050601f8311600181146140b257600084156140a0578287015190505b6140aa858261402c565b865550614112565b601f1984166140c086613e9c565b60005b828110156140e8578489015182556001820191506020850194506020810190506140c3565b868310156141055784890151614101601f89168261400e565b8355505b6001600288020188555050505b505050505050565b60006141268284613cf0565b915081905092915050565b7f4f776e61626c653a2063616c6c6572206973206e6f7420746865206f776e6572600082015250565b60006141676020836131f9565b915061417282614131565b602082019050919050565b600060208201905081810360008301526141968161415a565b9050919050565b7f5265656e7472616e637947756172643a207265656e7472616e742063616c6c00600082015250565b60006141d3601f836131f9565b91506141de8261419d565b602082019050919050565b60006020820190508181036000830152614202816141c6565b9050919050565b600081519050919050565b600082825260208201905092915050565b600061423082614209565b61423a8185614214565b935061424a81856020860161320a565b61425381613234565b840191505092915050565b60006080820190506142736000830187613335565b6142806020830186613335565b61428d6040830185613437565b818103606083015261429f8184614225565b905095945050505050565b6000815190506142b98161315f565b92915050565b6000602082840312156142d5576142d4613129565b5b60006142e3848285016142aa565b91505092915050565b7f4e487b7100000000000000000000000000000000000000000000000000000000600052601260045260246000fd5b7f4e487b7100000000000000000000000000000000000000000000000000000000600052603260045260246000fd5b7f4e487b7100000000000000000000000000000000000000000000000000000000600052601160045260246000fd5b6000614384826132a0565b91507fffffffffffffffffffffffffffffffffffffffffffffffffffffffffffffffff82036143b6576143b561434a565b5b60018201905091905056fea2646970667358221220538a142183677e41266f36b84b4ec43e2a310021cca85057e6f6525827362ce564736f6c63430008120033",
  "linkReferences": {},
  "deployedLinkReferences": {}
}