{
  "_format": "hh-sol-artifact-1",
  "contractName": "WhoIsWho",
  "sourceName": "contracts/WhoIsWho.sol",
  "abi": [
    {
      "inputs": [
        {
          "internalType": "uint256",
          "name": "_price",
          "type": "uint256"
        },
        {
          "internalType": "uint32",
          "name": "_maxTokenPerWallet",
          "type": "uint32"
        },
        {
          "internalType": "uint64",
          "name": "_presaleDate",
          "type": "uint64"
        },
        {
          "internalType": "uint64",
          "name": "_publicSaleDate",
          "type": "uint64"
        },
        {
          "internalType": "uint64",
          "name": "_revealDate",
          "type": "uint64"
        },
        {
          "internalType": "bytes32",
          "name": "_ogMerkleRoot",
          "type": "bytes32"
        },
        {
          "internalType": "bytes32",
          "name": "_wlMerkleRoot",
          "type": "bytes32"
        },
        {
          "internalType": "address[]",
          "name": "_operators",
          "type": "address[]"
        },
        {
          "internalType": "string",
          "name": "_metadataBaseURI",
          "type": "string"
        }
      ],
      "stateMutability": "nonpayable",
      "type": "constructor"
    },
    {
      "inputs": [],
      "name": "ApprovalCallerNotOwnerNorApproved",
      "type": "error"
    },
    {
      "inputs": [],
      "name": "ApprovalQueryForNonexistentToken",
      "type": "error"
    },
    {
      "inputs": [],
      "name": "BalanceQueryForZeroAddress",
      "type": "error"
    },
    {
      "inputs": [],
      "name": "MintERC2309QuantityExceedsLimit",
      "type": "error"
    },
    {
      "inputs": [],
      "name": "MintToZeroAddress",
      "type": "error"
    },
    {
      "inputs": [],
      "name": "MintZeroQuantity",
      "type": "error"
    },
    {
      "inputs": [],
      "name": "OwnerQueryForNonexistentToken",
      "type": "error"
    },
    {
      "inputs": [],
      "name": "OwnershipNotInitializedForExtraData",
      "type": "error"
    },
    {
      "inputs": [],
      "name": "TransferCallerNotOwnerNorApproved",
      "type": "error"
    },
    {
      "inputs": [],
      "name": "TransferFromIncorrectOwner",
      "type": "error"
    },
    {
      "inputs": [],
      "name": "TransferToNonERC721ReceiverImplementer",
      "type": "error"
    },
    {
      "inputs": [],
      "name": "TransferToZeroAddress",
      "type": "error"
    },
    {
      "inputs": [],
      "name": "URIQueryForNonexistentToken",
      "type": "error"
    },
    {
      "inputs": [],
      "name": "WhoIsWho__InsufficientFunds",
      "type": "error"
    },
    {
      "inputs": [],
      "name": "WhoIsWho__InvalidProof",
      "type": "error"
    },
    {
      "inputs": [],
      "name": "WhoIsWho__MaxMint",
      "type": "error"
    },
    {
      "inputs": [],
      "name": "WhoIsWho__NonExistentTokenId",
      "type": "error"
    },
    {
      "inputs": [],
      "name": "WhoIsWho__StageNotReady",
      "type": "error"
    },
    {
      "inputs": [],
      "name": "WhoIsWho__ZeroMintAmount",
      "type": "error"
    },
    {
      "anonymous": false,
      "inputs": [
        {
          "indexed": true,
          "internalType": "address",
          "name": "owner",
          "type": "address"
        },
        {
          "indexed": true,
          "internalType": "address",
          "name": "approved",
          "type": "address"
        },
        {
          "indexed": true,
          "internalType": "uint256",
          "name": "tokenId",
          "type": "uint256"
        }
      ],
      "name": "Approval",
      "type": "event"
    },
    {
      "anonymous": false,
      "inputs": [
        {
          "indexed": true,
          "internalType": "address",
          "name": "owner",
          "type": "address"
        },
        {
          "indexed": true,
          "internalType": "address",
          "name": "operator",
          "type": "address"
        },
        {
          "indexed": false,
          "internalType": "bool",
          "name": "approved",
          "type": "bool"
        }
      ],
      "name": "ApprovalForAll",
      "type": "event"
    },
    {
      "anonymous": false,
      "inputs": [
        {
          "indexed": true,
          "internalType": "address",
          "name": "owner",
          "type": "address"
        },
        {
          "indexed": true,
          "internalType": "uint256",
          "name": "txIndex",
          "type": "uint256"
        }
      ],
      "name": "ConfirmTransaction",
      "type": "event"
    },
    {
      "anonymous": false,
      "inputs": [
        {
          "indexed": true,
          "internalType": "uint256",
          "name": "fromTokenId",
          "type": "uint256"
        },
        {
          "indexed": false,
          "internalType": "uint256",
          "name": "toTokenId",
          "type": "uint256"
        },
        {
          "indexed": true,
          "internalType": "address",
          "name": "from",
          "type": "address"
        },
        {
          "indexed": true,
          "internalType": "address",
          "name": "to",
          "type": "address"
        }
      ],
      "name": "ConsecutiveTransfer",
      "type": "event"
    },
    {
      "anonymous": false,
      "inputs": [
        {
          "indexed": true,
          "internalType": "address",
          "name": "owner",
          "type": "address"
        },
        {
          "indexed": true,
          "internalType": "uint256",
          "name": "txIndex",
          "type": "uint256"
        }
      ],
      "name": "ExecuteTransaction",
      "type": "event"
    },
    {
      "anonymous": false,
      "inputs": [
        {
          "indexed": true,
          "internalType": "address",
          "name": "owner",
          "type": "address"
        },
        {
          "indexed": true,
          "internalType": "uint256",
          "name": "txIndex",
          "type": "uint256"
        }
      ],
      "name": "RevokeConfirmation",
      "type": "event"
    },
    {
      "anonymous": false,
      "inputs": [
        {
          "indexed": true,
          "internalType": "bytes32",
          "name": "role",
          "type": "bytes32"
        },
        {
          "indexed": true,
          "internalType": "bytes32",
          "name": "previousAdminRole",
          "type": "bytes32"
        },
        {
          "indexed": true,
          "internalType": "bytes32",
          "name": "newAdminRole",
          "type": "bytes32"
        }
      ],
      "name": "RoleAdminChanged",
      "type": "event"
    },
    {
      "anonymous": false,
      "inputs": [
        {
          "indexed": true,
          "internalType": "bytes32",
          "name": "role",
          "type": "bytes32"
        },
        {
          "indexed": true,
          "internalType": "address",
          "name": "account",
          "type": "address"
        },
        {
          "indexed": true,
          "internalType": "address",
          "name": "sender",
          "type": "address"
        }
      ],
      "name": "RoleGranted",
      "type": "event"
    },
    {
      "anonymous": false,
      "inputs": [
        {
          "indexed": true,
          "internalType": "bytes32",
          "name": "role",
          "type": "bytes32"
        },
        {
          "indexed": true,
          "internalType": "address",
          "name": "account",
          "type": "address"
        },
        {
          "indexed": true,
          "internalType": "address",
          "name": "sender",
          "type": "address"
        }
      ],
      "name": "RoleRevoked",
      "type": "event"
    },
    {
      "anonymous": false,
      "inputs": [
        {
          "indexed": true,
          "internalType": "uint256",
          "name": "_maxTokenPerWallet",
          "type": "uint256"
        }
      ],
      "name": "SetMaxTokenPerWallet",
      "type": "event"
    },
    {
      "anonymous": false,
      "inputs": [
        {
          "indexed": true,
          "internalType": "string",
          "name": "_uri",
          "type": "string"
        }
      ],
      "name": "SetMetadataBaseURI",
      "type": "event"
    },
    {
      "anonymous": false,
      "inputs": [
        {
          "indexed": true,
          "internalType": "bytes32",
          "name": "_merkleRoot",
          "type": "bytes32"
        }
      ],
      "name": "SetOgMerkleRoot",
      "type": "event"
    },
    {
      "anonymous": false,
      "inputs": [
        {
          "indexed": true,
          "internalType": "uint64",
          "name": "_date",
          "type": "uint64"
        }
      ],
      "name": "SetPresaleDate",
      "type": "event"
    },
    {
      "anonymous": false,
      "inputs": [
        {
          "indexed": true,
          "internalType": "uint256",
          "name": "_price",
          "type": "uint256"
        }
      ],
      "name": "SetPrice",
      "type": "event"
    },
    {
      "anonymous": false,
      "inputs": [
        {
          "indexed": true,
          "internalType": "uint64",
          "name": "_date",
          "type": "uint64"
        }
      ],
      "name": "SetPublicSaleDate",
      "type": "event"
    },
    {
      "anonymous": false,
      "inputs": [
        {
          "indexed": true,
          "internalType": "uint64",
          "name": "_date",
          "type": "uint64"
        }
      ],
      "name": "SetRevealDate",
      "type": "event"
    },
    {
      "anonymous": false,
      "inputs": [
        {
          "indexed": true,
          "internalType": "bytes32",
          "name": "_merkleRoot",
          "type": "bytes32"
        }
      ],
      "name": "SetWlMerkleRoot",
      "type": "event"
    },
    {
      "anonymous": false,
      "inputs": [
        {
          "indexed": true,
          "internalType": "address",
          "name": "owner",
          "type": "address"
        },
        {
          "indexed": true,
          "internalType": "uint256",
          "name": "txIndex",
          "type": "uint256"
        },
        {
          "indexed": true,
          "internalType": "address",
          "name": "to",
          "type": "address"
        },
        {
          "indexed": false,
          "internalType": "uint256",
          "name": "value",
          "type": "uint256"
        },
        {
          "indexed": false,
          "internalType": "bytes",
          "name": "data",
          "type": "bytes"
        }
      ],
      "name": "SubmitTransaction",
      "type": "event"
    },
    {
      "anonymous": false,
      "inputs": [
        {
          "indexed": true,
          "internalType": "address",
          "name": "from",
          "type": "address"
        },
        {
          "indexed": true,
          "internalType": "address",
          "name": "to",
          "type": "address"
        },
        {
          "indexed": true,
          "internalType": "uint256",
          "name": "tokenId",
          "type": "uint256"
        }
      ],
      "name": "Transfer",
      "type": "event"
    },
    {
      "anonymous": false,
      "inputs": [
        {
          "indexed": true,
          "internalType": "uint256",
          "name": "_dateWithdrew",
          "type": "uint256"
        },
        {
          "indexed": false,
          "internalType": "uint256",
          "name": "_amount",
          "type": "uint256"
        }
      ],
      "name": "Withdraw",
      "type": "event"
    },
    {
      "inputs": [],
      "name": "DEFAULT_ADMIN_ROLE",
      "outputs": [
        {
          "internalType": "bytes32",
          "name": "",
          "type": "bytes32"
        }
      ],
      "stateMutability": "view",
      "type": "function"
    },
    {
      "inputs": [],
      "name": "NUM_CONFIRMATIONS_REQUIRED",
      "outputs": [
        {
          "internalType": "uint32",
          "name": "",
          "type": "uint32"
        }
      ],
      "stateMutability": "view",
      "type": "function"
    },
    {
      "inputs": [],
      "name": "OPERATOR_ROLE",
      "outputs": [
        {
          "internalType": "bytes32",
          "name": "",
          "type": "bytes32"
        }
      ],
      "stateMutability": "view",
      "type": "function"
    },
    {
      "inputs": [],
      "name": "PRESALE_INTERVAL",
      "outputs": [
        {
          "internalType": "uint16",
          "name": "",
          "type": "uint16"
        }
      ],
      "stateMutability": "view",
      "type": "function"
    },
    {
      "inputs": [],
      "name": "PRESALE_MAX_TOKEN_PER_OG",
      "outputs": [
        {
          "internalType": "uint16",
          "name": "",
          "type": "uint16"
        }
      ],
      "stateMutability": "view",
      "type": "function"
    },
    {
      "inputs": [],
      "name": "PRESALE_MAX_TOKEN_PER_WL",
      "outputs": [
        {
          "internalType": "uint16",
          "name": "",
          "type": "uint16"
        }
      ],
      "stateMutability": "view",
      "type": "function"
    },
    {
      "inputs": [],
      "name": "PRESALE_PRICE_OG",
      "outputs": [
        {
          "internalType": "uint256",
          "name": "",
          "type": "uint256"
        }
      ],
      "stateMutability": "view",
      "type": "function"
    },
    {
      "inputs": [],
      "name": "PRESALE_PRICE_WL",
      "outputs": [
        {
          "internalType": "uint256",
          "name": "",
          "type": "uint256"
        }
      ],
      "stateMutability": "view",
      "type": "function"
    },
    {
      "inputs": [],
      "name": "RESERVED_TOKENS",
      "outputs": [
        {
          "internalType": "uint16",
          "name": "",
          "type": "uint16"
        }
      ],
      "stateMutability": "view",
      "type": "function"
    },
    {
      "inputs": [],
      "name": "TOTAL_SUPPLY",
      "outputs": [
        {
          "internalType": "uint32",
          "name": "",
          "type": "uint32"
        }
      ],
      "stateMutability": "view",
      "type": "function"
    },
    {
      "inputs": [
        {
          "internalType": "address",
          "name": "to",
          "type": "address"
        },
        {
          "internalType": "uint256",
          "name": "tokenId",
          "type": "uint256"
        }
      ],
      "name": "approve",
      "outputs": [],
      "stateMutability": "payable",
      "type": "function"
    },
    {
      "inputs": [
        {
          "internalType": "uint256",
          "name": "",
          "type": "uint256"
        }
      ],
      "name": "approvers",
      "outputs": [
        {
          "internalType": "address",
          "name": "",
          "type": "address"
        }
      ],
      "stateMutability": "view",
      "type": "function"
    },
    {
      "inputs": [
        {
          "internalType": "address",
          "name": "owner",
          "type": "address"
        }
      ],
      "name": "balanceOf",
      "outputs": [
        {
          "internalType": "uint256",
          "name": "",
          "type": "uint256"
        }
      ],
      "stateMutability": "view",
      "type": "function"
    },
    {
      "inputs": [
        {
          "internalType": "uint256",
          "name": "_txIndex",
          "type": "uint256"
        }
      ],
      "name": "confirmWithdrawTransaction",
      "outputs": [],
      "stateMutability": "nonpayable",
      "type": "function"
    },
    {
      "inputs": [
        {
          "internalType": "uint256",
          "name": "tokenId",
          "type": "uint256"
        }
      ],
      "name": "getApproved",
      "outputs": [
        {
          "internalType": "address",
          "name": "",
          "type": "address"
        }
      ],
      "stateMutability": "view",
      "type": "function"
    },
    {
      "inputs": [],
      "name": "getApprovers",
      "outputs": [
        {
          "internalType": "address[]",
          "name": "",
          "type": "address[]"
        }
      ],
      "stateMutability": "view",
      "type": "function"
    },
    {
      "inputs": [
        {
          "internalType": "bytes32",
          "name": "role",
          "type": "bytes32"
        }
      ],
      "name": "getRoleAdmin",
      "outputs": [
        {
          "internalType": "bytes32",
          "name": "",
          "type": "bytes32"
        }
      ],
      "stateMutability": "view",
      "type": "function"
    },
    {
      "inputs": [],
      "name": "getSaleStage",
      "outputs": [
        {
          "internalType": "enum WhoIsWho.SaleStage",
          "name": "stage",
          "type": "uint8"
        }
      ],
      "stateMutability": "view",
      "type": "function"
    },
    {
      "inputs": [
        {
          "internalType": "uint256",
          "name": "_txIndex",
          "type": "uint256"
        }
      ],
      "name": "getTransaction",
      "outputs": [
        {
          "internalType": "address",
          "name": "to",
          "type": "address"
        },
        {
          "internalType": "uint256",
          "name": "value",
          "type": "uint256"
        },
        {
          "internalType": "bytes",
          "name": "data",
          "type": "bytes"
        },
        {
          "internalType": "bool",
          "name": "executed",
          "type": "bool"
        },
        {
          "internalType": "uint256",
          "name": "numConfirmations",
          "type": "uint256"
        }
      ],
      "stateMutability": "view",
      "type": "function"
    },
    {
      "inputs": [
        {
          "internalType": "bytes32",
          "name": "role",
          "type": "bytes32"
        },
        {
          "internalType": "address",
          "name": "account",
          "type": "address"
        }
      ],
      "name": "grantRole",
      "outputs": [],
      "stateMutability": "nonpayable",
      "type": "function"
    },
    {
      "inputs": [
        {
          "internalType": "bytes32",
          "name": "role",
          "type": "bytes32"
        },
        {
          "internalType": "address",
          "name": "account",
          "type": "address"
        }
      ],
      "name": "hasRole",
      "outputs": [
        {
          "internalType": "bool",
          "name": "",
          "type": "bool"
        }
      ],
      "stateMutability": "view",
      "type": "function"
    },
    {
      "inputs": [
        {
          "internalType": "address",
          "name": "owner",
          "type": "address"
        },
        {
          "internalType": "address",
          "name": "operator",
          "type": "address"
        }
      ],
      "name": "isApprovedForAll",
      "outputs": [
        {
          "internalType": "bool",
          "name": "",
          "type": "bool"
        }
      ],
      "stateMutability": "view",
      "type": "function"
    },
    {
      "inputs": [
        {
          "internalType": "address",
          "name": "",
          "type": "address"
        }
      ],
      "name": "isApprover",
      "outputs": [
        {
          "internalType": "bool",
          "name": "",
          "type": "bool"
        }
      ],
      "stateMutability": "view",
      "type": "function"
    },
    {
      "inputs": [
        {
          "internalType": "uint256",
          "name": "",
          "type": "uint256"
        },
        {
          "internalType": "address",
          "name": "",
          "type": "address"
        }
      ],
      "name": "isConfirmed",
      "outputs": [
        {
          "internalType": "bool",
          "name": "",
          "type": "bool"
        }
      ],
      "stateMutability": "view",
      "type": "function"
    },
    {
      "inputs": [],
      "name": "maxTokenPerWallet",
      "outputs": [
        {
          "internalType": "uint32",
          "name": "",
          "type": "uint32"
        }
      ],
      "stateMutability": "view",
      "type": "function"
    },
    {
      "inputs": [],
      "name": "metadataBaseURI",
      "outputs": [
        {
          "internalType": "string",
          "name": "",
          "type": "string"
        }
      ],
      "stateMutability": "view",
      "type": "function"
    },
    {
      "inputs": [
        {
          "internalType": "address",
          "name": "_recipient",
          "type": "address"
        },
        {
          "internalType": "uint256",
          "name": "_mintAmount",
          "type": "uint256"
        }
      ],
      "name": "mint",
      "outputs": [],
      "stateMutability": "payable",
      "type": "function"
    },
    {
      "inputs": [
        {
          "internalType": "uint256",
          "name": "_mintAmount",
          "type": "uint256"
        }
      ],
      "name": "mint",
      "outputs": [],
      "stateMutability": "payable",
      "type": "function"
    },
    {
      "inputs": [],
      "name": "name",
      "outputs": [
        {
          "internalType": "string",
          "name": "",
          "type": "string"
        }
      ],
      "stateMutability": "view",
      "type": "function"
    },
    {
      "inputs": [],
      "name": "ogMerkleRoot",
      "outputs": [
        {
          "internalType": "bytes32",
          "name": "",
          "type": "bytes32"
        }
      ],
      "stateMutability": "view",
      "type": "function"
    },
    {
      "inputs": [
        {
          "internalType": "uint256",
          "name": "_mintAmount",
          "type": "uint256"
        },
        {
          "internalType": "bytes32[]",
          "name": "_merkleProof",
          "type": "bytes32[]"
        }
      ],
      "name": "ogMint",
      "outputs": [],
      "stateMutability": "payable",
      "type": "function"
    },
    {
      "inputs": [
        {
          "internalType": "uint256",
          "name": "tokenId",
          "type": "uint256"
        }
      ],
      "name": "ownerOf",
      "outputs": [
        {
          "internalType": "address",
          "name": "",
          "type": "address"
        }
      ],
      "stateMutability": "view",
      "type": "function"
    },
    {
      "inputs": [],
      "name": "presaleDate",
      "outputs": [
        {
          "internalType": "uint64",
          "name": "",
          "type": "uint64"
        }
      ],
      "stateMutability": "view",
      "type": "function"
    },
    {
      "inputs": [],
      "name": "price",
      "outputs": [
        {
          "internalType": "uint256",
          "name": "",
          "type": "uint256"
        }
      ],
      "stateMutability": "view",
      "type": "function"
    },
    {
      "inputs": [
        {
          "internalType": "address",
          "name": "",
          "type": "address"
        }
      ],
      "name": "publicSaleBalances",
      "outputs": [
        {
          "internalType": "uint256",
          "name": "",
          "type": "uint256"
        }
      ],
      "stateMutability": "view",
      "type": "function"
    },
    {
      "inputs": [],
      "name": "publicSaleDate",
      "outputs": [
        {
          "internalType": "uint64",
          "name": "",
          "type": "uint64"
        }
      ],
      "stateMutability": "view",
      "type": "function"
    },
    {
      "inputs": [
        {
          "internalType": "bytes32",
          "name": "role",
          "type": "bytes32"
        },
        {
          "internalType": "address",
          "name": "account",
          "type": "address"
        }
      ],
      "name": "renounceRole",
      "outputs": [],
      "stateMutability": "nonpayable",
      "type": "function"
    },
    {
      "inputs": [],
      "name": "revealDate",
      "outputs": [
        {
          "internalType": "uint64",
          "name": "",
          "type": "uint64"
        }
      ],
      "stateMutability": "view",
      "type": "function"
    },
    {
      "inputs": [
        {
          "internalType": "uint256",
          "name": "_txIndex",
          "type": "uint256"
        }
      ],
      "name": "revokeConfirmation",
      "outputs": [],
      "stateMutability": "nonpayable",
      "type": "function"
    },
    {
      "inputs": [
        {
          "internalType": "bytes32",
          "name": "role",
          "type": "bytes32"
        },
        {
          "internalType": "address",
          "name": "account",
          "type": "address"
        }
      ],
      "name": "revokeRole",
      "outputs": [],
      "stateMutability": "nonpayable",
      "type": "function"
    },
    {
      "inputs": [
        {
          "internalType": "address",
          "name": "from",
          "type": "address"
        },
        {
          "internalType": "address",
          "name": "to",
          "type": "address"
        },
        {
          "internalType": "uint256",
          "name": "tokenId",
          "type": "uint256"
        }
      ],
      "name": "safeTransferFrom",
      "outputs": [],
      "stateMutability": "payable",
      "type": "function"
    },
    {
      "inputs": [
        {
          "internalType": "address",
          "name": "from",
          "type": "address"
        },
        {
          "internalType": "address",
          "name": "to",
          "type": "address"
        },
        {
          "internalType": "uint256",
          "name": "tokenId",
          "type": "uint256"
        },
        {
          "internalType": "bytes",
          "name": "_data",
          "type": "bytes"
        }
      ],
      "name": "safeTransferFrom",
      "outputs": [],
      "stateMutability": "payable",
      "type": "function"
    },
    {
      "inputs": [
        {
          "internalType": "address",
          "name": "operator",
          "type": "address"
        },
        {
          "internalType": "bool",
          "name": "approved",
          "type": "bool"
        }
      ],
      "name": "setApprovalForAll",
      "outputs": [],
      "stateMutability": "nonpayable",
      "type": "function"
    },
    {
      "inputs": [
        {
          "internalType": "uint32",
          "name": "_maxTokenPerWallet",
          "type": "uint32"
        }
      ],
      "name": "setMaxTokenPerWallet",
      "outputs": [],
      "stateMutability": "nonpayable",
      "type": "function"
    },
    {
      "inputs": [
        {
          "internalType": "string",
          "name": "_uri",
          "type": "string"
        }
      ],
      "name": "setMetadataBaseURI",
      "outputs": [],
      "stateMutability": "nonpayable",
      "type": "function"
    },
    {
      "inputs": [
        {
          "internalType": "bytes32",
          "name": "_merkleRoot",
          "type": "bytes32"
        }
      ],
      "name": "setOgMerkleRoot",
      "outputs": [],
      "stateMutability": "nonpayable",
      "type": "function"
    },
    {
      "inputs": [
        {
          "internalType": "uint64",
          "name": "_date",
          "type": "uint64"
        }
      ],
      "name": "setPresaleDate",
      "outputs": [],
      "stateMutability": "nonpayable",
      "type": "function"
    },
    {
      "inputs": [
        {
          "internalType": "uint256",
          "name": "_price",
          "type": "uint256"
        }
      ],
      "name": "setPrice",
      "outputs": [],
      "stateMutability": "nonpayable",
      "type": "function"
    },
    {
      "inputs": [
        {
          "internalType": "uint64",
          "name": "_date",
          "type": "uint64"
        }
      ],
      "name": "setPublicSaleDate",
      "outputs": [],
      "stateMutability": "nonpayable",
      "type": "function"
    },
    {
      "inputs": [
        {
          "internalType": "uint64",
          "name": "_date",
          "type": "uint64"
        }
      ],
      "name": "setRevealDate",
      "outputs": [],
      "stateMutability": "nonpayable",
      "type": "function"
    },
    {
      "inputs": [
        {
          "internalType": "bytes32",
          "name": "_merkleRoot",
          "type": "bytes32"
        }
      ],
      "name": "setWlMerkleRoot",
      "outputs": [],
      "stateMutability": "nonpayable",
      "type": "function"
    },
    {
      "inputs": [
        {
          "internalType": "address",
          "name": "_to",
          "type": "address"
        },
        {
          "internalType": "uint256",
          "name": "_value",
          "type": "uint256"
        },
        {
          "internalType": "bytes",
          "name": "_data",
          "type": "bytes"
        }
      ],
      "name": "submitWithdrawTransaction",
      "outputs": [],
      "stateMutability": "nonpayable",
      "type": "function"
    },
    {
      "inputs": [
        {
          "internalType": "bytes4",
          "name": "interfaceId",
          "type": "bytes4"
        }
      ],
      "name": "supportsInterface",
      "outputs": [
        {
          "internalType": "bool",
          "name": "",
          "type": "bool"
        }
      ],
      "stateMutability": "view",
      "type": "function"
    },
    {
      "inputs": [],
      "name": "symbol",
      "outputs": [
        {
          "internalType": "string",
          "name": "",
          "type": "string"
        }
      ],
      "stateMutability": "view",
      "type": "function"
    },
    {
      "inputs": [
        {
          "internalType": "uint256",
          "name": "_tokenId",
          "type": "uint256"
        }
      ],
      "name": "tokenURI",
      "outputs": [
        {
          "internalType": "string",
          "name": "",
          "type": "string"
        }
      ],
      "stateMutability": "view",
      "type": "function"
    },
    {
      "inputs": [],
      "name": "totalSupply",
      "outputs": [
        {
          "internalType": "uint256",
          "name": "",
          "type": "uint256"
        }
      ],
      "stateMutability": "view",
      "type": "function"
    },
    {
      "inputs": [
        {
          "internalType": "uint256",
          "name": "",
          "type": "uint256"
        }
      ],
      "name": "transactions",
      "outputs": [
        {
          "internalType": "address",
          "name": "to",
          "type": "address"
        },
        {
          "internalType": "uint256",
          "name": "value",
          "type": "uint256"
        },
        {
          "internalType": "bytes",
          "name": "data",
          "type": "bytes"
        },
        {
          "internalType": "bool",
          "name": "executed",
          "type": "bool"
        },
        {
          "internalType": "uint256",
          "name": "numConfirmations",
          "type": "uint256"
        }
      ],
      "stateMutability": "view",
      "type": "function"
    },
    {
      "inputs": [
        {
          "internalType": "address",
          "name": "from",
          "type": "address"
        },
        {
          "internalType": "address",
          "name": "to",
          "type": "address"
        },
        {
          "internalType": "uint256",
          "name": "tokenId",
          "type": "uint256"
        }
      ],
      "name": "transferFrom",
      "outputs": [],
      "stateMutability": "payable",
      "type": "function"
    },
    {
      "inputs": [
        {
          "internalType": "uint256",
          "name": "_txIndex",
          "type": "uint256"
        }
      ],
      "name": "withdraw",
      "outputs": [],
      "stateMutability": "nonpayable",
      "type": "function"
    },
    {
      "inputs": [],
      "name": "wlMerkleRoot",
      "outputs": [
        {
          "internalType": "bytes32",
          "name": "",
          "type": "bytes32"
        }
      ],
      "stateMutability": "view",
      "type": "function"
    },
    {
      "inputs": [
        {
          "internalType": "uint256",
          "name": "_mintAmount",
          "type": "uint256"
        },
        {
          "internalType": "bytes32[]",
          "name": "_merkleProof",
          "type": "bytes32[]"
        }
      ],
      "name": "wlMint",
      "outputs": [],
      "stateMutability": "payable",
      "type": "function"
    }
  ],
  "bytecode": "0x60806040523480156200001157600080fd5b506040516200450c3803806200450c83398101604081905262000034916200082a565b816040518060400160405280600a81526020016957686f2049732057686f60b01b8152506040518060400160405280600881526020016757686f497357686f60c01b81525081600290816200008a919062000996565b50600362000099828262000996565b506000805550508051620000e65760405162461bcd60e51b815260206004820152600f60248201526e1bdddb995c9cc81c995c5d5a5c9959608a1b60448201526064015b60405180910390fd5b60005b81518110156200024f5760008282815181106200010a576200010a62000a62565b6020026020010151905060006001600160a01b0316816001600160a01b0316036200016b5760405162461bcd60e51b815260206004820152601060248201526f34b73b30b634b21030b8383937bb32b960811b6044820152606401620000dd565b6001600160a01b0381166000908152600b602052604090205460ff1615620001d65760405162461bcd60e51b815260206004820152601360248201527f617070726f766572206e6f7420756e69717565000000000000000000000000006044820152606401620000dd565b6001600160a01b03166000818152600b60205260408120805460ff191660019081179091556009805491820181559091527f6e1540171b6c0c960b71a7020d9f60077f6af931a8bbf590da0223dacf75c7af0180546001600160a01b031916909117905580620002468162000a78565b915050620000e9565b50506001600d55600e899055600f805463ffffffff60c01b1916600160c01b63ffffffff8b160217905560108490556011839055601262000291828262000996565b50600f80546001600160401b038981166001600160801b031990921691909117680100000000000000008983160217600160801b600160c01b031916600160801b91881691909102179055620002e960003362000380565b62000304600080516020620044cc8339815191523362000380565b60005b825181101562000363576200034e600080516020620044cc8339815191528483815181106200033a576200033a62000a62565b60200260200101516200038060201b60201c565b806200035a8162000a78565b91505062000307565b506200037133603262000425565b50505050505050505062000b29565b6000828152600c602090815260408083206001600160a01b038516845290915290205460ff1662000421576000828152600c602090815260408083206001600160a01b03851684529091529020805460ff19166001179055620003e03390565b6001600160a01b0316816001600160a01b0316837f2f8788117e7eff1d82e926ec794901d17c78024a50270940304540a733656f0d60405160405180910390a45b5050565b620004218282604051806020016040528060008152506200044760201b60201c565b620004538383620004be565b6001600160a01b0383163b15620004b9576000548281035b600181019062000481906000908790866200059e565b6200049f576040516368d2bf6b60e11b815260040160405180910390fd5b8181106200046b578160005414620004b657600080fd5b50505b505050565b6000805490829003620004e45760405163b562e8dd60e01b815260040160405180910390fd5b6001600160a01b03831660008181526005602090815260408083208054680100000000000000018802019055848352600490915281206001851460e11b4260a01b17831790558284019083908390600080516020620044ec8339815191528180a4600183015b818114620005735780836000600080516020620044ec833981519152600080a46001016200054a565b50816000036200059557604051622e076360e81b815260040160405180910390fd5b60005550505050565b604051630a85bd0160e11b81526000906001600160a01b0385169063150b7a0290620005d590339089908890889060040162000aa0565b6020604051808303816000875af192505050801562000613575060408051601f3d908101601f19168201909252620006109181019062000af6565b60015b62000675573d80801562000644576040519150601f19603f3d011682016040523d82523d6000602084013e62000649565b606091505b5080516000036200066d576040516368d2bf6b60e11b815260040160405180910390fd5b805181602001fd5b6001600160e01b031916630a85bd0160e11b1490505b949350505050565b80516001600160401b0381168114620006ab57600080fd5b919050565b634e487b7160e01b600052604160045260246000fd5b604051601f8201601f191681016001600160401b0381118282101715620006f157620006f1620006b0565b604052919050565b600082601f8301126200070b57600080fd5b815160206001600160401b03821115620007295762000729620006b0565b8160051b6200073a828201620006c6565b92835284810182019282810190878511156200075557600080fd5b83870192505b848310156200078d5782516001600160a01b03811681146200077d5760008081fd5b825291830191908301906200075b565b979650505050505050565b60005b83811015620007b55781810151838201526020016200079b565b50506000910152565b600082601f830112620007d057600080fd5b81516001600160401b03811115620007ec57620007ec620006b0565b62000801601f8201601f1916602001620006c6565b8181528460208386010111156200081757600080fd5b6200068b82602083016020870162000798565b60008060008060008060008060006101208a8c0312156200084a57600080fd5b8951985060208a015163ffffffff811681146200086657600080fd5b97506200087660408b0162000693565b96506200088660608b0162000693565b95506200089660808b0162000693565b60a08b015160c08c015160e08d015192975090955093506001600160401b0380821115620008c357600080fd5b620008d18d838e01620006f9565b93506101008c0151915080821115620008e957600080fd5b50620008f88c828d01620007be565b9150509295985092959850929598565b600181811c908216806200091d57607f821691505b6020821081036200093e57634e487b7160e01b600052602260045260246000fd5b50919050565b601f821115620004b957600081815260208120601f850160051c810160208610156200096d5750805b601f850160051c820191505b818110156200098e5782815560010162000979565b505050505050565b81516001600160401b03811115620009b257620009b2620006b0565b620009ca81620009c3845462000908565b8462000944565b602080601f83116001811462000a025760008415620009e95750858301515b600019600386901b1c1916600185901b1785556200098e565b600085815260208120601f198616915b8281101562000a335788860151825594840194600190910190840162000a12565b508582101562000a525787850151600019600388901b60f8161c191681555b5050505050600190811b01905550565b634e487b7160e01b600052603260045260246000fd5b60006001820162000a9957634e487b7160e01b600052601160045260246000fd5b5060010190565b600060018060a01b03808716835280861660208401525083604083015260806060830152825180608084015262000adf8160a085016020870162000798565b601f01601f19169190910160a00195945050505050565b60006020828403121562000b0957600080fd5b81516001600160e01b03198116811462000b2257600080fd5b9392505050565b6139938062000b396000396000f3fe6080604052600436106103a25760003560e01c80636cb3e8ef116101e7578063a217fddf1161010d578063d547741f116100a0578063ef170ce81161006f578063ef170ce814610ad6578063f5b541a614610af6578063fb94bd8a14610b18578063fc530d5814610b3857600080fd5b8063d547741f14610a26578063d8a7ab8914610a46578063e985e9c514610a66578063eced387314610aaf57600080fd5b8063c889004b116100dc578063c889004b146109b9578063cb2b85f7146106f2578063d3650fb8146109d9578063d39f0a26146109f957600080fd5b8063a217fddf14610951578063a22cb46514610966578063b88d4fde14610986578063c87b56dd1461099957600080fd5b806391b7f5ed116101855780639ace38c2116101545780639ace38c2146108f35780639f3d1a2a14610913578063a035b1fe14610928578063a0712d681461093e57600080fd5b806391b7f5ed1461087e57806391d148541461089e57806395d89b41146108be57806396cea3f7146108d357600080fd5b80637a8baf52116101c15780637a8baf52146107d457806380f59a651461080d5780638ac1e16114610848578063902d55a51461086857600080fd5b80636cb3e8ef146107625780636d218e481461078457806370a08231146107b457600080fd5b80632f2ff15d116102cc5780634a4d1cce1161026a57806360b119731161023957806360b11973146106f257806361e515cb1461070d5780636352211e1461072d57806368fc68c71461074d57600080fd5b80634a4d1cce1461069157806354c06aee146106a65780635f0bc29a146106bc5780635ff96560146106dc57600080fd5b80633ef0d36d116102a65780633ef0d36d1461063657806340c10f191461064957806342842e0e1461065c57806345c16a221461066f57600080fd5b80632f2ff15d146105c557806333ea3dc8146105e557806336568abe1461061657600080fd5b806318160ddd11610344578063248a9ca311610313578063248a9ca31461054257806325cfa09a146105725780632b314dc6146105925780632e1a7d4d146105a557600080fd5b806318160ddd146104b75780631e08a9e4146104d057806320ea8d861461050f57806323b872dd1461052f57600080fd5b8063095ea7b311610380578063095ea7b3146104365780630a3025301461044b5780630c1e3fd41461046f5780630e106df81461048f57600080fd5b806301ffc9a7146103a757806306fdde03146103dc578063081812fc146103fe575b600080fd5b3480156103b357600080fd5b506103c76103c2366004613007565b610b4d565b60405190151581526020015b60405180910390f35b3480156103e857600080fd5b506103f1610b5e565b6040516103d39190613074565b34801561040a57600080fd5b5061041e610419366004613087565b610bf0565b6040516001600160a01b0390911681526020016103d3565b6104496104443660046130bc565b610c34565b005b34801561045757600080fd5b5061046160105481565b6040519081526020016103d3565b34801561047b57600080fd5b5061044961048a366004613191565b610cd4565b34801561049b57600080fd5b506104a4600381565b60405161ffff90911681526020016103d3565b3480156104c357600080fd5b5060015460005403610461565b3480156104dc57600080fd5b50600f546104f790600160801b90046001600160401b031681565b6040516001600160401b0390911681526020016103d3565b34801561051b57600080fd5b5061044961052a366004613087565b610d4f565b61044961053d3660046131e7565b610dc6565b34801561054e57600080fd5b5061046161055d366004613087565b6000908152600c602052604090206001015490565b34801561057e57600080fd5b5061044961058d366004613223565b610f5b565b6104496105a0366004613249565b610fc4565b3480156105b157600080fd5b506104496105c0366004613087565b6111b3565b3480156105d157600080fd5b506104496105e03660046132c7565b611280565b3480156105f157600080fd5b50610605610600366004613087565b6112a5565b6040516103d39594939291906132f3565b34801561062257600080fd5b506104496106313660046132c7565b6113a0565b610449610644366004613249565b61141e565b6104496106573660046130bc565b6115ce565b61044961066a3660046131e7565b6115f0565b34801561067b57600080fd5b5061068461160b565b6040516103d39190613344565b34801561069d57600080fd5b506104a4600281565b3480156106b257600080fd5b5061046160115481565b3480156106c857600080fd5b506104496106d736600461336c565b611679565b3480156106e857600080fd5b506104a461038481565b3480156106fe57600080fd5b506104616658d15e1762800081565b34801561071957600080fd5b5061044961072836600461336c565b6116e9565b34801561073957600080fd5b5061041e610748366004613087565b61179e565b34801561075957600080fd5b506104a4603281565b34801561076e57600080fd5b506107776117a9565b6040516103d39190613395565b34801561079057600080fd5b506103c761079f3660046133e2565b600b6020526000908152604090205460ff1681565b3480156107c057600080fd5b506104616107cf3660046133e2565b61180a565b3480156107e057600080fd5b50600f546107f890600160c01b900463ffffffff1681565b60405163ffffffff90911681526020016103d3565b34801561081957600080fd5b506103c76108283660046132c7565b600a60209081526000928352604080842090915290825290205460ff1681565b34801561085457600080fd5b50610449610863366004613087565b611858565b34801561087457600080fd5b506107f861138881565b34801561088a57600080fd5b50610449610899366004613087565b6118f5565b3480156108aa57600080fd5b506103c76108b93660046132c7565b611941565b3480156108ca57600080fd5b506103f161196c565b3480156108df57600080fd5b506104496108ee366004613087565b61197b565b3480156108ff57600080fd5b5061060561090e366004613087565b6119ec565b34801561091f57600080fd5b506103f1611ac5565b34801561093457600080fd5b50610461600e5481565b61044961094c366004613087565b611b53565b34801561095d57600080fd5b50610461600081565b34801561097257600080fd5b506104496109813660046133fd565b611cf2565b610449610994366004613439565b611d5e565b3480156109a557600080fd5b506103f16109b4366004613087565b611da2565b3480156109c557600080fd5b50600f546104f7906001600160401b031681565b3480156109e557600080fd5b5061041e6109f4366004613087565b611e4d565b348015610a0557600080fd5b50610461610a143660046133e2565b60136020526000908152604090205481565b348015610a3257600080fd5b50610449610a413660046132c7565b611e77565b348015610a5257600080fd5b50610449610a61366004613087565b611e9c565b348015610a7257600080fd5b506103c7610a813660046134a0565b6001600160a01b03918216600090815260076020908152604080832093909416825291909152205460ff1690565b348015610abb57600080fd5b50600f546104f790600160401b90046001600160401b031681565b348015610ae257600080fd5b50610449610af136600461336c565b611f39565b348015610b0257600080fd5b5061046160008051602061393e83398151915281565b348015610b2457600080fd5b50610449610b333660046134ca565b611fff565b348015610b4457600080fd5b506107f8600381565b6000610b5882612066565b92915050565b606060028054610b6d90613512565b80601f0160208091040260200160405190810160405280929190818152602001828054610b9990613512565b8015610be65780601f10610bbb57610100808354040283529160200191610be6565b820191906000526020600020905b815481529060010190602001808311610bc957829003601f168201915b5050505050905090565b6000610bfb8261209b565b610c18576040516333d1c03960e21b815260040160405180910390fd5b506000908152600660205260409020546001600160a01b031690565b6000610c3f8261179e565b9050336001600160a01b03821614610c7857610c5b8133610a81565b610c78576040516367d9dca160e11b815260040160405180910390fd5b60008281526006602052604080822080546001600160a01b0319166001600160a01b0387811691821790925591518593918516917f8c5be1e5ebec7d5bd14f71427d1e84f3dd0314c0f7b2291e5b200ac8c7c3b92591a4505050565b60008051602061393e833981519152610cec816120c2565b60036000610cf861160b565b9050816003811115610d0c57610d0c61332e565b816003811115610d1e57610d1e61332e565b14610d3c576040516379906ae360e01b815260040160405180910390fd5b610d478686866120cc565b505050505050565b60008051602061393e833981519152610d67816120c2565b60036000610d7361160b565b9050816003811115610d8757610d8761332e565b816003811115610d9957610d9961332e565b14610db7576040516379906ae360e01b815260040160405180910390fd5b610dc084612251565b50505050565b6000610dd1826123e7565b9050836001600160a01b0316816001600160a01b031614610e045760405162a1148160e81b815260040160405180910390fd5b60008281526006602052604090208054338082146001600160a01b03881690911417610e5157610e348633610a81565b610e5157604051632ce44b5f60e11b815260040160405180910390fd5b6001600160a01b038516610e7857604051633a954ecd60e21b815260040160405180910390fd5b8015610e8357600082555b6001600160a01b038681166000908152600560205260408082208054600019019055918716808252919020805460010190554260a01b17600160e11b17600085815260046020526040812091909155600160e11b84169003610f1557600184016000818152600460205260408120549003610f13576000548114610f135760008181526004602052604090208490555b505b83856001600160a01b0316876001600160a01b03167fddf252ad1be2c89b69c2b068fc378daa952ba7f163c4a11628f55a4df523b3ef60405160405180910390a4610d47565b60008051602061393e833981519152610f73816120c2565b600f805463ffffffff60c01b1916600160c01b63ffffffff8516908102919091179091556040517f8951dedc3a995b3334032076b7e0b1e1d8e8b5081e37e8dd00ac9a2e627df0ef90600090a25050565b610fcc612455565b60016000610fd861160b565b9050816003811115610fec57610fec61332e565b816003811115610ffe57610ffe61332e565b1461101c576040516379906ae360e01b815260040160405180910390fd5b846003808211156110405760405163b812c96d60e01b815260040160405180910390fd5b816000036110615760405163223702e760e01b815260040160405180910390fd5b6000826110716001546000540390565b0190506113888111156110975760405163b812c96d60e01b815260040160405180910390fd5b508660036000826110a73361180a565b019050818111156110cb5760405163b812c96d60e01b815260040160405180910390fd5b50886658d15e17628000808202348111156110f9576040516330be9fa160e21b815260040160405180910390fd5b506040516bffffffffffffffffffffffff193360601b1660208201526000906034016040516020818303038152906040528051906020012090506111748b8b808060200260200160405190810160405280939291908181526020018383602002808284376000920191909152505060105491508490506124ae565b61119157604051630a63195760e31b815260040160405180910390fd5b61119b338d6124c4565b5050505050505050506111ae6001600d55565b505050565b60008051602061393e8339815191526111cb816120c2565b600360006111d761160b565b90508160038111156111eb576111eb61332e565b8160038111156111fd576111fd61332e565b1461121b576040516379906ae360e01b815260040160405180910390fd5b60006112256124de565b905060008151116112705760405162461bcd60e51b815260206004820152601060248201526f10985cd948155492481b9bdd081cd95d60821b60448201526064015b60405180910390fd5b611279856124ed565b5050505050565b6000828152600c602052604090206001015461129b816120c2565b6111ae83836126ea565b60008060606000806000600887815481106112c2576112c261354c565b6000918252602090912060059091020180546001820154600383015460048401546002850180549596506001600160a01b039094169492939260ff90921691839061130c90613512565b80601f016020809104026020016040519081016040528092919081815260200182805461133890613512565b80156113855780601f1061135a57610100808354040283529160200191611385565b820191906000526020600020905b81548152906001019060200180831161136857829003601f168201915b50505050509250955095509550955095505091939590929450565b6001600160a01b03811633146114105760405162461bcd60e51b815260206004820152602f60248201527f416363657373436f6e74726f6c3a2063616e206f6e6c792072656e6f756e636560448201526e103937b632b9903337b91039b2b63360891b6064820152608401611267565b61141a8282612770565b5050565b611426612455565b6002600061143261160b565b90508160038111156114465761144661332e565b8160038111156114585761145861332e565b14611476576040516379906ae360e01b815260040160405180910390fd5b8460028082111561149a5760405163b812c96d60e01b815260040160405180910390fd5b816000036114bb5760405163223702e760e01b815260040160405180910390fd5b6000826114cb6001546000540390565b0190506113888111156114f15760405163b812c96d60e01b815260040160405180910390fd5b508660026000826115013361180a565b019050818111156115255760405163b812c96d60e01b815260040160405180910390fd5b50886658d15e1762800080820234811115611553576040516330be9fa160e21b815260040160405180910390fd5b506040516bffffffffffffffffffffffff193360601b1660208201526000906034016040516020818303038152906040528051906020012090506111748b8b808060200260200160405190810160405280939291908181526020018383602002808284376000920191909152505060115491508490506124ae565b60008051602061393e8339815191526115e6816120c2565b6111ae83836124c4565b6111ae83838360405180602001604052806000815250611d5e565b600f546000904290600160401b90046001600160401b0316811061163157600391505090565b600f546001600160401b039081166103840190811682106116555760029250505090565b600f546001600160401b031682106116705760019250505090565b60009250505090565b60008051602061393e833981519152611691816120c2565b600f805467ffffffffffffffff60801b1916600160801b6001600160401b038516908102919091179091556040517f7a767a471a01b44c40aeb36e0e53fdb3ba974aa9673919403eb099940f6a72c790600090a25050565b60008051602061393e833981519152611701816120c2565b60008061170c61160b565b90508160038111156117205761172061332e565b8160038111156117325761173261332e565b14611750576040516379906ae360e01b815260040160405180910390fd5b600f805467ffffffffffffffff19166001600160401b0386169081179091556040517f72870c674641393bb011154451c8ba6cc86adfbc0c2095902b7b8dc2538221c990600090a250505050565b6000610b58826123e7565b60606009805480602002602001604051908101604052809291908181526020018280548015610be657602002820191906000526020600020905b81546001600160a01b031681526001909101906020018083116117e3575050505050905090565b60006001600160a01b038216611833576040516323d3ad8160e21b815260040160405180910390fd5b506001600160a01b03166000908152600560205260409020546001600160401b031690565b60008051602061393e833981519152611870816120c2565b60008061187b61160b565b905081600381111561188f5761188f61332e565b8160038111156118a1576118a161332e565b146118bf576040516379906ae360e01b815260040160405180910390fd5b601184905560405184907ffa1eb369f88e457de4be2ecd60a5d9a75c82674a0fadc0f66fef46762230d95a90600090a250505050565b60008051602061393e83398151915261190d816120c2565b600e82905560405182907f4f5539c0409dfc4cb06f64cbd31237e1fbfe443f531584bf4dd77ec7fc5ba7b190600090a25050565b6000918252600c602090815260408084206001600160a01b0393909316845291905290205460ff1690565b606060038054610b6d90613512565b60008051602061393e833981519152611993816120c2565b6003600061199f61160b565b90508160038111156119b3576119b361332e565b8160038111156119c5576119c561332e565b146119e3576040516379906ae360e01b815260040160405180910390fd5b610dc0846127d7565b600881815481106119fc57600080fd5b60009182526020909120600590910201805460018201546002830180546001600160a01b039093169450909291611a3290613512565b80601f0160208091040260200160405190810160405280929190818152602001828054611a5e90613512565b8015611aab5780601f10611a8057610100808354040283529160200191611aab565b820191906000526020600020905b815481529060010190602001808311611a8e57829003601f168201915b505050506003830154600490930154919260ff1691905085565b60128054611ad290613512565b80601f0160208091040260200160405190810160405280929190818152602001828054611afe90613512565b8015611b4b5780601f10611b2057610100808354040283529160200191611b4b565b820191906000526020600020905b815481529060010190602001808311611b2e57829003601f168201915b505050505081565b611b5b612455565b60036000611b6761160b565b9050816003811115611b7b57611b7b61332e565b816003811115611b8d57611b8d61332e565b14611bab576040516379906ae360e01b815260040160405180910390fd5b600f548390600160c01b900463ffffffff1680821115611bde5760405163b812c96d60e01b815260040160405180910390fd5b81600003611bff5760405163223702e760e01b815260040160405180910390fd5b600082611c0f6001546000540390565b019050611388811115611c355760405163b812c96d60e01b815260040160405180910390fd5b5033600090815260136020526040902054600f548691820190600160c01b900463ffffffff16811115611c7b5760405163b812c96d60e01b815260040160405180910390fd5b50600e54869080820234811115611ca5576040516330be9fa160e21b815260040160405180910390fd5b5033600090815260136020526040902054611cc1908990613578565b33600081815260136020526040902091909155611cde90896124c4565b50505050505050611cef6001600d55565b50565b3360008181526007602090815260408083206001600160a01b03871680855290835292819020805460ff191686151590811790915590519081529192917f17307eab39ab6107e8899845ad3d59bd9653f200f220920489ca2b5937696c31910160405180910390a35050565b611d69848484610dc6565b6001600160a01b0383163b15610dc057611d8584848484612965565b610dc0576040516368d2bf6b60e11b815260040160405180910390fd5b6060611dad8261209b565b611dca57604051634835164360e11b815260040160405180910390fd5b600f54600160801b90046001600160401b03908116429091161015611df157610b58612a51565b6000611dfb6124de565b805190915015611e375780611e0f84612aa1565b604051602001611e2092919061358b565b604051602081830303815290604052915050919050565b5050604080516020810190915260008152919050565b60098181548110611e5d57600080fd5b6000918252602090912001546001600160a01b0316905081565b6000828152600c6020526040902060010154611e92816120c2565b6111ae8383612770565b60008051602061393e833981519152611eb4816120c2565b600080611ebf61160b565b9050816003811115611ed357611ed361332e565b816003811115611ee557611ee561332e565b14611f03576040516379906ae360e01b815260040160405180910390fd5b601084905560405184907f324a2e035a8e8a295d32af0321d28bbb4523b2eb5482d0ead7a3b1e0559b3e0a90600090a250505050565b60008051602061393e833981519152611f51816120c2565b600080611f5c61160b565b9050816003811115611f7057611f7061332e565b816003811115611f8257611f8261332e565b14611fa0576040516379906ae360e01b815260040160405180910390fd5b600f80546fffffffffffffffff00000000000000001916600160401b6001600160401b038716908102919091179091556040517f8227d65ab5dd51383d2ecfffbdaff8d40e1efc4339f887d26c556ad741ab89df90600090a250505050565b60008051602061393e833981519152612017816120c2565b60126120238382613610565b508160405161203291906136cf565b604051908190038120907f8f124c4ac94494868eafaa446b739570c7d5b809ab27b5651aaa9c69f4997ec990600090a25050565b60006001600160e01b03198216637965db0b60e01b1480610b5857506301ffc9a760e01b6001600160e01b0319831614610b58565b6000805482108015610b58575050600090815260046020526040902054600160e01b161590565b611cef8133612b33565b336000908152600b602052604090205460ff166120fb5760405162461bcd60e51b8152600401611267906136eb565b600880546040805160a0810182526001600160a01b03878116825260208201878152928201868152600060608401819052608084018190526001860187559590955281517ff3f7a9fe364faab93b216da50a3214154f22a0a2b415b23a84c8169e8b636ee36005860290810180546001600160a01b0319169290931691909117825592517ff3f7a9fe364faab93b216da50a3214154f22a0a2b415b23a84c8169e8b636ee484015593519293909290917ff3f7a9fe364faab93b216da50a3214154f22a0a2b415b23a84c8169e8b636ee501906121d89082613610565b50606082015160038201805460ff19169115159190911790556080909101516004909101556001600160a01b03841681336001600160a01b03167fd5a05bf70715ad82a09a756320284a1b54c9ff74cd0f8cce6219e79b563fe59d8686604051612243929190613711565b60405180910390a450505050565b336000908152600b602052604090205460ff166122805760405162461bcd60e51b8152600401611267906136eb565b600854819081106122a35760405162461bcd60e51b81526004016112679061372a565b81600881815481106122b7576122b761354c565b600091825260209091206003600590920201015460ff16156122eb5760405162461bcd60e51b815260040161126790613755565b6000600884815481106123005761230061354c565b60009182526020808320878452600a909152604083206005909202019250906123263390565b6001600160a01b0316815260208101919091526040016000205460ff166123825760405162461bcd60e51b815260206004820152601060248201526f1d1e081b9bdd0818dbdb999a5c9b595960821b6044820152606401611267565b60048101805490600061239483613782565b90915550506000848152600a60209081526040808320338085529252808320805460ff191690555186927ff0dca620e2e81f7841d07bcc105e1704fb01475b278a9d4c236e1c62945edd5591a350505050565b60008160005481101561243c5760008181526004602052604081205490600160e01b8216900361243a575b80600003612433575060001901600081815260046020526040902054612412565b9392505050565b505b604051636f96cda160e11b815260040160405180910390fd5b6002600d54036124a75760405162461bcd60e51b815260206004820152601f60248201527f5265656e7472616e637947756172643a207265656e7472616e742063616c6c006044820152606401611267565b6002600d55565b6000826124bb8584612b8c565b14949350505050565b61141a828260405180602001604052806000815250612bd9565b606060128054610b6d90613512565b336000908152600b602052604090205460ff1661251c5760405162461bcd60e51b8152600401611267906136eb565b6008548190811061253f5760405162461bcd60e51b81526004016112679061372a565b81600881815481106125535761255361354c565b600091825260209091206003600590920201015460ff16156125875760405162461bcd60e51b815260040161126790613755565b60006008848154811061259c5761259c61354c565b90600052602060002090600502019050600363ffffffff16816004015410156125fa5760405162461bcd60e51b815260206004820152601060248201526f74782063616e2774206578656375746560801b6044820152606401611267565b60038101805460ff191660019081179091558154908201546040516000926001600160a01b03169190612631906002860190613799565b60006040518083038185875af1925050503d806000811461266e576040519150601f19603f3d011682016040523d82523d6000602084013e612673565b606091505b50509050806126b65760405162461bcd60e51b815260206004820152600f60248201526e1d1c985b9cd9995c8819985a5b1959608a1b6044820152606401611267565b604051859033907f5445f318f4f5fcfb66592e68e0cc5822aa15664039bd5f0ffde24c5a8142b1ac90600090a35050505050565b6126f48282611941565b61141a576000828152600c602090815260408083206001600160a01b03851684529091529020805460ff1916600117905561272c3390565b6001600160a01b0316816001600160a01b0316837f2f8788117e7eff1d82e926ec794901d17c78024a50270940304540a733656f0d60405160405180910390a45050565b61277a8282611941565b1561141a576000828152600c602090815260408083206001600160a01b0385168085529252808320805460ff1916905551339285917ff6391f5c32d9c69d2a47ea670b442974b53935d1edc7fd64eb21e047a839171b9190a45050565b336000908152600b602052604090205460ff166128065760405162461bcd60e51b8152600401611267906136eb565b600854819081106128295760405162461bcd60e51b81526004016112679061372a565b816008818154811061283d5761283d61354c565b600091825260209091206003600590920201015460ff16156128715760405162461bcd60e51b815260040161126790613755565b6000838152600a60209081526040808320338452909152902054839060ff16156128d45760405162461bcd60e51b81526020600482015260146024820152731d1e08185b1c9958591e4818dbdb999a5c9b595960621b6044820152606401611267565b6000600885815481106128e9576128e961354c565b9060005260206000209060050201905080600401600081548092919061290e9061380f565b90915550506000858152600a60209081526040808320338085529252808320805460ff191660011790555187927f5cbe105e36805f7820e291f799d5794ff948af2a5f664e580382defb6339004191a35050505050565b604051630a85bd0160e11b81526000906001600160a01b0385169063150b7a029061299a903390899088908890600401613828565b6020604051808303816000875af19250505080156129d5575060408051601f3d908101601f191682019092526129d291810190613865565b60015b612a33573d808015612a03576040519150601f19603f3d011682016040523d82523d6000602084013e612a08565b606091505b508051600003612a2b576040516368d2bf6b60e11b815260040160405180910390fd5b805181602001fd5b6001600160e01b031916630a85bd0160e11b1490505b949350505050565b60606000612a5d6124de565b805190915015612a8d5780604051602001612a789190613882565b60405160208183030381529060405291505090565b505060408051602081019091526000815290565b60606000612aae83612c3f565b60010190506000816001600160401b03811115612acd57612acd6130e6565b6040519080825280601f01601f191660200182016040528015612af7576020820181803683370190505b5090508181016020015b600019016f181899199a1a9b1b9c1cb0b131b232b360811b600a86061a8153600a8504945084612b0157509392505050565b612b3d8282611941565b61141a57612b4a81612d17565b612b55836020612d29565b604051602001612b669291906138b1565b60408051601f198184030181529082905262461bcd60e51b825261126791600401613074565b600081815b8451811015612bd157612bbd82868381518110612bb057612bb061354c565b6020026020010151612ec4565b915080612bc98161380f565b915050612b91565b509392505050565b612be38383612ef3565b6001600160a01b0383163b156111ae576000548281035b612c0d6000868380600101945086612965565b612c2a576040516368d2bf6b60e11b815260040160405180910390fd5b818110612bfa57816000541461127957600080fd5b60008072184f03e93ff9f4daa797ed6e38ed64bf6a1f0160401b8310612c7e5772184f03e93ff9f4daa797ed6e38ed64bf6a1f0160401b830492506040015b6d04ee2d6d415b85acef81000000008310612caa576d04ee2d6d415b85acef8100000000830492506020015b662386f26fc100008310612cc857662386f26fc10000830492506010015b6305f5e1008310612ce0576305f5e100830492506008015b6127108310612cf457612710830492506004015b60648310612d06576064830492506002015b600a8310610b585760010192915050565b6060610b586001600160a01b03831660145b60606000612d38836002613926565b612d43906002613578565b6001600160401b03811115612d5a57612d5a6130e6565b6040519080825280601f01601f191660200182016040528015612d84576020820181803683370190505b509050600360fc1b81600081518110612d9f57612d9f61354c565b60200101906001600160f81b031916908160001a905350600f60fb1b81600181518110612dce57612dce61354c565b60200101906001600160f81b031916908160001a9053506000612df2846002613926565b612dfd906001613578565b90505b6001811115612e75576f181899199a1a9b1b9c1cb0b131b232b360811b85600f1660108110612e3157612e3161354c565b1a60f81b828281518110612e4757612e4761354c565b60200101906001600160f81b031916908160001a90535060049490941c93612e6e81613782565b9050612e00565b5083156124335760405162461bcd60e51b815260206004820181905260248201527f537472696e67733a20686578206c656e67746820696e73756666696369656e746044820152606401611267565b6000818310612ee0576000828152602084905260409020612433565b6000838152602083905260409020612433565b6000805490829003612f185760405163b562e8dd60e01b815260040160405180910390fd5b6001600160a01b03831660008181526005602090815260408083208054680100000000000000018802019055848352600490915281206001851460e11b4260a01b178317905582840190839083907fddf252ad1be2c89b69c2b068fc378daa952ba7f163c4a11628f55a4df523b3ef8180a4600183015b818114612fc757808360007fddf252ad1be2c89b69c2b068fc378daa952ba7f163c4a11628f55a4df523b3ef600080a4600101612f8f565b5081600003612fe857604051622e076360e81b815260040160405180910390fd5b60005550505050565b6001600160e01b031981168114611cef57600080fd5b60006020828403121561301957600080fd5b813561243381612ff1565b60005b8381101561303f578181015183820152602001613027565b50506000910152565b60008151808452613060816020860160208601613024565b601f01601f19169290920160200192915050565b6020815260006124336020830184613048565b60006020828403121561309957600080fd5b5035919050565b80356001600160a01b03811681146130b757600080fd5b919050565b600080604083850312156130cf57600080fd5b6130d8836130a0565b946020939093013593505050565b634e487b7160e01b600052604160045260246000fd5b60006001600160401b0380841115613116576131166130e6565b604051601f8501601f19908116603f0116810190828211818310171561313e5761313e6130e6565b8160405280935085815286868601111561315757600080fd5b858560208301376000602087830101525050509392505050565b600082601f83011261318257600080fd5b612433838335602085016130fc565b6000806000606084860312156131a657600080fd5b6131af846130a0565b92506020840135915060408401356001600160401b038111156131d157600080fd5b6131dd86828701613171565b9150509250925092565b6000806000606084860312156131fc57600080fd5b613205846130a0565b9250613213602085016130a0565b9150604084013590509250925092565b60006020828403121561323557600080fd5b813563ffffffff8116811461243357600080fd5b60008060006040848603121561325e57600080fd5b8335925060208401356001600160401b038082111561327c57600080fd5b818601915086601f83011261329057600080fd5b81358181111561329f57600080fd5b8760208260051b85010111156132b457600080fd5b6020830194508093505050509250925092565b600080604083850312156132da57600080fd5b823591506132ea602084016130a0565b90509250929050565b60018060a01b038616815284602082015260a06040820152600061331a60a0830186613048565b931515606083015250608001529392505050565b634e487b7160e01b600052602160045260246000fd5b602081016004831061336657634e487b7160e01b600052602160045260246000fd5b91905290565b60006020828403121561337e57600080fd5b81356001600160401b038116811461243357600080fd5b6020808252825182820181905260009190848201906040850190845b818110156133d65783516001600160a01b0316835292840192918401916001016133b1565b50909695505050505050565b6000602082840312156133f457600080fd5b612433826130a0565b6000806040838503121561341057600080fd5b613419836130a0565b91506020830135801515811461342e57600080fd5b809150509250929050565b6000806000806080858703121561344f57600080fd5b613458856130a0565b9350613466602086016130a0565b92506040850135915060608501356001600160401b0381111561348857600080fd5b61349487828801613171565b91505092959194509250565b600080604083850312156134b357600080fd5b6134bc836130a0565b91506132ea602084016130a0565b6000602082840312156134dc57600080fd5b81356001600160401b038111156134f257600080fd5b8201601f8101841361350357600080fd5b612a49848235602084016130fc565b600181811c9082168061352657607f821691505b60208210810361354657634e487b7160e01b600052602260045260246000fd5b50919050565b634e487b7160e01b600052603260045260246000fd5b634e487b7160e01b600052601160045260246000fd5b80820180821115610b5857610b58613562565b6000835161359d818460208801613024565b8351908301906135b1818360208801613024565b64173539b7b760d91b9101908152600501949350505050565b601f8211156111ae57600081815260208120601f850160051c810160208610156135f15750805b601f850160051c820191505b81811015610d47578281556001016135fd565b81516001600160401b03811115613629576136296130e6565b61363d816136378454613512565b846135ca565b602080601f831160018114613672576000841561365a5750858301515b600019600386901b1c1916600185901b178555610d47565b600085815260208120601f198616915b828110156136a157888601518255948401946001909101908401613682565b50858210156136bf5787850151600019600388901b60f8161c191681555b5050505050600190811b01905550565b600082516136e1818460208701613024565b9190910192915050565b6020808252600c908201526b3737ba1030b8383937bb32b960a11b604082015260600190565b828152604060208201526000612a496040830184613048565b602080825260119082015270747820646f65736e27742065786973747360781b604082015260600190565b6020808252601390820152721d1e08185b1c9958591e48195e1958dd5d1959606a1b604082015260600190565b60008161379157613791613562565b506000190190565b60008083546137a781613512565b600182811680156137bf57600181146137d457613803565b60ff1984168752821515830287019450613803565b8760005260208060002060005b858110156137fa5781548a8201529084019082016137e1565b50505082870194505b50929695505050505050565b60006001820161382157613821613562565b5060010190565b6001600160a01b038581168252841660208201526040810183905260806060820181905260009061385b90830184613048565b9695505050505050565b60006020828403121561387757600080fd5b815161243381612ff1565b60008251613894818460208701613024565b6a3434b23232b7173539b7b760a91b920191825250600b01919050565b7f416363657373436f6e74726f6c3a206163636f756e74200000000000000000008152600083516138e9816017850160208801613024565b7001034b99036b4b9b9b4b733903937b6329607d1b601791840191820152835161391a816028840160208801613024565b01602801949350505050565b8082028115828204841417610b5857610b5861356256fe97667070c54ef182b0f5858b034beac1b6f3089aa2d3188bb1e8929f4fa9b929a26469706673582212205568b59f683fcaa052d86486fbaf2e0cdac9d42e2498bd30248cc1d0ad97e91e64736f6c6343000812003397667070c54ef182b0f5858b034beac1b6f3089aa2d3188bb1e8929f4fa9b929ddf252ad1be2c89b69c2b068fc378daa952ba7f163c4a11628f55a4df523b3ef",
  "linkReferences": {},
  "deployedLinkReferences": {}
}