{
  "_format": "hh-sol-artifact-1",
  "contractName": "WhoIsWho",
  "sourceName": "contracts/WhoIsWho.sol",
  "abi": [
    {
      "inputs": [
        {
          "internalType": "address",
          "name": "_owner",
          "type": "address"
        },
        {
          "internalType": "uint256",
          "name": "_price",
          "type": "uint256"
        },
        {
          "internalType": "uint32",
          "name": "_maxTokenPerWallet",
          "type": "uint32"
        },
        {
          "internalType": "uint64",
          "name": "_presaleDate",
          "type": "uint64"
        },
        {
          "internalType": "uint64",
          "name": "_publicSaleDate",
          "type": "uint64"
        },
        {
          "internalType": "uint64",
          "name": "_revealDate",
          "type": "uint64"
        },
        {
          "internalType": "bytes32",
          "name": "_ogMerkleRoot",
          "type": "bytes32"
        },
        {
          "internalType": "bytes32",
          "name": "_wlMerkleRoot",
          "type": "bytes32"
        },
        {
          "internalType": "address[]",
          "name": "_operators",
          "type": "address[]"
        },
        {
          "internalType": "string",
          "name": "_metadataBaseURI",
          "type": "string"
        }
      ],
      "stateMutability": "nonpayable",
      "type": "constructor"
    },
    {
      "inputs": [],
      "name": "ApprovalCallerNotOwnerNorApproved",
      "type": "error"
    },
    {
      "inputs": [],
      "name": "ApprovalQueryForNonexistentToken",
      "type": "error"
    },
    {
      "inputs": [],
      "name": "BalanceQueryForZeroAddress",
      "type": "error"
    },
    {
      "inputs": [],
      "name": "MintERC2309QuantityExceedsLimit",
      "type": "error"
    },
    {
      "inputs": [],
      "name": "MintToZeroAddress",
      "type": "error"
    },
    {
      "inputs": [],
      "name": "MintZeroQuantity",
      "type": "error"
    },
    {
      "inputs": [],
      "name": "OwnerQueryForNonexistentToken",
      "type": "error"
    },
    {
      "inputs": [],
      "name": "OwnershipNotInitializedForExtraData",
      "type": "error"
    },
    {
      "inputs": [],
      "name": "TransferCallerNotOwnerNorApproved",
      "type": "error"
    },
    {
      "inputs": [],
      "name": "TransferFromIncorrectOwner",
      "type": "error"
    },
    {
      "inputs": [],
      "name": "TransferToNonERC721ReceiverImplementer",
      "type": "error"
    },
    {
      "inputs": [],
      "name": "TransferToZeroAddress",
      "type": "error"
    },
    {
      "inputs": [],
      "name": "URIQueryForNonexistentToken",
      "type": "error"
    },
    {
      "inputs": [],
      "name": "WhoIsWho__InsufficientFunds",
      "type": "error"
    },
    {
      "inputs": [],
      "name": "WhoIsWho__InvalidProof",
      "type": "error"
    },
    {
      "inputs": [],
      "name": "WhoIsWho__MaxMint",
      "type": "error"
    },
    {
      "inputs": [],
      "name": "WhoIsWho__NonExistentTokenId",
      "type": "error"
    },
    {
      "inputs": [],
      "name": "WhoIsWho__StageNotReady",
      "type": "error"
    },
    {
      "inputs": [],
      "name": "WhoIsWho__ZeroMintAmount",
      "type": "error"
    },
    {
      "anonymous": false,
      "inputs": [
        {
          "indexed": true,
          "internalType": "address",
          "name": "owner",
          "type": "address"
        },
        {
          "indexed": true,
          "internalType": "address",
          "name": "approved",
          "type": "address"
        },
        {
          "indexed": true,
          "internalType": "uint256",
          "name": "tokenId",
          "type": "uint256"
        }
      ],
      "name": "Approval",
      "type": "event"
    },
    {
      "anonymous": false,
      "inputs": [
        {
          "indexed": true,
          "internalType": "address",
          "name": "owner",
          "type": "address"
        },
        {
          "indexed": true,
          "internalType": "address",
          "name": "operator",
          "type": "address"
        },
        {
          "indexed": false,
          "internalType": "bool",
          "name": "approved",
          "type": "bool"
        }
      ],
      "name": "ApprovalForAll",
      "type": "event"
    },
    {
      "anonymous": false,
      "inputs": [
        {
          "indexed": true,
          "internalType": "address",
          "name": "owner",
          "type": "address"
        },
        {
          "indexed": true,
          "internalType": "uint256",
          "name": "txIndex",
          "type": "uint256"
        }
      ],
      "name": "ConfirmTransaction",
      "type": "event"
    },
    {
      "anonymous": false,
      "inputs": [
        {
          "indexed": true,
          "internalType": "uint256",
          "name": "fromTokenId",
          "type": "uint256"
        },
        {
          "indexed": false,
          "internalType": "uint256",
          "name": "toTokenId",
          "type": "uint256"
        },
        {
          "indexed": true,
          "internalType": "address",
          "name": "from",
          "type": "address"
        },
        {
          "indexed": true,
          "internalType": "address",
          "name": "to",
          "type": "address"
        }
      ],
      "name": "ConsecutiveTransfer",
      "type": "event"
    },
    {
      "anonymous": false,
      "inputs": [
        {
          "indexed": true,
          "internalType": "address",
          "name": "owner",
          "type": "address"
        },
        {
          "indexed": true,
          "internalType": "uint256",
          "name": "txIndex",
          "type": "uint256"
        }
      ],
      "name": "ExecuteTransaction",
      "type": "event"
    },
    {
      "anonymous": false,
      "inputs": [
        {
          "indexed": true,
          "internalType": "address",
          "name": "owner",
          "type": "address"
        },
        {
          "indexed": true,
          "internalType": "uint256",
          "name": "txIndex",
          "type": "uint256"
        }
      ],
      "name": "RevokeConfirmation",
      "type": "event"
    },
    {
      "anonymous": false,
      "inputs": [
        {
          "indexed": true,
          "internalType": "bytes32",
          "name": "role",
          "type": "bytes32"
        },
        {
          "indexed": true,
          "internalType": "bytes32",
          "name": "previousAdminRole",
          "type": "bytes32"
        },
        {
          "indexed": true,
          "internalType": "bytes32",
          "name": "newAdminRole",
          "type": "bytes32"
        }
      ],
      "name": "RoleAdminChanged",
      "type": "event"
    },
    {
      "anonymous": false,
      "inputs": [
        {
          "indexed": true,
          "internalType": "bytes32",
          "name": "role",
          "type": "bytes32"
        },
        {
          "indexed": true,
          "internalType": "address",
          "name": "account",
          "type": "address"
        },
        {
          "indexed": true,
          "internalType": "address",
          "name": "sender",
          "type": "address"
        }
      ],
      "name": "RoleGranted",
      "type": "event"
    },
    {
      "anonymous": false,
      "inputs": [
        {
          "indexed": true,
          "internalType": "bytes32",
          "name": "role",
          "type": "bytes32"
        },
        {
          "indexed": true,
          "internalType": "address",
          "name": "account",
          "type": "address"
        },
        {
          "indexed": true,
          "internalType": "address",
          "name": "sender",
          "type": "address"
        }
      ],
      "name": "RoleRevoked",
      "type": "event"
    },
    {
      "anonymous": false,
      "inputs": [
        {
          "indexed": true,
          "internalType": "uint256",
          "name": "_maxTokenPerWallet",
          "type": "uint256"
        }
      ],
      "name": "SetMaxTokenPerWallet",
      "type": "event"
    },
    {
      "anonymous": false,
      "inputs": [
        {
          "indexed": true,
          "internalType": "string",
          "name": "_uri",
          "type": "string"
        }
      ],
      "name": "SetMetadataBaseURI",
      "type": "event"
    },
    {
      "anonymous": false,
      "inputs": [
        {
          "indexed": true,
          "internalType": "bytes32",
          "name": "_merkleRoot",
          "type": "bytes32"
        }
      ],
      "name": "SetOgMerkleRoot",
      "type": "event"
    },
    {
      "anonymous": false,
      "inputs": [
        {
          "indexed": true,
          "internalType": "uint64",
          "name": "_date",
          "type": "uint64"
        }
      ],
      "name": "SetPresaleDate",
      "type": "event"
    },
    {
      "anonymous": false,
      "inputs": [
        {
          "indexed": true,
          "internalType": "uint256",
          "name": "_price",
          "type": "uint256"
        }
      ],
      "name": "SetPrice",
      "type": "event"
    },
    {
      "anonymous": false,
      "inputs": [
        {
          "indexed": true,
          "internalType": "uint64",
          "name": "_date",
          "type": "uint64"
        }
      ],
      "name": "SetPublicSaleDate",
      "type": "event"
    },
    {
      "anonymous": false,
      "inputs": [
        {
          "indexed": true,
          "internalType": "uint64",
          "name": "_date",
          "type": "uint64"
        }
      ],
      "name": "SetRevealDate",
      "type": "event"
    },
    {
      "anonymous": false,
      "inputs": [
        {
          "indexed": true,
          "internalType": "bytes32",
          "name": "_merkleRoot",
          "type": "bytes32"
        }
      ],
      "name": "SetWlMerkleRoot",
      "type": "event"
    },
    {
      "anonymous": false,
      "inputs": [
        {
          "indexed": true,
          "internalType": "address",
          "name": "owner",
          "type": "address"
        },
        {
          "indexed": true,
          "internalType": "uint256",
          "name": "txIndex",
          "type": "uint256"
        },
        {
          "indexed": true,
          "internalType": "address",
          "name": "to",
          "type": "address"
        },
        {
          "indexed": false,
          "internalType": "uint256",
          "name": "value",
          "type": "uint256"
        },
        {
          "indexed": false,
          "internalType": "bytes",
          "name": "data",
          "type": "bytes"
        }
      ],
      "name": "SubmitTransaction",
      "type": "event"
    },
    {
      "anonymous": false,
      "inputs": [
        {
          "indexed": true,
          "internalType": "address",
          "name": "from",
          "type": "address"
        },
        {
          "indexed": true,
          "internalType": "address",
          "name": "to",
          "type": "address"
        },
        {
          "indexed": true,
          "internalType": "uint256",
          "name": "tokenId",
          "type": "uint256"
        }
      ],
      "name": "Transfer",
      "type": "event"
    },
    {
      "anonymous": false,
      "inputs": [
        {
          "indexed": true,
          "internalType": "uint256",
          "name": "_dateWithdrew",
          "type": "uint256"
        },
        {
          "indexed": false,
          "internalType": "uint256",
          "name": "_amount",
          "type": "uint256"
        }
      ],
      "name": "Withdraw",
      "type": "event"
    },
    {
      "inputs": [],
      "name": "DEFAULT_ADMIN_ROLE",
      "outputs": [
        {
          "internalType": "bytes32",
          "name": "",
          "type": "bytes32"
        }
      ],
      "stateMutability": "view",
      "type": "function"
    },
    {
      "inputs": [],
      "name": "NUM_CONFIRMATIONS_REQUIRED",
      "outputs": [
        {
          "internalType": "uint32",
          "name": "",
          "type": "uint32"
        }
      ],
      "stateMutability": "view",
      "type": "function"
    },
    {
      "inputs": [],
      "name": "OPERATOR_ROLE",
      "outputs": [
        {
          "internalType": "bytes32",
          "name": "",
          "type": "bytes32"
        }
      ],
      "stateMutability": "view",
      "type": "function"
    },
    {
      "inputs": [],
      "name": "PRESALE_INTERVAL",
      "outputs": [
        {
          "internalType": "uint16",
          "name": "",
          "type": "uint16"
        }
      ],
      "stateMutability": "view",
      "type": "function"
    },
    {
      "inputs": [],
      "name": "PRESALE_MAX_TOKEN_PER_OG",
      "outputs": [
        {
          "internalType": "uint16",
          "name": "",
          "type": "uint16"
        }
      ],
      "stateMutability": "view",
      "type": "function"
    },
    {
      "inputs": [],
      "name": "PRESALE_MAX_TOKEN_PER_WL",
      "outputs": [
        {
          "internalType": "uint16",
          "name": "",
          "type": "uint16"
        }
      ],
      "stateMutability": "view",
      "type": "function"
    },
    {
      "inputs": [],
      "name": "PRESALE_PRICE_OG",
      "outputs": [
        {
          "internalType": "uint256",
          "name": "",
          "type": "uint256"
        }
      ],
      "stateMutability": "view",
      "type": "function"
    },
    {
      "inputs": [],
      "name": "PRESALE_PRICE_WL",
      "outputs": [
        {
          "internalType": "uint256",
          "name": "",
          "type": "uint256"
        }
      ],
      "stateMutability": "view",
      "type": "function"
    },
    {
      "inputs": [],
      "name": "RESERVED_TOKENS",
      "outputs": [
        {
          "internalType": "uint16",
          "name": "",
          "type": "uint16"
        }
      ],
      "stateMutability": "view",
      "type": "function"
    },
    {
      "inputs": [],
      "name": "TOTAL_SUPPLY",
      "outputs": [
        {
          "internalType": "uint32",
          "name": "",
          "type": "uint32"
        }
      ],
      "stateMutability": "view",
      "type": "function"
    },
    {
      "inputs": [
        {
          "internalType": "address",
          "name": "to",
          "type": "address"
        },
        {
          "internalType": "uint256",
          "name": "tokenId",
          "type": "uint256"
        }
      ],
      "name": "approve",
      "outputs": [],
      "stateMutability": "payable",
      "type": "function"
    },
    {
      "inputs": [
        {
          "internalType": "uint256",
          "name": "",
          "type": "uint256"
        }
      ],
      "name": "approvers",
      "outputs": [
        {
          "internalType": "address",
          "name": "",
          "type": "address"
        }
      ],
      "stateMutability": "view",
      "type": "function"
    },
    {
      "inputs": [
        {
          "internalType": "address",
          "name": "owner",
          "type": "address"
        }
      ],
      "name": "balanceOf",
      "outputs": [
        {
          "internalType": "uint256",
          "name": "",
          "type": "uint256"
        }
      ],
      "stateMutability": "view",
      "type": "function"
    },
    {
      "inputs": [
        {
          "internalType": "uint256",
          "name": "_txIndex",
          "type": "uint256"
        }
      ],
      "name": "confirmWithdrawTransaction",
      "outputs": [],
      "stateMutability": "nonpayable",
      "type": "function"
    },
    {
      "inputs": [
        {
          "internalType": "uint256",
          "name": "tokenId",
          "type": "uint256"
        }
      ],
      "name": "getApproved",
      "outputs": [
        {
          "internalType": "address",
          "name": "",
          "type": "address"
        }
      ],
      "stateMutability": "view",
      "type": "function"
    },
    {
      "inputs": [],
      "name": "getApprovers",
      "outputs": [
        {
          "internalType": "address[]",
          "name": "",
          "type": "address[]"
        }
      ],
      "stateMutability": "view",
      "type": "function"
    },
    {
      "inputs": [
        {
          "internalType": "address",
          "name": "_account",
          "type": "address"
        }
      ],
      "name": "getPublicSaleBalance",
      "outputs": [
        {
          "internalType": "uint256",
          "name": "",
          "type": "uint256"
        }
      ],
      "stateMutability": "view",
      "type": "function"
    },
    {
      "inputs": [
        {
          "internalType": "bytes32",
          "name": "role",
          "type": "bytes32"
        }
      ],
      "name": "getRoleAdmin",
      "outputs": [
        {
          "internalType": "bytes32",
          "name": "",
          "type": "bytes32"
        }
      ],
      "stateMutability": "view",
      "type": "function"
    },
    {
      "inputs": [],
      "name": "getSaleStage",
      "outputs": [
        {
          "internalType": "enum WhoIsWho.SaleStage",
          "name": "stage",
          "type": "uint8"
        }
      ],
      "stateMutability": "view",
      "type": "function"
    },
    {
      "inputs": [
        {
          "internalType": "uint256",
          "name": "_txIndex",
          "type": "uint256"
        }
      ],
      "name": "getTransaction",
      "outputs": [
        {
          "internalType": "address",
          "name": "to",
          "type": "address"
        },
        {
          "internalType": "uint256",
          "name": "value",
          "type": "uint256"
        },
        {
          "internalType": "bytes",
          "name": "data",
          "type": "bytes"
        },
        {
          "internalType": "bool",
          "name": "executed",
          "type": "bool"
        },
        {
          "internalType": "uint256",
          "name": "numConfirmations",
          "type": "uint256"
        }
      ],
      "stateMutability": "view",
      "type": "function"
    },
    {
      "inputs": [
        {
          "internalType": "bytes32",
          "name": "role",
          "type": "bytes32"
        },
        {
          "internalType": "address",
          "name": "account",
          "type": "address"
        }
      ],
      "name": "grantRole",
      "outputs": [],
      "stateMutability": "nonpayable",
      "type": "function"
    },
    {
      "inputs": [
        {
          "internalType": "bytes32",
          "name": "role",
          "type": "bytes32"
        },
        {
          "internalType": "address",
          "name": "account",
          "type": "address"
        }
      ],
      "name": "hasRole",
      "outputs": [
        {
          "internalType": "bool",
          "name": "",
          "type": "bool"
        }
      ],
      "stateMutability": "view",
      "type": "function"
    },
    {
      "inputs": [
        {
          "internalType": "address",
          "name": "owner",
          "type": "address"
        },
        {
          "internalType": "address",
          "name": "operator",
          "type": "address"
        }
      ],
      "name": "isApprovedForAll",
      "outputs": [
        {
          "internalType": "bool",
          "name": "",
          "type": "bool"
        }
      ],
      "stateMutability": "view",
      "type": "function"
    },
    {
      "inputs": [
        {
          "internalType": "address",
          "name": "",
          "type": "address"
        }
      ],
      "name": "isApprover",
      "outputs": [
        {
          "internalType": "bool",
          "name": "",
          "type": "bool"
        }
      ],
      "stateMutability": "view",
      "type": "function"
    },
    {
      "inputs": [
        {
          "internalType": "uint256",
          "name": "",
          "type": "uint256"
        },
        {
          "internalType": "address",
          "name": "",
          "type": "address"
        }
      ],
      "name": "isConfirmed",
      "outputs": [
        {
          "internalType": "bool",
          "name": "",
          "type": "bool"
        }
      ],
      "stateMutability": "view",
      "type": "function"
    },
    {
      "inputs": [],
      "name": "maxTokenPerWallet",
      "outputs": [
        {
          "internalType": "uint32",
          "name": "",
          "type": "uint32"
        }
      ],
      "stateMutability": "view",
      "type": "function"
    },
    {
      "inputs": [
        {
          "internalType": "address",
          "name": "_recipient",
          "type": "address"
        },
        {
          "internalType": "uint256",
          "name": "_mintAmount",
          "type": "uint256"
        }
      ],
      "name": "mint",
      "outputs": [],
      "stateMutability": "payable",
      "type": "function"
    },
    {
      "inputs": [
        {
          "internalType": "uint256",
          "name": "_mintAmount",
          "type": "uint256"
        }
      ],
      "name": "mint",
      "outputs": [],
      "stateMutability": "payable",
      "type": "function"
    },
    {
      "inputs": [],
      "name": "name",
      "outputs": [
        {
          "internalType": "string",
          "name": "",
          "type": "string"
        }
      ],
      "stateMutability": "view",
      "type": "function"
    },
    {
      "inputs": [],
      "name": "ogMerkleRoot",
      "outputs": [
        {
          "internalType": "bytes32",
          "name": "",
          "type": "bytes32"
        }
      ],
      "stateMutability": "view",
      "type": "function"
    },
    {
      "inputs": [
        {
          "internalType": "uint256",
          "name": "_mintAmount",
          "type": "uint256"
        },
        {
          "internalType": "bytes32[]",
          "name": "_merkleProof",
          "type": "bytes32[]"
        }
      ],
      "name": "ogMint",
      "outputs": [],
      "stateMutability": "payable",
      "type": "function"
    },
    {
      "inputs": [
        {
          "internalType": "uint256",
          "name": "tokenId",
          "type": "uint256"
        }
      ],
      "name": "ownerOf",
      "outputs": [
        {
          "internalType": "address",
          "name": "",
          "type": "address"
        }
      ],
      "stateMutability": "view",
      "type": "function"
    },
    {
      "inputs": [],
      "name": "presaleDate",
      "outputs": [
        {
          "internalType": "uint64",
          "name": "",
          "type": "uint64"
        }
      ],
      "stateMutability": "view",
      "type": "function"
    },
    {
      "inputs": [],
      "name": "price",
      "outputs": [
        {
          "internalType": "uint256",
          "name": "",
          "type": "uint256"
        }
      ],
      "stateMutability": "view",
      "type": "function"
    },
    {
      "inputs": [
        {
          "internalType": "address",
          "name": "",
          "type": "address"
        }
      ],
      "name": "publicSaleBalances",
      "outputs": [
        {
          "internalType": "uint256",
          "name": "",
          "type": "uint256"
        }
      ],
      "stateMutability": "view",
      "type": "function"
    },
    {
      "inputs": [],
      "name": "publicSaleDate",
      "outputs": [
        {
          "internalType": "uint64",
          "name": "",
          "type": "uint64"
        }
      ],
      "stateMutability": "view",
      "type": "function"
    },
    {
      "inputs": [
        {
          "internalType": "bytes32",
          "name": "role",
          "type": "bytes32"
        },
        {
          "internalType": "address",
          "name": "account",
          "type": "address"
        }
      ],
      "name": "renounceRole",
      "outputs": [],
      "stateMutability": "nonpayable",
      "type": "function"
    },
    {
      "inputs": [],
      "name": "revealDate",
      "outputs": [
        {
          "internalType": "uint64",
          "name": "",
          "type": "uint64"
        }
      ],
      "stateMutability": "view",
      "type": "function"
    },
    {
      "inputs": [
        {
          "internalType": "uint256",
          "name": "_txIndex",
          "type": "uint256"
        }
      ],
      "name": "revokeConfirmation",
      "outputs": [],
      "stateMutability": "nonpayable",
      "type": "function"
    },
    {
      "inputs": [
        {
          "internalType": "bytes32",
          "name": "role",
          "type": "bytes32"
        },
        {
          "internalType": "address",
          "name": "account",
          "type": "address"
        }
      ],
      "name": "revokeRole",
      "outputs": [],
      "stateMutability": "nonpayable",
      "type": "function"
    },
    {
      "inputs": [
        {
          "internalType": "address",
          "name": "from",
          "type": "address"
        },
        {
          "internalType": "address",
          "name": "to",
          "type": "address"
        },
        {
          "internalType": "uint256",
          "name": "tokenId",
          "type": "uint256"
        }
      ],
      "name": "safeTransferFrom",
      "outputs": [],
      "stateMutability": "payable",
      "type": "function"
    },
    {
      "inputs": [
        {
          "internalType": "address",
          "name": "from",
          "type": "address"
        },
        {
          "internalType": "address",
          "name": "to",
          "type": "address"
        },
        {
          "internalType": "uint256",
          "name": "tokenId",
          "type": "uint256"
        },
        {
          "internalType": "bytes",
          "name": "_data",
          "type": "bytes"
        }
      ],
      "name": "safeTransferFrom",
      "outputs": [],
      "stateMutability": "payable",
      "type": "function"
    },
    {
      "inputs": [
        {
          "internalType": "address",
          "name": "operator",
          "type": "address"
        },
        {
          "internalType": "bool",
          "name": "approved",
          "type": "bool"
        }
      ],
      "name": "setApprovalForAll",
      "outputs": [],
      "stateMutability": "nonpayable",
      "type": "function"
    },
    {
      "inputs": [
        {
          "internalType": "uint32",
          "name": "_maxTokenPerWallet",
          "type": "uint32"
        }
      ],
      "name": "setMaxTokenPerWallet",
      "outputs": [],
      "stateMutability": "nonpayable",
      "type": "function"
    },
    {
      "inputs": [
        {
          "internalType": "string",
          "name": "_uri",
          "type": "string"
        }
      ],
      "name": "setMetadataBaseURI",
      "outputs": [],
      "stateMutability": "nonpayable",
      "type": "function"
    },
    {
      "inputs": [
        {
          "internalType": "bytes32",
          "name": "_merkleRoot",
          "type": "bytes32"
        }
      ],
      "name": "setOgMerkleRoot",
      "outputs": [],
      "stateMutability": "nonpayable",
      "type": "function"
    },
    {
      "inputs": [
        {
          "internalType": "uint64",
          "name": "_date",
          "type": "uint64"
        }
      ],
      "name": "setPresaleDate",
      "outputs": [],
      "stateMutability": "nonpayable",
      "type": "function"
    },
    {
      "inputs": [
        {
          "internalType": "uint256",
          "name": "_price",
          "type": "uint256"
        }
      ],
      "name": "setPrice",
      "outputs": [],
      "stateMutability": "nonpayable",
      "type": "function"
    },
    {
      "inputs": [
        {
          "internalType": "uint64",
          "name": "_date",
          "type": "uint64"
        }
      ],
      "name": "setPublicSaleDate",
      "outputs": [],
      "stateMutability": "nonpayable",
      "type": "function"
    },
    {
      "inputs": [
        {
          "internalType": "uint64",
          "name": "_date",
          "type": "uint64"
        }
      ],
      "name": "setRevealDate",
      "outputs": [],
      "stateMutability": "nonpayable",
      "type": "function"
    },
    {
      "inputs": [
        {
          "internalType": "bytes32",
          "name": "_merkleRoot",
          "type": "bytes32"
        }
      ],
      "name": "setWlMerkleRoot",
      "outputs": [],
      "stateMutability": "nonpayable",
      "type": "function"
    },
    {
      "inputs": [
        {
          "internalType": "address",
          "name": "_to",
          "type": "address"
        },
        {
          "internalType": "uint256",
          "name": "_value",
          "type": "uint256"
        },
        {
          "internalType": "bytes",
          "name": "_data",
          "type": "bytes"
        }
      ],
      "name": "submitWithdrawTransaction",
      "outputs": [],
      "stateMutability": "nonpayable",
      "type": "function"
    },
    {
      "inputs": [
        {
          "internalType": "bytes4",
          "name": "interfaceId",
          "type": "bytes4"
        }
      ],
      "name": "supportsInterface",
      "outputs": [
        {
          "internalType": "bool",
          "name": "",
          "type": "bool"
        }
      ],
      "stateMutability": "view",
      "type": "function"
    },
    {
      "inputs": [],
      "name": "symbol",
      "outputs": [
        {
          "internalType": "string",
          "name": "",
          "type": "string"
        }
      ],
      "stateMutability": "view",
      "type": "function"
    },
    {
      "inputs": [
        {
          "internalType": "uint256",
          "name": "_tokenId",
          "type": "uint256"
        }
      ],
      "name": "tokenURI",
      "outputs": [
        {
          "internalType": "string",
          "name": "",
          "type": "string"
        }
      ],
      "stateMutability": "view",
      "type": "function"
    },
    {
      "inputs": [],
      "name": "totalSupply",
      "outputs": [
        {
          "internalType": "uint256",
          "name": "",
          "type": "uint256"
        }
      ],
      "stateMutability": "view",
      "type": "function"
    },
    {
      "inputs": [
        {
          "internalType": "uint256",
          "name": "",
          "type": "uint256"
        }
      ],
      "name": "transactions",
      "outputs": [
        {
          "internalType": "address",
          "name": "to",
          "type": "address"
        },
        {
          "internalType": "uint256",
          "name": "value",
          "type": "uint256"
        },
        {
          "internalType": "bytes",
          "name": "data",
          "type": "bytes"
        },
        {
          "internalType": "bool",
          "name": "executed",
          "type": "bool"
        },
        {
          "internalType": "uint256",
          "name": "numConfirmations",
          "type": "uint256"
        }
      ],
      "stateMutability": "view",
      "type": "function"
    },
    {
      "inputs": [
        {
          "internalType": "address",
          "name": "from",
          "type": "address"
        },
        {
          "internalType": "address",
          "name": "to",
          "type": "address"
        },
        {
          "internalType": "uint256",
          "name": "tokenId",
          "type": "uint256"
        }
      ],
      "name": "transferFrom",
      "outputs": [],
      "stateMutability": "payable",
      "type": "function"
    },
    {
      "inputs": [
        {
          "internalType": "uint256",
          "name": "_txIndex",
          "type": "uint256"
        }
      ],
      "name": "withdraw",
      "outputs": [],
      "stateMutability": "nonpayable",
      "type": "function"
    },
    {
      "inputs": [],
      "name": "wlMerkleRoot",
      "outputs": [
        {
          "internalType": "bytes32",
          "name": "",
          "type": "bytes32"
        }
      ],
      "stateMutability": "view",
      "type": "function"
    },
    {
      "inputs": [
        {
          "internalType": "uint256",
          "name": "_mintAmount",
          "type": "uint256"
        },
        {
          "internalType": "bytes32[]",
          "name": "_merkleProof",
          "type": "bytes32[]"
        }
      ],
      "name": "wlMint",
      "outputs": [],
      "stateMutability": "payable",
      "type": "function"
    }
  ],
  "bytecode": "0x60806040523480156200001157600080fd5b5060405162004512380380620045128339810160408190526200003491620008c9565b816040518060400160405280600a81526020016957686f2049732057686f60b01b8152506040518060400160405280600881526020016757686f497357686f60c01b81525081600290816200008a919062000a3f565b50600362000099828262000a3f565b506000805550508051620000e65760405162461bcd60e51b815260206004820152600f60248201526e1bdddb995c9cc81c995c5d5a5c9959608a1b60448201526064015b60405180910390fd5b60005b81518110156200024f5760008282815181106200010a576200010a62000b0b565b6020026020010151905060006001600160a01b0316816001600160a01b0316036200016b5760405162461bcd60e51b815260206004820152601060248201526f34b73b30b634b21030b8383937bb32b960811b6044820152606401620000dd565b6001600160a01b0381166000908152600b602052604090205460ff1615620001d65760405162461bcd60e51b815260206004820152601360248201527f617070726f766572206e6f7420756e69717565000000000000000000000000006044820152606401620000dd565b6001600160a01b03166000818152600b60205260408120805460ff191660019081179091556009805491820181559091527f6e1540171b6c0c960b71a7020d9f60077f6af931a8bbf590da0223dacf75c7af0180546001600160a01b031916909117905580620002468162000b21565b915050620000e9565b50506001600d55600e899055600f805463ffffffff60c01b1916600160c01b63ffffffff8b160217905560108490556011839055601262000291828262000a3f565b50600f80546001600160401b03878116600160801b02600160801b600160c01b03198a831668010000000000000000026001600160801b0319909416928c16929092179290921716179055620002e960008b62000400565b60005b82518110156200035957620003447f97667070c54ef182b0f5858b034beac1b6f3089aa2d3188bb1e8929f4fa9b92984838151811062000330576200033062000b0b565b60200260200101516200040060201b60201c565b80620003508162000b21565b915050620002ec565b506001600160a01b038a1660009081527f1a599dbc4930e699977ce4e4263d82885a13c4ec7618a9942ff7c8d73953c615602052604090205460ff16620003e35760405162461bcd60e51b815260206004820152601b60248201527f6f776e65722073686f756c6420626520616e206f70657261746f7200000000006044820152606401620000dd565b620003f08a6032620004a5565b5050505050505050505062000bd2565b6000828152600c602090815260408083206001600160a01b038516845290915290205460ff16620004a1576000828152600c602090815260408083206001600160a01b03851684529091529020805460ff19166001179055620004603390565b6001600160a01b0316816001600160a01b0316837f2f8788117e7eff1d82e926ec794901d17c78024a50270940304540a733656f0d60405160405180910390a45b5050565b620004a1828260405180602001604052806000815250620004c760201b60201c565b620004d383836200053e565b6001600160a01b0383163b1562000539576000548281035b600181019062000501906000908790866200061e565b6200051f576040516368d2bf6b60e11b815260040160405180910390fd5b818110620004eb5781600054146200053657600080fd5b50505b505050565b6000805490829003620005645760405163b562e8dd60e01b815260040160405180910390fd5b6001600160a01b03831660008181526005602090815260408083208054680100000000000000018802019055848352600490915281206001851460e11b4260a01b17831790558284019083908390600080516020620044f28339815191528180a4600183015b818114620005f35780836000600080516020620044f2833981519152600080a4600101620005ca565b50816000036200061557604051622e076360e81b815260040160405180910390fd5b60005550505050565b604051630a85bd0160e11b81526000906001600160a01b0385169063150b7a02906200065590339089908890889060040162000b49565b6020604051808303816000875af192505050801562000693575060408051601f3d908101601f19168201909252620006909181019062000b9f565b60015b620006f5573d808015620006c4576040519150601f19603f3d011682016040523d82523d6000602084013e620006c9565b606091505b508051600003620006ed576040516368d2bf6b60e11b815260040160405180910390fd5b805181602001fd5b6001600160e01b031916630a85bd0160e11b1490505b949350505050565b80516001600160a01b03811681146200072b57600080fd5b919050565b805163ffffffff811681146200072b57600080fd5b80516001600160401b03811681146200072b57600080fd5b634e487b7160e01b600052604160045260246000fd5b604051601f8201601f191681016001600160401b03811182821017156200079e576200079e6200075d565b604052919050565b600082601f830112620007b857600080fd5b815160206001600160401b03821115620007d657620007d66200075d565b8160051b620007e782820162000773565b92835284810182019282810190878511156200080257600080fd5b83870192505b848310156200082c576200081c8362000713565b8252918301919083019062000808565b979650505050505050565b60005b83811015620008545781810151838201526020016200083a565b50506000910152565b600082601f8301126200086f57600080fd5b81516001600160401b038111156200088b576200088b6200075d565b620008a0601f8201601f191660200162000773565b818152846020838601011115620008b657600080fd5b6200070b82602083016020870162000837565b6000806000806000806000806000806101408b8d031215620008ea57600080fd5b620008f58b62000713565b995060208b015198506200090c60408c0162000730565b97506200091c60608c0162000745565b96506200092c60808c0162000745565b95506200093c60a08c0162000745565b60c08c015160e08d01516101008e015192975090955093506001600160401b03808211156200096a57600080fd5b620009788e838f01620007a6565b93506101208d01519150808211156200099057600080fd5b506200099f8d828e016200085d565b9150509295989b9194979a5092959850565b600181811c90821680620009c657607f821691505b602082108103620009e757634e487b7160e01b600052602260045260246000fd5b50919050565b601f8211156200053957600081815260208120601f850160051c8101602086101562000a165750805b601f850160051c820191505b8181101562000a375782815560010162000a22565b505050505050565b81516001600160401b0381111562000a5b5762000a5b6200075d565b62000a738162000a6c8454620009b1565b84620009ed565b602080601f83116001811462000aab576000841562000a925750858301515b600019600386901b1c1916600185901b17855562000a37565b600085815260208120601f198616915b8281101562000adc5788860151825594840194600190910190840162000abb565b508582101562000afb5787850151600019600388901b60f8161c191681555b5050505050600190811b01905550565b634e487b7160e01b600052603260045260246000fd5b60006001820162000b4257634e487b7160e01b600052601160045260246000fd5b5060010190565b600060018060a01b03808716835280861660208401525083604083015260806060830152825180608084015262000b888160a085016020870162000837565b601f01601f19169190910160a00195945050505050565b60006020828403121562000bb257600080fd5b81516001600160e01b03198116811462000bcb57600080fd5b9392505050565b6139108062000be26000396000f3fe6080604052600436106103a25760003560e01c80636cb3e8ef116101e7578063a22cb4651161010d578063d8a7ab89116100a0578063f5b541a61161006f578063f5b541a614610ae1578063f752eb1814610b03578063fb94bd8a14610b39578063fc530d5814610b5957600080fd5b8063d8a7ab8914610a31578063e985e9c514610a51578063eced387314610a9a578063ef170ce814610ac157600080fd5b8063cb2b85f7116100dc578063cb2b85f7146106f2578063d3650fb8146109c4578063d39f0a26146109e4578063d547741f14610a1157600080fd5b8063a22cb46514610951578063b88d4fde14610971578063c87b56dd14610984578063c889004b146109a457600080fd5b806391b7f5ed116101855780639ace38c2116101545780639ace38c2146108f3578063a035b1fe14610913578063a0712d6814610929578063a217fddf1461093c57600080fd5b806391b7f5ed1461087e57806391d148541461089e57806395d89b41146108be57806396cea3f7146108d357600080fd5b80637a8baf52116101c15780637a8baf52146107d457806380f59a651461080d5780638ac1e16114610848578063902d55a51461086857600080fd5b80636cb3e8ef146107625780636d218e481461078457806370a08231146107b457600080fd5b80632f2ff15d116102cc5780634a4d1cce1161026a57806360b119731161023957806360b11973146106f257806361e515cb1461070d5780636352211e1461072d57806368fc68c71461074d57600080fd5b80634a4d1cce1461069157806354c06aee146106a65780635f0bc29a146106bc5780635ff96560146106dc57600080fd5b80633ef0d36d116102a65780633ef0d36d1461063657806340c10f191461064957806342842e0e1461065c57806345c16a221461066f57600080fd5b80632f2ff15d146105c557806333ea3dc8146105e557806336568abe1461061657600080fd5b806318160ddd11610344578063248a9ca311610313578063248a9ca31461054257806325cfa09a146105725780632b314dc6146105925780632e1a7d4d146105a557600080fd5b806318160ddd146104b75780631e08a9e4146104d057806320ea8d861461050f57806323b872dd1461052f57600080fd5b8063095ea7b311610380578063095ea7b3146104365780630a3025301461044b5780630c1e3fd41461046f5780630e106df81461048f57600080fd5b806301ffc9a7146103a757806306fdde03146103dc578063081812fc146103fe575b600080fd5b3480156103b357600080fd5b506103c76103c2366004612f84565b610b6e565b60405190151581526020015b60405180910390f35b3480156103e857600080fd5b506103f1610b7f565b6040516103d39190612ff1565b34801561040a57600080fd5b5061041e610419366004613004565b610c11565b6040516001600160a01b0390911681526020016103d3565b610449610444366004613039565b610c55565b005b34801561045757600080fd5b5061046160105481565b6040519081526020016103d3565b34801561047b57600080fd5b5061044961048a36600461310e565b610cf5565b34801561049b57600080fd5b506104a4600381565b60405161ffff90911681526020016103d3565b3480156104c357600080fd5b5060015460005403610461565b3480156104dc57600080fd5b50600f546104f790600160801b90046001600160401b031681565b6040516001600160401b0390911681526020016103d3565b34801561051b57600080fd5b5061044961052a366004613004565b610d70565b61044961053d366004613164565b610de7565b34801561054e57600080fd5b5061046161055d366004613004565b6000908152600c602052604090206001015490565b34801561057e57600080fd5b5061044961058d3660046131a0565b610f7c565b6104496105a03660046131c6565b610fe5565b3480156105b157600080fd5b506104496105c0366004613004565b6111d4565b3480156105d157600080fd5b506104496105e0366004613244565b611294565b3480156105f157600080fd5b50610605610600366004613004565b6112b9565b6040516103d3959493929190613270565b34801561062257600080fd5b50610449610631366004613244565b6113b4565b6104496106443660046131c6565b611432565b610449610657366004613039565b6115e2565b61044961066a366004613164565b611604565b34801561067b57600080fd5b5061068461161f565b6040516103d391906132c1565b34801561069d57600080fd5b506104a4600281565b3480156106b257600080fd5b5061046160115481565b3480156106c857600080fd5b506104496106d73660046132e9565b61168d565b3480156106e857600080fd5b506104a461038481565b3480156106fe57600080fd5b506104616658d15e1762800081565b34801561071957600080fd5b506104496107283660046132e9565b6116fd565b34801561073957600080fd5b5061041e610748366004613004565b6117b2565b34801561075957600080fd5b506104a4603281565b34801561076e57600080fd5b506107776117bd565b6040516103d39190613312565b34801561079057600080fd5b506103c761079f36600461335f565b600b6020526000908152604090205460ff1681565b3480156107c057600080fd5b506104616107cf36600461335f565b61181e565b3480156107e057600080fd5b50600f546107f890600160c01b900463ffffffff1681565b60405163ffffffff90911681526020016103d3565b34801561081957600080fd5b506103c7610828366004613244565b600a60209081526000928352604080842090915290825290205460ff1681565b34801561085457600080fd5b50610449610863366004613004565b61186c565b34801561087457600080fd5b506107f861138881565b34801561088a57600080fd5b50610449610899366004613004565b611909565b3480156108aa57600080fd5b506103c76108b9366004613244565b611955565b3480156108ca57600080fd5b506103f1611980565b3480156108df57600080fd5b506104496108ee366004613004565b61198f565b3480156108ff57600080fd5b5061060561090e366004613004565b611a00565b34801561091f57600080fd5b50610461600e5481565b610449610937366004613004565b611ad9565b34801561094857600080fd5b50610461600081565b34801561095d57600080fd5b5061044961096c36600461337a565b611c6f565b61044961097f3660046133b6565b611cdb565b34801561099057600080fd5b506103f161099f366004613004565b611d1f565b3480156109b057600080fd5b50600f546104f7906001600160401b031681565b3480156109d057600080fd5b5061041e6109df366004613004565b611dca565b3480156109f057600080fd5b506104616109ff36600461335f565b60136020526000908152604090205481565b348015610a1d57600080fd5b50610449610a2c366004613244565b611df4565b348015610a3d57600080fd5b50610449610a4c366004613004565b611e19565b348015610a5d57600080fd5b506103c7610a6c36600461341d565b6001600160a01b03918216600090815260076020908152604080832093909416825291909152205460ff1690565b348015610aa657600080fd5b50600f546104f790600160401b90046001600160401b031681565b348015610acd57600080fd5b50610449610adc3660046132e9565b611eb6565b348015610aed57600080fd5b506104616000805160206138bb83398151915281565b348015610b0f57600080fd5b50610461610b1e36600461335f565b6001600160a01b031660009081526013602052604090205490565b348015610b4557600080fd5b50610449610b54366004613447565b611f7c565b348015610b6557600080fd5b506107f8600381565b6000610b7982611fe3565b92915050565b606060028054610b8e9061348f565b80601f0160208091040260200160405190810160405280929190818152602001828054610bba9061348f565b8015610c075780601f10610bdc57610100808354040283529160200191610c07565b820191906000526020600020905b815481529060010190602001808311610bea57829003601f168201915b5050505050905090565b6000610c1c82612018565b610c39576040516333d1c03960e21b815260040160405180910390fd5b506000908152600660205260409020546001600160a01b031690565b6000610c60826117b2565b9050336001600160a01b03821614610c9957610c7c8133610a6c565b610c99576040516367d9dca160e11b815260040160405180910390fd5b60008281526006602052604080822080546001600160a01b0319166001600160a01b0387811691821790925591518593918516917f8c5be1e5ebec7d5bd14f71427d1e84f3dd0314c0f7b2291e5b200ac8c7c3b92591a4505050565b6000805160206138bb833981519152610d0d8161203f565b60036000610d1961161f565b9050816003811115610d2d57610d2d6132ab565b816003811115610d3f57610d3f6132ab565b14610d5d576040516379906ae360e01b815260040160405180910390fd5b610d68868686612049565b505050505050565b6000805160206138bb833981519152610d888161203f565b60036000610d9461161f565b9050816003811115610da857610da86132ab565b816003811115610dba57610dba6132ab565b14610dd8576040516379906ae360e01b815260040160405180910390fd5b610de1846121ce565b50505050565b6000610df282612364565b9050836001600160a01b0316816001600160a01b031614610e255760405162a1148160e81b815260040160405180910390fd5b60008281526006602052604090208054338082146001600160a01b03881690911417610e7257610e558633610a6c565b610e7257604051632ce44b5f60e11b815260040160405180910390fd5b6001600160a01b038516610e9957604051633a954ecd60e21b815260040160405180910390fd5b8015610ea457600082555b6001600160a01b038681166000908152600560205260408082208054600019019055918716808252919020805460010190554260a01b17600160e11b17600085815260046020526040812091909155600160e11b84169003610f3657600184016000818152600460205260408120549003610f34576000548114610f345760008181526004602052604090208490555b505b83856001600160a01b0316876001600160a01b03167fddf252ad1be2c89b69c2b068fc378daa952ba7f163c4a11628f55a4df523b3ef60405160405180910390a4610d68565b6000805160206138bb833981519152610f948161203f565b600f805463ffffffff60c01b1916600160c01b63ffffffff8516908102919091179091556040517f8951dedc3a995b3334032076b7e0b1e1d8e8b5081e37e8dd00ac9a2e627df0ef90600090a25050565b610fed6123d2565b60016000610ff961161f565b905081600381111561100d5761100d6132ab565b81600381111561101f5761101f6132ab565b1461103d576040516379906ae360e01b815260040160405180910390fd5b846003808211156110615760405163b812c96d60e01b815260040160405180910390fd5b816000036110825760405163223702e760e01b815260040160405180910390fd5b6000826110926001546000540390565b0190506113888111156110b85760405163b812c96d60e01b815260040160405180910390fd5b508660036000826110c83361181e565b019050818111156110ec5760405163b812c96d60e01b815260040160405180910390fd5b50886658d15e176280008082023481111561111a576040516330be9fa160e21b815260040160405180910390fd5b506040516bffffffffffffffffffffffff193360601b1660208201526000906034016040516020818303038152906040528051906020012090506111958b8b8080602002602001604051908101604052809392919081815260200183836020028082843760009201919091525050601054915084905061242b565b6111b257604051630a63195760e31b815260040160405180910390fd5b6111bc338d612441565b5050505050505050506111cf6001600d55565b505050565b60006111df8161203f565b600360006111eb61161f565b90508160038111156111ff576111ff6132ab565b816003811115611211576112116132ab565b1461122f576040516379906ae360e01b815260040160405180910390fd5b600061123961245b565b905060008151116112845760405162461bcd60e51b815260206004820152601060248201526f10985cd948155492481b9bdd081cd95d60821b60448201526064015b60405180910390fd5b61128d8561246a565b5050505050565b6000828152600c60205260409020600101546112af8161203f565b6111cf8383612667565b60008060606000806000600887815481106112d6576112d66134c9565b6000918252602090912060059091020180546001820154600383015460048401546002850180549596506001600160a01b039094169492939260ff9092169183906113209061348f565b80601f016020809104026020016040519081016040528092919081815260200182805461134c9061348f565b80156113995780601f1061136e57610100808354040283529160200191611399565b820191906000526020600020905b81548152906001019060200180831161137c57829003601f168201915b50505050509250955095509550955095505091939590929450565b6001600160a01b03811633146114245760405162461bcd60e51b815260206004820152602f60248201527f416363657373436f6e74726f6c3a2063616e206f6e6c792072656e6f756e636560448201526e103937b632b9903337b91039b2b63360891b606482015260840161127b565b61142e82826126ed565b5050565b61143a6123d2565b6002600061144661161f565b905081600381111561145a5761145a6132ab565b81600381111561146c5761146c6132ab565b1461148a576040516379906ae360e01b815260040160405180910390fd5b846002808211156114ae5760405163b812c96d60e01b815260040160405180910390fd5b816000036114cf5760405163223702e760e01b815260040160405180910390fd5b6000826114df6001546000540390565b0190506113888111156115055760405163b812c96d60e01b815260040160405180910390fd5b508660026000826115153361181e565b019050818111156115395760405163b812c96d60e01b815260040160405180910390fd5b50886658d15e1762800080820234811115611567576040516330be9fa160e21b815260040160405180910390fd5b506040516bffffffffffffffffffffffff193360601b1660208201526000906034016040516020818303038152906040528051906020012090506111958b8b8080602002602001604051908101604052809392919081815260200183836020028082843760009201919091525050601154915084905061242b565b6000805160206138bb8339815191526115fa8161203f565b6111cf8383612441565b6111cf83838360405180602001604052806000815250611cdb565b600f546000904290600160401b90046001600160401b0316811061164557600391505090565b600f546001600160401b039081166103840190811682106116695760029250505090565b600f546001600160401b031682106116845760019250505090565b60009250505090565b6000805160206138bb8339815191526116a58161203f565b600f805467ffffffffffffffff60801b1916600160801b6001600160401b038516908102919091179091556040517f7a767a471a01b44c40aeb36e0e53fdb3ba974aa9673919403eb099940f6a72c790600090a25050565b6000805160206138bb8339815191526117158161203f565b60008061172061161f565b9050816003811115611734576117346132ab565b816003811115611746576117466132ab565b14611764576040516379906ae360e01b815260040160405180910390fd5b600f805467ffffffffffffffff19166001600160401b0386169081179091556040517f72870c674641393bb011154451c8ba6cc86adfbc0c2095902b7b8dc2538221c990600090a250505050565b6000610b7982612364565b60606009805480602002602001604051908101604052809291908181526020018280548015610c0757602002820191906000526020600020905b81546001600160a01b031681526001909101906020018083116117f7575050505050905090565b60006001600160a01b038216611847576040516323d3ad8160e21b815260040160405180910390fd5b506001600160a01b03166000908152600560205260409020546001600160401b031690565b6000805160206138bb8339815191526118848161203f565b60008061188f61161f565b90508160038111156118a3576118a36132ab565b8160038111156118b5576118b56132ab565b146118d3576040516379906ae360e01b815260040160405180910390fd5b601184905560405184907ffa1eb369f88e457de4be2ecd60a5d9a75c82674a0fadc0f66fef46762230d95a90600090a250505050565b6000805160206138bb8339815191526119218161203f565b600e82905560405182907f4f5539c0409dfc4cb06f64cbd31237e1fbfe443f531584bf4dd77ec7fc5ba7b190600090a25050565b6000918252600c602090815260408084206001600160a01b0393909316845291905290205460ff1690565b606060038054610b8e9061348f565b6000805160206138bb8339815191526119a78161203f565b600360006119b361161f565b90508160038111156119c7576119c76132ab565b8160038111156119d9576119d96132ab565b146119f7576040516379906ae360e01b815260040160405180910390fd5b610de184612754565b60088181548110611a1057600080fd5b60009182526020909120600590910201805460018201546002830180546001600160a01b039093169450909291611a469061348f565b80601f0160208091040260200160405190810160405280929190818152602001828054611a729061348f565b8015611abf5780601f10611a9457610100808354040283529160200191611abf565b820191906000526020600020905b815481529060010190602001808311611aa257829003601f168201915b505050506003830154600490930154919260ff1691905085565b611ae16123d2565b60036000611aed61161f565b9050816003811115611b0157611b016132ab565b816003811115611b1357611b136132ab565b14611b31576040516379906ae360e01b815260040160405180910390fd5b600f548390600160c01b900463ffffffff1680821115611b645760405163b812c96d60e01b815260040160405180910390fd5b81600003611b855760405163223702e760e01b815260040160405180910390fd5b600082611b956001546000540390565b019050611388811115611bbb5760405163b812c96d60e01b815260040160405180910390fd5b5033600090815260136020526040902054600f548691820190600160c01b900463ffffffff16811115611c015760405163b812c96d60e01b815260040160405180910390fd5b50600e54869080820234811115611c2b576040516330be9fa160e21b815260040160405180910390fd5b5033600090815260136020526040812080548a9290611c4b9084906134f5565b90915550611c5b90503389612441565b50505050505050611c6c6001600d55565b50565b3360008181526007602090815260408083206001600160a01b03871680855290835292819020805460ff191686151590811790915590519081529192917f17307eab39ab6107e8899845ad3d59bd9653f200f220920489ca2b5937696c31910160405180910390a35050565b611ce6848484610de7565b6001600160a01b0383163b15610de157611d02848484846128e2565b610de1576040516368d2bf6b60e11b815260040160405180910390fd5b6060611d2a82612018565b611d4757604051634835164360e11b815260040160405180910390fd5b600f54600160801b90046001600160401b03908116429091161015611d6e57610b796129ce565b6000611d7861245b565b805190915015611db45780611d8c84612a1e565b604051602001611d9d929190613508565b604051602081830303815290604052915050919050565b5050604080516020810190915260008152919050565b60098181548110611dda57600080fd5b6000918252602090912001546001600160a01b0316905081565b6000828152600c6020526040902060010154611e0f8161203f565b6111cf83836126ed565b6000805160206138bb833981519152611e318161203f565b600080611e3c61161f565b9050816003811115611e5057611e506132ab565b816003811115611e6257611e626132ab565b14611e80576040516379906ae360e01b815260040160405180910390fd5b601084905560405184907f324a2e035a8e8a295d32af0321d28bbb4523b2eb5482d0ead7a3b1e0559b3e0a90600090a250505050565b6000805160206138bb833981519152611ece8161203f565b600080611ed961161f565b9050816003811115611eed57611eed6132ab565b816003811115611eff57611eff6132ab565b14611f1d576040516379906ae360e01b815260040160405180910390fd5b600f80546fffffffffffffffff00000000000000001916600160401b6001600160401b038716908102919091179091556040517f8227d65ab5dd51383d2ecfffbdaff8d40e1efc4339f887d26c556ad741ab89df90600090a250505050565b6000805160206138bb833981519152611f948161203f565b6012611fa0838261358d565b5081604051611faf919061364c565b604051908190038120907f8f124c4ac94494868eafaa446b739570c7d5b809ab27b5651aaa9c69f4997ec990600090a25050565b60006001600160e01b03198216637965db0b60e01b1480610b7957506301ffc9a760e01b6001600160e01b0319831614610b79565b6000805482108015610b79575050600090815260046020526040902054600160e01b161590565b611c6c8133612ab0565b336000908152600b602052604090205460ff166120785760405162461bcd60e51b815260040161127b90613668565b600880546040805160a0810182526001600160a01b03878116825260208201878152928201868152600060608401819052608084018190526001860187559590955281517ff3f7a9fe364faab93b216da50a3214154f22a0a2b415b23a84c8169e8b636ee36005860290810180546001600160a01b0319169290931691909117825592517ff3f7a9fe364faab93b216da50a3214154f22a0a2b415b23a84c8169e8b636ee484015593519293909290917ff3f7a9fe364faab93b216da50a3214154f22a0a2b415b23a84c8169e8b636ee50190612155908261358d565b50606082015160038201805460ff19169115159190911790556080909101516004909101556001600160a01b03841681336001600160a01b03167fd5a05bf70715ad82a09a756320284a1b54c9ff74cd0f8cce6219e79b563fe59d86866040516121c092919061368e565b60405180910390a450505050565b336000908152600b602052604090205460ff166121fd5760405162461bcd60e51b815260040161127b90613668565b600854819081106122205760405162461bcd60e51b815260040161127b906136a7565b8160088181548110612234576122346134c9565b600091825260209091206003600590920201015460ff16156122685760405162461bcd60e51b815260040161127b906136d2565b60006008848154811061227d5761227d6134c9565b60009182526020808320878452600a909152604083206005909202019250906122a33390565b6001600160a01b0316815260208101919091526040016000205460ff166122ff5760405162461bcd60e51b815260206004820152601060248201526f1d1e081b9bdd0818dbdb999a5c9b595960821b604482015260640161127b565b600481018054906000612311836136ff565b90915550506000848152600a60209081526040808320338085529252808320805460ff191690555186927ff0dca620e2e81f7841d07bcc105e1704fb01475b278a9d4c236e1c62945edd5591a350505050565b6000816000548110156123b95760008181526004602052604081205490600160e01b821690036123b7575b806000036123b057506000190160008181526004602052604090205461238f565b9392505050565b505b604051636f96cda160e11b815260040160405180910390fd5b6002600d54036124245760405162461bcd60e51b815260206004820152601f60248201527f5265656e7472616e637947756172643a207265656e7472616e742063616c6c00604482015260640161127b565b6002600d55565b6000826124388584612b09565b14949350505050565b61142e828260405180602001604052806000815250612b56565b606060128054610b8e9061348f565b336000908152600b602052604090205460ff166124995760405162461bcd60e51b815260040161127b90613668565b600854819081106124bc5760405162461bcd60e51b815260040161127b906136a7565b81600881815481106124d0576124d06134c9565b600091825260209091206003600590920201015460ff16156125045760405162461bcd60e51b815260040161127b906136d2565b600060088481548110612519576125196134c9565b90600052602060002090600502019050600363ffffffff16816004015410156125775760405162461bcd60e51b815260206004820152601060248201526f74782063616e2774206578656375746560801b604482015260640161127b565b60038101805460ff191660019081179091558154908201546040516000926001600160a01b031691906125ae906002860190613716565b60006040518083038185875af1925050503d80600081146125eb576040519150601f19603f3d011682016040523d82523d6000602084013e6125f0565b606091505b50509050806126335760405162461bcd60e51b815260206004820152600f60248201526e1d1c985b9cd9995c8819985a5b1959608a1b604482015260640161127b565b604051859033907f5445f318f4f5fcfb66592e68e0cc5822aa15664039bd5f0ffde24c5a8142b1ac90600090a35050505050565b6126718282611955565b61142e576000828152600c602090815260408083206001600160a01b03851684529091529020805460ff191660011790556126a93390565b6001600160a01b0316816001600160a01b0316837f2f8788117e7eff1d82e926ec794901d17c78024a50270940304540a733656f0d60405160405180910390a45050565b6126f78282611955565b1561142e576000828152600c602090815260408083206001600160a01b0385168085529252808320805460ff1916905551339285917ff6391f5c32d9c69d2a47ea670b442974b53935d1edc7fd64eb21e047a839171b9190a45050565b336000908152600b602052604090205460ff166127835760405162461bcd60e51b815260040161127b90613668565b600854819081106127a65760405162461bcd60e51b815260040161127b906136a7565b81600881815481106127ba576127ba6134c9565b600091825260209091206003600590920201015460ff16156127ee5760405162461bcd60e51b815260040161127b906136d2565b6000838152600a60209081526040808320338452909152902054839060ff16156128515760405162461bcd60e51b81526020600482015260146024820152731d1e08185b1c9958591e4818dbdb999a5c9b595960621b604482015260640161127b565b600060088581548110612866576128666134c9565b9060005260206000209060050201905080600401600081548092919061288b9061378c565b90915550506000858152600a60209081526040808320338085529252808320805460ff191660011790555187927f5cbe105e36805f7820e291f799d5794ff948af2a5f664e580382defb6339004191a35050505050565b604051630a85bd0160e11b81526000906001600160a01b0385169063150b7a02906129179033908990889088906004016137a5565b6020604051808303816000875af1925050508015612952575060408051601f3d908101601f1916820190925261294f918101906137e2565b60015b6129b0573d808015612980576040519150601f19603f3d011682016040523d82523d6000602084013e612985565b606091505b5080516000036129a8576040516368d2bf6b60e11b815260040160405180910390fd5b805181602001fd5b6001600160e01b031916630a85bd0160e11b1490505b949350505050565b606060006129da61245b565b805190915015612a0a57806040516020016129f591906137ff565b60405160208183030381529060405291505090565b505060408051602081019091526000815290565b60606000612a2b83612bbc565b60010190506000816001600160401b03811115612a4a57612a4a613063565b6040519080825280601f01601f191660200182016040528015612a74576020820181803683370190505b5090508181016020015b600019016f181899199a1a9b1b9c1cb0b131b232b360811b600a86061a8153600a8504945084612a7e57509392505050565b612aba8282611955565b61142e57612ac781612c94565b612ad2836020612ca6565b604051602001612ae392919061382e565b60408051601f198184030181529082905262461bcd60e51b825261127b91600401612ff1565b600081815b8451811015612b4e57612b3a82868381518110612b2d57612b2d6134c9565b6020026020010151612e41565b915080612b468161378c565b915050612b0e565b509392505050565b612b608383612e70565b6001600160a01b0383163b156111cf576000548281035b612b8a60008683806001019450866128e2565b612ba7576040516368d2bf6b60e11b815260040160405180910390fd5b818110612b7757816000541461128d57600080fd5b60008072184f03e93ff9f4daa797ed6e38ed64bf6a1f0160401b8310612bfb5772184f03e93ff9f4daa797ed6e38ed64bf6a1f0160401b830492506040015b6d04ee2d6d415b85acef81000000008310612c27576d04ee2d6d415b85acef8100000000830492506020015b662386f26fc100008310612c4557662386f26fc10000830492506010015b6305f5e1008310612c5d576305f5e100830492506008015b6127108310612c7157612710830492506004015b60648310612c83576064830492506002015b600a8310610b795760010192915050565b6060610b796001600160a01b03831660145b60606000612cb58360026138a3565b612cc09060026134f5565b6001600160401b03811115612cd757612cd7613063565b6040519080825280601f01601f191660200182016040528015612d01576020820181803683370190505b509050600360fc1b81600081518110612d1c57612d1c6134c9565b60200101906001600160f81b031916908160001a905350600f60fb1b81600181518110612d4b57612d4b6134c9565b60200101906001600160f81b031916908160001a9053506000612d6f8460026138a3565b612d7a9060016134f5565b90505b6001811115612df2576f181899199a1a9b1b9c1cb0b131b232b360811b85600f1660108110612dae57612dae6134c9565b1a60f81b828281518110612dc457612dc46134c9565b60200101906001600160f81b031916908160001a90535060049490941c93612deb816136ff565b9050612d7d565b5083156123b05760405162461bcd60e51b815260206004820181905260248201527f537472696e67733a20686578206c656e67746820696e73756666696369656e74604482015260640161127b565b6000818310612e5d5760008281526020849052604090206123b0565b60008381526020839052604090206123b0565b6000805490829003612e955760405163b562e8dd60e01b815260040160405180910390fd5b6001600160a01b03831660008181526005602090815260408083208054680100000000000000018802019055848352600490915281206001851460e11b4260a01b178317905582840190839083907fddf252ad1be2c89b69c2b068fc378daa952ba7f163c4a11628f55a4df523b3ef8180a4600183015b818114612f4457808360007fddf252ad1be2c89b69c2b068fc378daa952ba7f163c4a11628f55a4df523b3ef600080a4600101612f0c565b5081600003612f6557604051622e076360e81b815260040160405180910390fd5b60005550505050565b6001600160e01b031981168114611c6c57600080fd5b600060208284031215612f9657600080fd5b81356123b081612f6e565b60005b83811015612fbc578181015183820152602001612fa4565b50506000910152565b60008151808452612fdd816020860160208601612fa1565b601f01601f19169290920160200192915050565b6020815260006123b06020830184612fc5565b60006020828403121561301657600080fd5b5035919050565b80356001600160a01b038116811461303457600080fd5b919050565b6000806040838503121561304c57600080fd5b6130558361301d565b946020939093013593505050565b634e487b7160e01b600052604160045260246000fd5b60006001600160401b038084111561309357613093613063565b604051601f8501601f19908116603f011681019082821181831017156130bb576130bb613063565b816040528093508581528686860111156130d457600080fd5b858560208301376000602087830101525050509392505050565b600082601f8301126130ff57600080fd5b6123b083833560208501613079565b60008060006060848603121561312357600080fd5b61312c8461301d565b92506020840135915060408401356001600160401b0381111561314e57600080fd5b61315a868287016130ee565b9150509250925092565b60008060006060848603121561317957600080fd5b6131828461301d565b92506131906020850161301d565b9150604084013590509250925092565b6000602082840312156131b257600080fd5b813563ffffffff811681146123b057600080fd5b6000806000604084860312156131db57600080fd5b8335925060208401356001600160401b03808211156131f957600080fd5b818601915086601f83011261320d57600080fd5b81358181111561321c57600080fd5b8760208260051b850101111561323157600080fd5b6020830194508093505050509250925092565b6000806040838503121561325757600080fd5b823591506132676020840161301d565b90509250929050565b60018060a01b038616815284602082015260a06040820152600061329760a0830186612fc5565b931515606083015250608001529392505050565b634e487b7160e01b600052602160045260246000fd5b60208101600483106132e357634e487b7160e01b600052602160045260246000fd5b91905290565b6000602082840312156132fb57600080fd5b81356001600160401b03811681146123b057600080fd5b6020808252825182820181905260009190848201906040850190845b818110156133535783516001600160a01b03168352928401929184019160010161332e565b50909695505050505050565b60006020828403121561337157600080fd5b6123b08261301d565b6000806040838503121561338d57600080fd5b6133968361301d565b9150602083013580151581146133ab57600080fd5b809150509250929050565b600080600080608085870312156133cc57600080fd5b6133d58561301d565b93506133e36020860161301d565b92506040850135915060608501356001600160401b0381111561340557600080fd5b613411878288016130ee565b91505092959194509250565b6000806040838503121561343057600080fd5b6134398361301d565b91506132676020840161301d565b60006020828403121561345957600080fd5b81356001600160401b0381111561346f57600080fd5b8201601f8101841361348057600080fd5b6129c684823560208401613079565b600181811c908216806134a357607f821691505b6020821081036134c357634e487b7160e01b600052602260045260246000fd5b50919050565b634e487b7160e01b600052603260045260246000fd5b634e487b7160e01b600052601160045260246000fd5b80820180821115610b7957610b796134df565b6000835161351a818460208801612fa1565b83519083019061352e818360208801612fa1565b64173539b7b760d91b9101908152600501949350505050565b601f8211156111cf57600081815260208120601f850160051c8101602086101561356e5750805b601f850160051c820191505b81811015610d685782815560010161357a565b81516001600160401b038111156135a6576135a6613063565b6135ba816135b4845461348f565b84613547565b602080601f8311600181146135ef57600084156135d75750858301515b600019600386901b1c1916600185901b178555610d68565b600085815260208120601f198616915b8281101561361e578886015182559484019460019091019084016135ff565b508582101561363c5787850151600019600388901b60f8161c191681555b5050505050600190811b01905550565b6000825161365e818460208701612fa1565b9190910192915050565b6020808252600c908201526b3737ba1030b8383937bb32b960a11b604082015260600190565b8281526040602082015260006129c66040830184612fc5565b602080825260119082015270747820646f65736e27742065786973747360781b604082015260600190565b6020808252601390820152721d1e08185b1c9958591e48195e1958dd5d1959606a1b604082015260600190565b60008161370e5761370e6134df565b506000190190565b60008083546137248161348f565b6001828116801561373c576001811461375157613780565b60ff1984168752821515830287019450613780565b8760005260208060002060005b858110156137775781548a82015290840190820161375e565b50505082870194505b50929695505050505050565b60006001820161379e5761379e6134df565b5060010190565b6001600160a01b03858116825284166020820152604081018390526080606082018190526000906137d890830184612fc5565b9695505050505050565b6000602082840312156137f457600080fd5b81516123b081612f6e565b60008251613811818460208701612fa1565b6a3434b23232b7173539b7b760a91b920191825250600b01919050565b7f416363657373436f6e74726f6c3a206163636f756e7420000000000000000000815260008351613866816017850160208801612fa1565b7001034b99036b4b9b9b4b733903937b6329607d1b6017918401918201528351613897816028840160208801612fa1565b01602801949350505050565b8082028115828204841417610b7957610b796134df56fe97667070c54ef182b0f5858b034beac1b6f3089aa2d3188bb1e8929f4fa9b929a2646970667358221220f4964784ef6f2910205edcab248cac22b067c5e223d828df536fa4798f79edbb64736f6c63430008120033ddf252ad1be2c89b69c2b068fc378daa952ba7f163c4a11628f55a4df523b3ef",
  "linkReferences": {},
  "deployedLinkReferences": {}
}